{
	"CLPT/CLPTStablecoin.sol": {
		"CLPTStablecoin": {
			"abi": [
				{
					"inputs": [
						{
							"internalType": "address",
							"name": "_collateralToken",
							"type": "address"
						},
						{
							"internalType": "address",
							"name": "_pricefeed",
							"type": "address"
						}
					],
					"stateMutability": "nonpayable",
					"type": "constructor"
				},
				{
					"anonymous": false,
					"inputs": [
						{
							"indexed": true,
							"internalType": "address",
							"name": "owner",
							"type": "address"
						},
						{
							"indexed": true,
							"internalType": "address",
							"name": "spender",
							"type": "address"
						},
						{
							"indexed": false,
							"internalType": "uint256",
							"name": "value",
							"type": "uint256"
						}
					],
					"name": "Approval",
					"type": "event"
				},
				{
					"anonymous": false,
					"inputs": [
						{
							"indexed": true,
							"internalType": "address",
							"name": "from",
							"type": "address"
						},
						{
							"indexed": true,
							"internalType": "address",
							"name": "to",
							"type": "address"
						},
						{
							"indexed": false,
							"internalType": "uint256",
							"name": "value",
							"type": "uint256"
						}
					],
					"name": "Transfer",
					"type": "event"
				},
				{
					"inputs": [],
					"name": "COLLATERAL_DECIMAL",
					"outputs": [
						{
							"internalType": "uint256",
							"name": "",
							"type": "uint256"
						}
					],
					"stateMutability": "view",
					"type": "function"
				},
				{
					"inputs": [],
					"name": "admin",
					"outputs": [
						{
							"internalType": "address",
							"name": "",
							"type": "address"
						}
					],
					"stateMutability": "view",
					"type": "function"
				},
				{
					"inputs": [
						{
							"internalType": "address",
							"name": "owner",
							"type": "address"
						},
						{
							"internalType": "address",
							"name": "spender",
							"type": "address"
						}
					],
					"name": "allowance",
					"outputs": [
						{
							"internalType": "uint256",
							"name": "",
							"type": "uint256"
						}
					],
					"stateMutability": "view",
					"type": "function"
				},
				{
					"inputs": [
						{
							"internalType": "address",
							"name": "spender",
							"type": "address"
						},
						{
							"internalType": "uint256",
							"name": "amount",
							"type": "uint256"
						}
					],
					"name": "approve",
					"outputs": [
						{
							"internalType": "bool",
							"name": "",
							"type": "bool"
						}
					],
					"stateMutability": "nonpayable",
					"type": "function"
				},
				{
					"inputs": [
						{
							"internalType": "address",
							"name": "account",
							"type": "address"
						}
					],
					"name": "balanceOf",
					"outputs": [
						{
							"internalType": "uint256",
							"name": "",
							"type": "uint256"
						}
					],
					"stateMutability": "view",
					"type": "function"
				},
				{
					"inputs": [
						{
							"internalType": "uint256",
							"name": "_stablecoinAmount",
							"type": "uint256"
						}
					],
					"name": "burn",
					"outputs": [],
					"stateMutability": "nonpayable",
					"type": "function"
				},
				{
					"inputs": [
						{
							"internalType": "uint256",
							"name": "_stablecoinAmount",
							"type": "uint256"
						}
					],
					"name": "calculateCollateralAmount",
					"outputs": [
						{
							"internalType": "uint256",
							"name": "",
							"type": "uint256"
						}
					],
					"stateMutability": "view",
					"type": "function"
				},
				{
					"inputs": [],
					"name": "collateralToken",
					"outputs": [
						{
							"internalType": "contract IERC20",
							"name": "",
							"type": "address"
						}
					],
					"stateMutability": "view",
					"type": "function"
				},
				{
					"inputs": [],
					"name": "decimals",
					"outputs": [
						{
							"internalType": "uint8",
							"name": "",
							"type": "uint8"
						}
					],
					"stateMutability": "view",
					"type": "function"
				},
				{
					"inputs": [
						{
							"internalType": "address",
							"name": "spender",
							"type": "address"
						},
						{
							"internalType": "uint256",
							"name": "subtractedValue",
							"type": "uint256"
						}
					],
					"name": "decreaseAllowance",
					"outputs": [
						{
							"internalType": "bool",
							"name": "",
							"type": "bool"
						}
					],
					"stateMutability": "nonpayable",
					"type": "function"
				},
				{
					"inputs": [],
					"name": "getCollateralPrice",
					"outputs": [
						{
							"internalType": "uint256",
							"name": "",
							"type": "uint256"
						}
					],
					"stateMutability": "view",
					"type": "function"
				},
				{
					"inputs": [
						{
							"internalType": "address",
							"name": "spender",
							"type": "address"
						},
						{
							"internalType": "uint256",
							"name": "addedValue",
							"type": "uint256"
						}
					],
					"name": "increaseAllowance",
					"outputs": [
						{
							"internalType": "bool",
							"name": "",
							"type": "bool"
						}
					],
					"stateMutability": "nonpayable",
					"type": "function"
				},
				{
					"inputs": [
						{
							"internalType": "uint256",
							"name": "_stablecoinAmount",
							"type": "uint256"
						}
					],
					"name": "mint",
					"outputs": [],
					"stateMutability": "nonpayable",
					"type": "function"
				},
				{
					"inputs": [],
					"name": "name",
					"outputs": [
						{
							"internalType": "string",
							"name": "",
							"type": "string"
						}
					],
					"stateMutability": "view",
					"type": "function"
				},
				{
					"inputs": [],
					"name": "priceFeed",
					"outputs": [
						{
							"internalType": "contract AggregatorV3Interface",
							"name": "",
							"type": "address"
						}
					],
					"stateMutability": "view",
					"type": "function"
				},
				{
					"inputs": [],
					"name": "symbol",
					"outputs": [
						{
							"internalType": "string",
							"name": "",
							"type": "string"
						}
					],
					"stateMutability": "view",
					"type": "function"
				},
				{
					"inputs": [],
					"name": "totalSupply",
					"outputs": [
						{
							"internalType": "uint256",
							"name": "",
							"type": "uint256"
						}
					],
					"stateMutability": "view",
					"type": "function"
				},
				{
					"inputs": [
						{
							"internalType": "address",
							"name": "to",
							"type": "address"
						},
						{
							"internalType": "uint256",
							"name": "amount",
							"type": "uint256"
						}
					],
					"name": "transfer",
					"outputs": [
						{
							"internalType": "bool",
							"name": "",
							"type": "bool"
						}
					],
					"stateMutability": "nonpayable",
					"type": "function"
				},
				{
					"inputs": [
						{
							"internalType": "address",
							"name": "from",
							"type": "address"
						},
						{
							"internalType": "address",
							"name": "to",
							"type": "address"
						},
						{
							"internalType": "uint256",
							"name": "amount",
							"type": "uint256"
						}
					],
					"name": "transferFrom",
					"outputs": [
						{
							"internalType": "bool",
							"name": "",
							"type": "bool"
						}
					],
					"stateMutability": "nonpayable",
					"type": "function"
				}
			],
			"devdoc": {
				"events": {
					"Approval(address,address,uint256)": {
						"details": "Emitted when the allowance of a `spender` for an `owner` is set by a call to {approve}. `value` is the new allowance."
					},
					"Transfer(address,address,uint256)": {
						"details": "Emitted when `value` tokens are moved from one account (`from`) to another (`to`). Note that `value` may be zero."
					}
				},
				"kind": "dev",
				"methods": {
					"allowance(address,address)": {
						"details": "See {IERC20-allowance}."
					},
					"approve(address,uint256)": {
						"details": "See {IERC20-approve}. NOTE: If `amount` is the maximum `uint256`, the allowance is not updated on `transferFrom`. This is semantically equivalent to an infinite approval. Requirements: - `spender` cannot be the zero address."
					},
					"balanceOf(address)": {
						"details": "See {IERC20-balanceOf}."
					},
					"decimals()": {
						"details": "Returns the number of decimals used to get its user representation. For example, if `decimals` equals `2`, a balance of `505` tokens should be displayed to a user as `5.05` (`505 / 10 ** 2`). Tokens usually opt for a value of 18, imitating the relationship between Ether and Wei. This is the default value returned by this function, unless it's overridden. NOTE: This information is only used for _display_ purposes: it in no way affects any of the arithmetic of the contract, including {IERC20-balanceOf} and {IERC20-transfer}."
					},
					"decreaseAllowance(address,uint256)": {
						"details": "Atomically decreases the allowance granted to `spender` by the caller. This is an alternative to {approve} that can be used as a mitigation for problems described in {IERC20-approve}. Emits an {Approval} event indicating the updated allowance. Requirements: - `spender` cannot be the zero address. - `spender` must have allowance for the caller of at least `subtractedValue`."
					},
					"increaseAllowance(address,uint256)": {
						"details": "Atomically increases the allowance granted to `spender` by the caller. This is an alternative to {approve} that can be used as a mitigation for problems described in {IERC20-approve}. Emits an {Approval} event indicating the updated allowance. Requirements: - `spender` cannot be the zero address."
					},
					"name()": {
						"details": "Returns the name of the token."
					},
					"symbol()": {
						"details": "Returns the symbol of the token, usually a shorter version of the name."
					},
					"totalSupply()": {
						"details": "See {IERC20-totalSupply}."
					},
					"transfer(address,uint256)": {
						"details": "See {IERC20-transfer}. Requirements: - `to` cannot be the zero address. - the caller must have a balance of at least `amount`."
					},
					"transferFrom(address,address,uint256)": {
						"details": "See {IERC20-transferFrom}. Emits an {Approval} event indicating the updated allowance. This is not required by the EIP. See the note at the beginning of {ERC20}. NOTE: Does not update the allowance if the current allowance is the maximum `uint256`. Requirements: - `from` and `to` cannot be the zero address. - `from` must have a balance of at least `amount`. - the caller must have allowance for ``from``'s tokens of at least `amount`."
					}
				},
				"version": 1
			},
			"evm": {
				"assembly": "    /* \"CLPT/CLPTStablecoin.sol\":317:2212  contract CLPTStablecoin is ERC20 {... */\n  mstore(0x40, 0x80)\n    /* \"CLPT/CLPTStablecoin.sol\":556:1021  constructor(... */\n  callvalue\n  dup1\n  iszero\n  tag_1\n  jumpi\n  0x00\n  dup1\n  revert\ntag_1:\n  pop\n  mload(0x40)\n  sub(codesize, bytecodeSize)\n  dup1\n  bytecodeSize\n  dup4\n  codecopy\n  dup2\n  dup2\n  add\n  0x40\n  mstore\n  dup2\n  add\n  swap1\n  tag_2\n  swap2\n  swap1\n  tag_3\n  jump\t// in\ntag_2:\n    /* \"@openzeppelin/contracts/token/ERC20/ERC20.sol\":1980:2093  constructor(string memory name_, string memory symbol_) {... */\n  mload(0x40)\n  dup1\n  0x40\n  add\n  0x40\n  mstore\n  dup1\n  0x13\n  dup2\n  mstore\n  0x20\n  add\n  0x4368696c65616e205065736f7320546f6b656e00000000000000000000000000\n  dup2\n  mstore\n  pop\n  mload(0x40)\n  dup1\n  0x40\n  add\n  0x40\n  mstore\n  dup1\n  0x04\n  dup2\n  mstore\n  0x20\n  add\n  0x434c505400000000000000000000000000000000000000000000000000000000\n  dup2\n  mstore\n  pop\n    /* \"@openzeppelin/contracts/token/ERC20/ERC20.sol\":2054:2059  name_ */\n  dup2\n    /* \"@openzeppelin/contracts/token/ERC20/ERC20.sol\":2046:2051  _name */\n  0x03\n    /* \"@openzeppelin/contracts/token/ERC20/ERC20.sol\":2046:2059  _name = name_ */\n  swap1\n  dup2\n  tag_7\n  swap2\n  swap1\n  tag_8\n  jump\t// in\ntag_7:\n  pop\n    /* \"@openzeppelin/contracts/token/ERC20/ERC20.sol\":2079:2086  symbol_ */\n  dup1\n    /* \"@openzeppelin/contracts/token/ERC20/ERC20.sol\":2069:2076  _symbol */\n  0x04\n    /* \"@openzeppelin/contracts/token/ERC20/ERC20.sol\":2069:2086  _symbol = symbol_ */\n  swap1\n  dup2\n  tag_9\n  swap2\n  swap1\n  tag_8\n  jump\t// in\ntag_9:\n  pop\n    /* \"@openzeppelin/contracts/token/ERC20/ERC20.sol\":1980:2093  constructor(string memory name_, string memory symbol_) {... */\n  pop\n  pop\n    /* \"CLPT/CLPTStablecoin.sol\":737:738  0 */\n  0x00\n    /* \"CLPT/CLPTStablecoin.sol\":709:739  _collateralToken != address(0) */\n  0xffffffffffffffffffffffffffffffffffffffff\n  and\n    /* \"CLPT/CLPTStablecoin.sol\":709:725  _collateralToken */\n  dup3\n    /* \"CLPT/CLPTStablecoin.sol\":709:739  _collateralToken != address(0) */\n  0xffffffffffffffffffffffffffffffffffffffff\n  and\n  sub\n    /* \"CLPT/CLPTStablecoin.sol\":687:799  require(... */\n  tag_11\n  jumpi\n  mload(0x40)\n  0x08c379a000000000000000000000000000000000000000000000000000000000\n  dup2\n  mstore\n  0x04\n  add\n  tag_12\n  swap1\n  tag_13\n  jump\t// in\ntag_12:\n  mload(0x40)\n  dup1\n  swap2\n  sub\n  swap1\n  revert\ntag_11:\n    /* \"CLPT/CLPTStablecoin.sol\":840:841  0 */\n  0x00\n    /* \"CLPT/CLPTStablecoin.sol\":818:842  _pricefeed != address(0) */\n  0xffffffffffffffffffffffffffffffffffffffff\n  and\n    /* \"CLPT/CLPTStablecoin.sol\":818:828  _pricefeed */\n  dup2\n    /* \"CLPT/CLPTStablecoin.sol\":818:842  _pricefeed != address(0) */\n  0xffffffffffffffffffffffffffffffffffffffff\n  and\n  sub\n    /* \"CLPT/CLPTStablecoin.sol\":810:873  require(_pricefeed != address(0), \"Invalid price feed address\") */\n  tag_14\n  jumpi\n  mload(0x40)\n  0x08c379a000000000000000000000000000000000000000000000000000000000\n  dup2\n  mstore\n  0x04\n  add\n  tag_15\n  swap1\n  tag_16\n  jump\t// in\ntag_15:\n  mload(0x40)\n  dup1\n  swap2\n  sub\n  swap1\n  revert\ntag_14:\n    /* \"CLPT/CLPTStablecoin.sol\":894:904  msg.sender */\n  caller\n    /* \"CLPT/CLPTStablecoin.sol\":886:891  admin */\n  0x05\n  0x00\n    /* \"CLPT/CLPTStablecoin.sol\":886:904  admin = msg.sender */\n  0x0100\n  exp\n  dup2\n  sload\n  dup2\n  0xffffffffffffffffffffffffffffffffffffffff\n  mul\n  not\n  and\n  swap1\n  dup4\n  0xffffffffffffffffffffffffffffffffffffffff\n  and\n  mul\n  or\n  swap1\n  sstore\n  pop\n    /* \"CLPT/CLPTStablecoin.sol\":940:956  _collateralToken */\n  dup2\n    /* \"CLPT/CLPTStablecoin.sol\":915:930  collateralToken */\n  0x06\n  0x00\n    /* \"CLPT/CLPTStablecoin.sol\":915:957  collateralToken = IERC20(_collateralToken) */\n  0x0100\n  exp\n  dup2\n  sload\n  dup2\n  0xffffffffffffffffffffffffffffffffffffffff\n  mul\n  not\n  and\n  swap1\n  dup4\n  0xffffffffffffffffffffffffffffffffffffffff\n  and\n  mul\n  or\n  swap1\n  sstore\n  pop\n    /* \"CLPT/CLPTStablecoin.sol\":1002:1012  _pricefeed */\n  dup1\n    /* \"CLPT/CLPTStablecoin.sol\":968:977  priceFeed */\n  0x07\n  0x00\n    /* \"CLPT/CLPTStablecoin.sol\":968:1013  priceFeed = AggregatorV3Interface(_pricefeed) */\n  0x0100\n  exp\n  dup2\n  sload\n  dup2\n  0xffffffffffffffffffffffffffffffffffffffff\n  mul\n  not\n  and\n  swap1\n  dup4\n  0xffffffffffffffffffffffffffffffffffffffff\n  and\n  mul\n  or\n  swap1\n  sstore\n  pop\n    /* \"CLPT/CLPTStablecoin.sol\":556:1021  constructor(... */\n  pop\n  pop\n    /* \"CLPT/CLPTStablecoin.sol\":317:2212  contract CLPTStablecoin is ERC20 {... */\n  jump(tag_17)\n    /* \"#utility.yul\":88:205   */\ntag_19:\n    /* \"#utility.yul\":197:198   */\n  0x00\n    /* \"#utility.yul\":194:195   */\n  dup1\n    /* \"#utility.yul\":187:199   */\n  revert\n    /* \"#utility.yul\":334:460   */\ntag_21:\n    /* \"#utility.yul\":371:378   */\n  0x00\n    /* \"#utility.yul\":411:453   */\n  0xffffffffffffffffffffffffffffffffffffffff\n    /* \"#utility.yul\":404:409   */\n  dup3\n    /* \"#utility.yul\":400:454   */\n  and\n    /* \"#utility.yul\":389:454   */\n  swap1\n  pop\n    /* \"#utility.yul\":334:460   */\n  swap2\n  swap1\n  pop\n  jump\t// out\n    /* \"#utility.yul\":466:562   */\ntag_22:\n    /* \"#utility.yul\":503:510   */\n  0x00\n    /* \"#utility.yul\":532:556   */\n  tag_56\n    /* \"#utility.yul\":550:555   */\n  dup3\n    /* \"#utility.yul\":532:556   */\n  tag_21\n  jump\t// in\ntag_56:\n    /* \"#utility.yul\":521:556   */\n  swap1\n  pop\n    /* \"#utility.yul\":466:562   */\n  swap2\n  swap1\n  pop\n  jump\t// out\n    /* \"#utility.yul\":568:690   */\ntag_23:\n    /* \"#utility.yul\":641:665   */\n  tag_58\n    /* \"#utility.yul\":659:664   */\n  dup2\n    /* \"#utility.yul\":641:665   */\n  tag_22\n  jump\t// in\ntag_58:\n    /* \"#utility.yul\":634:639   */\n  dup2\n    /* \"#utility.yul\":631:666   */\n  eq\n    /* \"#utility.yul\":621:684   */\n  tag_59\n  jumpi\n    /* \"#utility.yul\":680:681   */\n  0x00\n    /* \"#utility.yul\":677:678   */\n  dup1\n    /* \"#utility.yul\":670:682   */\n  revert\n    /* \"#utility.yul\":621:684   */\ntag_59:\n    /* \"#utility.yul\":568:690   */\n  pop\n  jump\t// out\n    /* \"#utility.yul\":696:839   */\ntag_24:\n    /* \"#utility.yul\":753:758   */\n  0x00\n    /* \"#utility.yul\":784:790   */\n  dup2\n    /* \"#utility.yul\":778:791   */\n  mload\n    /* \"#utility.yul\":769:791   */\n  swap1\n  pop\n    /* \"#utility.yul\":800:833   */\n  tag_61\n    /* \"#utility.yul\":827:832   */\n  dup2\n    /* \"#utility.yul\":800:833   */\n  tag_23\n  jump\t// in\ntag_61:\n    /* \"#utility.yul\":696:839   */\n  swap3\n  swap2\n  pop\n  pop\n  jump\t// out\n    /* \"#utility.yul\":845:1352   */\ntag_3:\n    /* \"#utility.yul\":924:930   */\n  0x00\n    /* \"#utility.yul\":932:938   */\n  dup1\n    /* \"#utility.yul\":981:983   */\n  0x40\n    /* \"#utility.yul\":969:978   */\n  dup4\n    /* \"#utility.yul\":960:967   */\n  dup6\n    /* \"#utility.yul\":956:979   */\n  sub\n    /* \"#utility.yul\":952:984   */\n  slt\n    /* \"#utility.yul\":949:1068   */\n  iszero\n  tag_63\n  jumpi\n    /* \"#utility.yul\":987:1066   */\n  tag_64\n  tag_19\n  jump\t// in\ntag_64:\n    /* \"#utility.yul\":949:1068   */\ntag_63:\n    /* \"#utility.yul\":1107:1108   */\n  0x00\n    /* \"#utility.yul\":1132:1196   */\n  tag_65\n    /* \"#utility.yul\":1188:1195   */\n  dup6\n    /* \"#utility.yul\":1179:1185   */\n  dup3\n    /* \"#utility.yul\":1168:1177   */\n  dup7\n    /* \"#utility.yul\":1164:1186   */\n  add\n    /* \"#utility.yul\":1132:1196   */\n  tag_24\n  jump\t// in\ntag_65:\n    /* \"#utility.yul\":1122:1196   */\n  swap3\n  pop\n    /* \"#utility.yul\":1078:1206   */\n  pop\n    /* \"#utility.yul\":1245:1247   */\n  0x20\n    /* \"#utility.yul\":1271:1335   */\n  tag_66\n    /* \"#utility.yul\":1327:1334   */\n  dup6\n    /* \"#utility.yul\":1318:1324   */\n  dup3\n    /* \"#utility.yul\":1307:1316   */\n  dup7\n    /* \"#utility.yul\":1303:1325   */\n  add\n    /* \"#utility.yul\":1271:1335   */\n  tag_24\n  jump\t// in\ntag_66:\n    /* \"#utility.yul\":1261:1335   */\n  swap2\n  pop\n    /* \"#utility.yul\":1216:1345   */\n  pop\n    /* \"#utility.yul\":845:1352   */\n  swap3\n  pop\n  swap3\n  swap1\n  pop\n  jump\t// out\n    /* \"#utility.yul\":1358:1457   */\ntag_25:\n    /* \"#utility.yul\":1410:1416   */\n  0x00\n    /* \"#utility.yul\":1444:1449   */\n  dup2\n    /* \"#utility.yul\":1438:1450   */\n  mload\n    /* \"#utility.yul\":1428:1450   */\n  swap1\n  pop\n    /* \"#utility.yul\":1358:1457   */\n  swap2\n  swap1\n  pop\n  jump\t// out\n    /* \"#utility.yul\":1463:1643   */\ntag_26:\n    /* \"#utility.yul\":1511:1588   */\n  0x4e487b7100000000000000000000000000000000000000000000000000000000\n    /* \"#utility.yul\":1508:1509   */\n  0x00\n    /* \"#utility.yul\":1501:1589   */\n  mstore\n    /* \"#utility.yul\":1608:1612   */\n  0x41\n    /* \"#utility.yul\":1605:1606   */\n  0x04\n    /* \"#utility.yul\":1598:1613   */\n  mstore\n    /* \"#utility.yul\":1632:1636   */\n  0x24\n    /* \"#utility.yul\":1629:1630   */\n  0x00\n    /* \"#utility.yul\":1622:1637   */\n  revert\n    /* \"#utility.yul\":1649:1829   */\ntag_27:\n    /* \"#utility.yul\":1697:1774   */\n  0x4e487b7100000000000000000000000000000000000000000000000000000000\n    /* \"#utility.yul\":1694:1695   */\n  0x00\n    /* \"#utility.yul\":1687:1775   */\n  mstore\n    /* \"#utility.yul\":1794:1798   */\n  0x22\n    /* \"#utility.yul\":1791:1792   */\n  0x04\n    /* \"#utility.yul\":1784:1799   */\n  mstore\n    /* \"#utility.yul\":1818:1822   */\n  0x24\n    /* \"#utility.yul\":1815:1816   */\n  0x00\n    /* \"#utility.yul\":1808:1823   */\n  revert\n    /* \"#utility.yul\":1835:2155   */\ntag_28:\n    /* \"#utility.yul\":1879:1885   */\n  0x00\n    /* \"#utility.yul\":1916:1917   */\n  0x02\n    /* \"#utility.yul\":1910:1914   */\n  dup3\n    /* \"#utility.yul\":1906:1918   */\n  div\n    /* \"#utility.yul\":1896:1918   */\n  swap1\n  pop\n    /* \"#utility.yul\":1963:1964   */\n  0x01\n    /* \"#utility.yul\":1957:1961   */\n  dup3\n    /* \"#utility.yul\":1953:1965   */\n  and\n    /* \"#utility.yul\":1984:2002   */\n  dup1\n    /* \"#utility.yul\":1974:2055   */\n  tag_71\n  jumpi\n    /* \"#utility.yul\":2040:2044   */\n  0x7f\n    /* \"#utility.yul\":2032:2038   */\n  dup3\n    /* \"#utility.yul\":2028:2045   */\n  and\n    /* \"#utility.yul\":2018:2045   */\n  swap2\n  pop\n    /* \"#utility.yul\":1974:2055   */\ntag_71:\n    /* \"#utility.yul\":2102:2104   */\n  0x20\n    /* \"#utility.yul\":2094:2100   */\n  dup3\n    /* \"#utility.yul\":2091:2105   */\n  lt\n    /* \"#utility.yul\":2071:2089   */\n  dup2\n    /* \"#utility.yul\":2068:2106   */\n  sub\n    /* \"#utility.yul\":2065:2149   */\n  tag_72\n  jumpi\n    /* \"#utility.yul\":2121:2139   */\n  tag_73\n  tag_27\n  jump\t// in\ntag_73:\n    /* \"#utility.yul\":2065:2149   */\ntag_72:\n    /* \"#utility.yul\":1886:2155   */\n  pop\n    /* \"#utility.yul\":1835:2155   */\n  swap2\n  swap1\n  pop\n  jump\t// out\n    /* \"#utility.yul\":2161:2302   */\ntag_29:\n    /* \"#utility.yul\":2210:2214   */\n  0x00\n    /* \"#utility.yul\":2233:2236   */\n  dup2\n    /* \"#utility.yul\":2225:2236   */\n  swap1\n  pop\n    /* \"#utility.yul\":2256:2259   */\n  dup2\n    /* \"#utility.yul\":2253:2254   */\n  0x00\n    /* \"#utility.yul\":2246:2260   */\n  mstore\n    /* \"#utility.yul\":2290:2294   */\n  0x20\n    /* \"#utility.yul\":2287:2288   */\n  0x00\n    /* \"#utility.yul\":2277:2295   */\n  keccak256\n    /* \"#utility.yul\":2269:2295   */\n  swap1\n  pop\n    /* \"#utility.yul\":2161:2302   */\n  swap2\n  swap1\n  pop\n  jump\t// out\n    /* \"#utility.yul\":2308:2401   */\ntag_30:\n    /* \"#utility.yul\":2345:2351   */\n  0x00\n    /* \"#utility.yul\":2392:2394   */\n  0x20\n    /* \"#utility.yul\":2387:2389   */\n  0x1f\n    /* \"#utility.yul\":2380:2385   */\n  dup4\n    /* \"#utility.yul\":2376:2390   */\n  add\n    /* \"#utility.yul\":2372:2395   */\n  div\n    /* \"#utility.yul\":2362:2395   */\n  swap1\n  pop\n    /* \"#utility.yul\":2308:2401   */\n  swap2\n  swap1\n  pop\n  jump\t// out\n    /* \"#utility.yul\":2407:2514   */\ntag_31:\n    /* \"#utility.yul\":2451:2459   */\n  0x00\n    /* \"#utility.yul\":2501:2506   */\n  dup3\n    /* \"#utility.yul\":2495:2499   */\n  dup3\n    /* \"#utility.yul\":2491:2507   */\n  shl\n    /* \"#utility.yul\":2470:2507   */\n  swap1\n  pop\n    /* \"#utility.yul\":2407:2514   */\n  swap3\n  swap2\n  pop\n  pop\n  jump\t// out\n    /* \"#utility.yul\":2520:2913   */\ntag_32:\n    /* \"#utility.yul\":2589:2595   */\n  0x00\n    /* \"#utility.yul\":2639:2640   */\n  0x08\n    /* \"#utility.yul\":2627:2637   */\n  dup4\n    /* \"#utility.yul\":2623:2641   */\n  mul\n    /* \"#utility.yul\":2662:2759   */\n  tag_78\n    /* \"#utility.yul\":2692:2758   */\n  0xffffffffffffffffffffffffffffffffffffffffffffffffffffffffffffffff\n    /* \"#utility.yul\":2681:2690   */\n  dup3\n    /* \"#utility.yul\":2662:2759   */\n  tag_31\n  jump\t// in\ntag_78:\n    /* \"#utility.yul\":2780:2819   */\n  tag_79\n    /* \"#utility.yul\":2810:2818   */\n  dup7\n    /* \"#utility.yul\":2799:2808   */\n  dup4\n    /* \"#utility.yul\":2780:2819   */\n  tag_31\n  jump\t// in\ntag_79:\n    /* \"#utility.yul\":2768:2819   */\n  swap6\n  pop\n    /* \"#utility.yul\":2852:2856   */\n  dup1\n    /* \"#utility.yul\":2848:2857   */\n  not\n    /* \"#utility.yul\":2841:2846   */\n  dup5\n    /* \"#utility.yul\":2837:2858   */\n  and\n    /* \"#utility.yul\":2828:2858   */\n  swap4\n  pop\n    /* \"#utility.yul\":2901:2905   */\n  dup1\n    /* \"#utility.yul\":2891:2899   */\n  dup7\n    /* \"#utility.yul\":2887:2906   */\n  and\n    /* \"#utility.yul\":2880:2885   */\n  dup5\n    /* \"#utility.yul\":2877:2907   */\n  or\n    /* \"#utility.yul\":2867:2907   */\n  swap3\n  pop\n    /* \"#utility.yul\":2596:2913   */\n  pop\n  pop\n    /* \"#utility.yul\":2520:2913   */\n  swap4\n  swap3\n  pop\n  pop\n  pop\n  jump\t// out\n    /* \"#utility.yul\":2919:2996   */\ntag_33:\n    /* \"#utility.yul\":2956:2963   */\n  0x00\n    /* \"#utility.yul\":2985:2990   */\n  dup2\n    /* \"#utility.yul\":2974:2990   */\n  swap1\n  pop\n    /* \"#utility.yul\":2919:2996   */\n  swap2\n  swap1\n  pop\n  jump\t// out\n    /* \"#utility.yul\":3002:3062   */\ntag_34:\n    /* \"#utility.yul\":3030:3033   */\n  0x00\n    /* \"#utility.yul\":3051:3056   */\n  dup2\n    /* \"#utility.yul\":3044:3056   */\n  swap1\n  pop\n    /* \"#utility.yul\":3002:3062   */\n  swap2\n  swap1\n  pop\n  jump\t// out\n    /* \"#utility.yul\":3068:3210   */\ntag_35:\n    /* \"#utility.yul\":3118:3127   */\n  0x00\n    /* \"#utility.yul\":3151:3204   */\n  tag_83\n    /* \"#utility.yul\":3169:3203   */\n  tag_84\n    /* \"#utility.yul\":3178:3202   */\n  tag_85\n    /* \"#utility.yul\":3196:3201   */\n  dup5\n    /* \"#utility.yul\":3178:3202   */\n  tag_33\n  jump\t// in\ntag_85:\n    /* \"#utility.yul\":3169:3203   */\n  tag_34\n  jump\t// in\ntag_84:\n    /* \"#utility.yul\":3151:3204   */\n  tag_33\n  jump\t// in\ntag_83:\n    /* \"#utility.yul\":3138:3204   */\n  swap1\n  pop\n    /* \"#utility.yul\":3068:3210   */\n  swap2\n  swap1\n  pop\n  jump\t// out\n    /* \"#utility.yul\":3216:3291   */\ntag_36:\n    /* \"#utility.yul\":3259:3262   */\n  0x00\n    /* \"#utility.yul\":3280:3285   */\n  dup2\n    /* \"#utility.yul\":3273:3285   */\n  swap1\n  pop\n    /* \"#utility.yul\":3216:3291   */\n  swap2\n  swap1\n  pop\n  jump\t// out\n    /* \"#utility.yul\":3297:3566   */\ntag_37:\n    /* \"#utility.yul\":3407:3446   */\n  tag_88\n    /* \"#utility.yul\":3438:3445   */\n  dup4\n    /* \"#utility.yul\":3407:3446   */\n  tag_35\n  jump\t// in\ntag_88:\n    /* \"#utility.yul\":3468:3559   */\n  tag_89\n    /* \"#utility.yul\":3517:3558   */\n  tag_90\n    /* \"#utility.yul\":3541:3557   */\n  dup3\n    /* \"#utility.yul\":3517:3558   */\n  tag_36\n  jump\t// in\ntag_90:\n    /* \"#utility.yul\":3509:3515   */\n  dup5\n    /* \"#utility.yul\":3502:3506   */\n  dup5\n    /* \"#utility.yul\":3496:3507   */\n  sload\n    /* \"#utility.yul\":3468:3559   */\n  tag_32\n  jump\t// in\ntag_89:\n    /* \"#utility.yul\":3462:3466   */\n  dup3\n    /* \"#utility.yul\":3455:3560   */\n  sstore\n    /* \"#utility.yul\":3373:3566   */\n  pop\n    /* \"#utility.yul\":3297:3566   */\n  pop\n  pop\n  pop\n  jump\t// out\n    /* \"#utility.yul\":3572:3645   */\ntag_38:\n    /* \"#utility.yul\":3617:3620   */\n  0x00\n    /* \"#utility.yul\":3572:3645   */\n  swap1\n  jump\t// out\n    /* \"#utility.yul\":3651:3840   */\ntag_39:\n    /* \"#utility.yul\":3728:3760   */\n  tag_93\n  tag_38\n  jump\t// in\ntag_93:\n    /* \"#utility.yul\":3769:3834   */\n  tag_94\n    /* \"#utility.yul\":3827:3833   */\n  dup2\n    /* \"#utility.yul\":3819:3825   */\n  dup5\n    /* \"#utility.yul\":3813:3817   */\n  dup5\n    /* \"#utility.yul\":3769:3834   */\n  tag_37\n  jump\t// in\ntag_94:\n    /* \"#utility.yul\":3704:3840   */\n  pop\n    /* \"#utility.yul\":3651:3840   */\n  pop\n  pop\n  jump\t// out\n    /* \"#utility.yul\":3846:4032   */\ntag_40:\n    /* \"#utility.yul\":3906:4026   */\ntag_96:\n    /* \"#utility.yul\":3923:3926   */\n  dup2\n    /* \"#utility.yul\":3916:3921   */\n  dup2\n    /* \"#utility.yul\":3913:3927   */\n  lt\n    /* \"#utility.yul\":3906:4026   */\n  iszero\n  tag_98\n  jumpi\n    /* \"#utility.yul\":3977:4016   */\n  tag_99\n    /* \"#utility.yul\":4014:4015   */\n  0x00\n    /* \"#utility.yul\":4007:4012   */\n  dup3\n    /* \"#utility.yul\":3977:4016   */\n  tag_39\n  jump\t// in\ntag_99:\n    /* \"#utility.yul\":3950:3951   */\n  0x01\n    /* \"#utility.yul\":3943:3948   */\n  dup2\n    /* \"#utility.yul\":3939:3952   */\n  add\n    /* \"#utility.yul\":3930:3952   */\n  swap1\n  pop\n    /* \"#utility.yul\":3906:4026   */\n  jump(tag_96)\ntag_98:\n    /* \"#utility.yul\":3846:4032   */\n  pop\n  pop\n  jump\t// out\n    /* \"#utility.yul\":4038:4581   */\ntag_41:\n    /* \"#utility.yul\":4139:4141   */\n  0x1f\n    /* \"#utility.yul\":4134:4137   */\n  dup3\n    /* \"#utility.yul\":4131:4142   */\n  gt\n    /* \"#utility.yul\":4128:4574   */\n  iszero\n  tag_101\n  jumpi\n    /* \"#utility.yul\":4173:4211   */\n  tag_102\n    /* \"#utility.yul\":4205:4210   */\n  dup2\n    /* \"#utility.yul\":4173:4211   */\n  tag_29\n  jump\t// in\ntag_102:\n    /* \"#utility.yul\":4257:4286   */\n  tag_103\n    /* \"#utility.yul\":4275:4285   */\n  dup5\n    /* \"#utility.yul\":4257:4286   */\n  tag_30\n  jump\t// in\ntag_103:\n    /* \"#utility.yul\":4247:4255   */\n  dup2\n    /* \"#utility.yul\":4243:4287   */\n  add\n    /* \"#utility.yul\":4440:4442   */\n  0x20\n    /* \"#utility.yul\":4428:4438   */\n  dup6\n    /* \"#utility.yul\":4425:4443   */\n  lt\n    /* \"#utility.yul\":4422:4471   */\n  iszero\n  tag_104\n  jumpi\n    /* \"#utility.yul\":4461:4469   */\n  dup2\n    /* \"#utility.yul\":4446:4469   */\n  swap1\n  pop\n    /* \"#utility.yul\":4422:4471   */\ntag_104:\n    /* \"#utility.yul\":4484:4564   */\n  tag_105\n    /* \"#utility.yul\":4540:4562   */\n  tag_106\n    /* \"#utility.yul\":4558:4561   */\n  dup6\n    /* \"#utility.yul\":4540:4562   */\n  tag_30\n  jump\t// in\ntag_106:\n    /* \"#utility.yul\":4530:4538   */\n  dup4\n    /* \"#utility.yul\":4526:4563   */\n  add\n    /* \"#utility.yul\":4513:4524   */\n  dup3\n    /* \"#utility.yul\":4484:4564   */\n  tag_40\n  jump\t// in\ntag_105:\n    /* \"#utility.yul\":4143:4574   */\n  pop\n  pop\n    /* \"#utility.yul\":4128:4574   */\ntag_101:\n    /* \"#utility.yul\":4038:4581   */\n  pop\n  pop\n  pop\n  jump\t// out\n    /* \"#utility.yul\":4587:4704   */\ntag_42:\n    /* \"#utility.yul\":4641:4649   */\n  0x00\n    /* \"#utility.yul\":4691:4696   */\n  dup3\n    /* \"#utility.yul\":4685:4689   */\n  dup3\n    /* \"#utility.yul\":4681:4697   */\n  shr\n    /* \"#utility.yul\":4660:4697   */\n  swap1\n  pop\n    /* \"#utility.yul\":4587:4704   */\n  swap3\n  swap2\n  pop\n  pop\n  jump\t// out\n    /* \"#utility.yul\":4710:4879   */\ntag_43:\n    /* \"#utility.yul\":4754:4760   */\n  0x00\n    /* \"#utility.yul\":4787:4838   */\n  tag_109\n    /* \"#utility.yul\":4835:4836   */\n  0x00\n    /* \"#utility.yul\":4831:4837   */\n  not\n    /* \"#utility.yul\":4823:4828   */\n  dup5\n    /* \"#utility.yul\":4820:4821   */\n  0x08\n    /* \"#utility.yul\":4816:4829   */\n  mul\n    /* \"#utility.yul\":4787:4838   */\n  tag_42\n  jump\t// in\ntag_109:\n    /* \"#utility.yul\":4783:4839   */\n  not\n    /* \"#utility.yul\":4868:4872   */\n  dup1\n    /* \"#utility.yul\":4862:4866   */\n  dup4\n    /* \"#utility.yul\":4858:4873   */\n  and\n    /* \"#utility.yul\":4848:4873   */\n  swap2\n  pop\n    /* \"#utility.yul\":4761:4879   */\n  pop\n    /* \"#utility.yul\":4710:4879   */\n  swap3\n  swap2\n  pop\n  pop\n  jump\t// out\n    /* \"#utility.yul\":4884:5179   */\ntag_44:\n    /* \"#utility.yul\":4960:4964   */\n  0x00\n    /* \"#utility.yul\":5106:5135   */\n  tag_111\n    /* \"#utility.yul\":5131:5134   */\n  dup4\n    /* \"#utility.yul\":5125:5129   */\n  dup4\n    /* \"#utility.yul\":5106:5135   */\n  tag_43\n  jump\t// in\ntag_111:\n    /* \"#utility.yul\":5098:5135   */\n  swap2\n  pop\n    /* \"#utility.yul\":5168:5171   */\n  dup3\n    /* \"#utility.yul\":5165:5166   */\n  0x02\n    /* \"#utility.yul\":5161:5172   */\n  mul\n    /* \"#utility.yul\":5155:5159   */\n  dup3\n    /* \"#utility.yul\":5152:5173   */\n  or\n    /* \"#utility.yul\":5144:5173   */\n  swap1\n  pop\n    /* \"#utility.yul\":4884:5179   */\n  swap3\n  swap2\n  pop\n  pop\n  jump\t// out\n    /* \"#utility.yul\":5184:6579   */\ntag_8:\n    /* \"#utility.yul\":5301:5338   */\n  tag_113\n    /* \"#utility.yul\":5334:5337   */\n  dup3\n    /* \"#utility.yul\":5301:5338   */\n  tag_25\n  jump\t// in\ntag_113:\n    /* \"#utility.yul\":5403:5421   */\n  0xffffffffffffffff\n    /* \"#utility.yul\":5395:5401   */\n  dup2\n    /* \"#utility.yul\":5392:5422   */\n  gt\n    /* \"#utility.yul\":5389:5445   */\n  iszero\n  tag_114\n  jumpi\n    /* \"#utility.yul\":5425:5443   */\n  tag_115\n  tag_26\n  jump\t// in\ntag_115:\n    /* \"#utility.yul\":5389:5445   */\ntag_114:\n    /* \"#utility.yul\":5469:5507   */\n  tag_116\n    /* \"#utility.yul\":5501:5505   */\n  dup3\n    /* \"#utility.yul\":5495:5506   */\n  sload\n    /* \"#utility.yul\":5469:5507   */\n  tag_28\n  jump\t// in\ntag_116:\n    /* \"#utility.yul\":5554:5621   */\n  tag_117\n    /* \"#utility.yul\":5614:5620   */\n  dup3\n    /* \"#utility.yul\":5606:5612   */\n  dup3\n    /* \"#utility.yul\":5600:5604   */\n  dup6\n    /* \"#utility.yul\":5554:5621   */\n  tag_41\n  jump\t// in\ntag_117:\n    /* \"#utility.yul\":5648:5649   */\n  0x00\n    /* \"#utility.yul\":5672:5676   */\n  0x20\n    /* \"#utility.yul\":5659:5676   */\n  swap1\n  pop\n    /* \"#utility.yul\":5704:5706   */\n  0x1f\n    /* \"#utility.yul\":5696:5702   */\n  dup4\n    /* \"#utility.yul\":5693:5707   */\n  gt\n    /* \"#utility.yul\":5721:5722   */\n  0x01\n    /* \"#utility.yul\":5716:6334   */\n  dup2\n  eq\n  tag_119\n  jumpi\n    /* \"#utility.yul\":6378:6379   */\n  0x00\n    /* \"#utility.yul\":6395:6401   */\n  dup5\n    /* \"#utility.yul\":6392:6469   */\n  iszero\n  tag_120\n  jumpi\n    /* \"#utility.yul\":6444:6453   */\n  dup3\n    /* \"#utility.yul\":6439:6442   */\n  dup8\n    /* \"#utility.yul\":6435:6454   */\n  add\n    /* \"#utility.yul\":6429:6455   */\n  mload\n    /* \"#utility.yul\":6420:6455   */\n  swap1\n  pop\n    /* \"#utility.yul\":6392:6469   */\ntag_120:\n    /* \"#utility.yul\":6495:6562   */\n  tag_121\n    /* \"#utility.yul\":6555:6561   */\n  dup6\n    /* \"#utility.yul\":6548:6553   */\n  dup3\n    /* \"#utility.yul\":6495:6562   */\n  tag_44\n  jump\t// in\ntag_121:\n    /* \"#utility.yul\":6489:6493   */\n  dup7\n    /* \"#utility.yul\":6482:6563   */\n  sstore\n    /* \"#utility.yul\":6351:6573   */\n  pop\n    /* \"#utility.yul\":5686:6573   */\n  jump(tag_118)\n    /* \"#utility.yul\":5716:6334   */\ntag_119:\n    /* \"#utility.yul\":5768:5772   */\n  0x1f\n    /* \"#utility.yul\":5764:5773   */\n  not\n    /* \"#utility.yul\":5756:5762   */\n  dup5\n    /* \"#utility.yul\":5752:5774   */\n  and\n    /* \"#utility.yul\":5802:5839   */\n  tag_122\n    /* \"#utility.yul\":5834:5838   */\n  dup7\n    /* \"#utility.yul\":5802:5839   */\n  tag_29\n  jump\t// in\ntag_122:\n    /* \"#utility.yul\":5861:5862   */\n  0x00\n    /* \"#utility.yul\":5875:6083   */\ntag_123:\n    /* \"#utility.yul\":5889:5896   */\n  dup3\n    /* \"#utility.yul\":5886:5887   */\n  dup2\n    /* \"#utility.yul\":5883:5897   */\n  lt\n    /* \"#utility.yul\":5875:6083   */\n  iszero\n  tag_125\n  jumpi\n    /* \"#utility.yul\":5968:5977   */\n  dup5\n    /* \"#utility.yul\":5963:5966   */\n  dup10\n    /* \"#utility.yul\":5959:5978   */\n  add\n    /* \"#utility.yul\":5953:5979   */\n  mload\n    /* \"#utility.yul\":5945:5951   */\n  dup3\n    /* \"#utility.yul\":5938:5980   */\n  sstore\n    /* \"#utility.yul\":6019:6020   */\n  0x01\n    /* \"#utility.yul\":6011:6017   */\n  dup3\n    /* \"#utility.yul\":6007:6021   */\n  add\n    /* \"#utility.yul\":5997:6021   */\n  swap2\n  pop\n    /* \"#utility.yul\":6066:6068   */\n  0x20\n    /* \"#utility.yul\":6055:6064   */\n  dup6\n    /* \"#utility.yul\":6051:6069   */\n  add\n    /* \"#utility.yul\":6038:6069   */\n  swap5\n  pop\n    /* \"#utility.yul\":5912:5916   */\n  0x20\n    /* \"#utility.yul\":5909:5910   */\n  dup2\n    /* \"#utility.yul\":5905:5917   */\n  add\n    /* \"#utility.yul\":5900:5917   */\n  swap1\n  pop\n    /* \"#utility.yul\":5875:6083   */\n  jump(tag_123)\ntag_125:\n    /* \"#utility.yul\":6111:6117   */\n  dup7\n    /* \"#utility.yul\":6102:6109   */\n  dup4\n    /* \"#utility.yul\":6099:6118   */\n  lt\n    /* \"#utility.yul\":6096:6275   */\n  iszero\n  tag_126\n  jumpi\n    /* \"#utility.yul\":6169:6178   */\n  dup5\n    /* \"#utility.yul\":6164:6167   */\n  dup10\n    /* \"#utility.yul\":6160:6179   */\n  add\n    /* \"#utility.yul\":6154:6180   */\n  mload\n    /* \"#utility.yul\":6212:6260   */\n  tag_127\n    /* \"#utility.yul\":6254:6258   */\n  0x1f\n    /* \"#utility.yul\":6246:6252   */\n  dup10\n    /* \"#utility.yul\":6242:6259   */\n  and\n    /* \"#utility.yul\":6231:6240   */\n  dup3\n    /* \"#utility.yul\":6212:6260   */\n  tag_43\n  jump\t// in\ntag_127:\n    /* \"#utility.yul\":6204:6210   */\n  dup4\n    /* \"#utility.yul\":6197:6261   */\n  sstore\n    /* \"#utility.yul\":6119:6275   */\n  pop\n    /* \"#utility.yul\":6096:6275   */\ntag_126:\n    /* \"#utility.yul\":6321:6322   */\n  0x01\n    /* \"#utility.yul\":6317:6318   */\n  0x02\n    /* \"#utility.yul\":6309:6315   */\n  dup9\n    /* \"#utility.yul\":6305:6319   */\n  mul\n    /* \"#utility.yul\":6301:6323   */\n  add\n    /* \"#utility.yul\":6295:6299   */\n  dup9\n    /* \"#utility.yul\":6288:6324   */\n  sstore\n    /* \"#utility.yul\":5723:6334   */\n  pop\n  pop\n  pop\n    /* \"#utility.yul\":5686:6573   */\ntag_118:\n  pop\n    /* \"#utility.yul\":5276:6579   */\n  pop\n  pop\n  pop\n    /* \"#utility.yul\":5184:6579   */\n  pop\n  pop\n  jump\t// out\n    /* \"#utility.yul\":6585:6754   */\ntag_45:\n    /* \"#utility.yul\":6669:6680   */\n  0x00\n    /* \"#utility.yul\":6703:6709   */\n  dup3\n    /* \"#utility.yul\":6698:6701   */\n  dup3\n    /* \"#utility.yul\":6691:6710   */\n  mstore\n    /* \"#utility.yul\":6743:6747   */\n  0x20\n    /* \"#utility.yul\":6738:6741   */\n  dup3\n    /* \"#utility.yul\":6734:6748   */\n  add\n    /* \"#utility.yul\":6719:6748   */\n  swap1\n  pop\n    /* \"#utility.yul\":6585:6754   */\n  swap3\n  swap2\n  pop\n  pop\n  jump\t// out\n    /* \"#utility.yul\":6760:6942   */\ntag_46:\n    /* \"#utility.yul\":6900:6934   */\n  0x496e76616c696420636f6c6c61746572616c20746f6b656e2061646472657373\n    /* \"#utility.yul\":6896:6897   */\n  0x00\n    /* \"#utility.yul\":6888:6894   */\n  dup3\n    /* \"#utility.yul\":6884:6898   */\n  add\n    /* \"#utility.yul\":6877:6935   */\n  mstore\n    /* \"#utility.yul\":6760:6942   */\n  pop\n  jump\t// out\n    /* \"#utility.yul\":6948:7314   */\ntag_47:\n    /* \"#utility.yul\":7090:7093   */\n  0x00\n    /* \"#utility.yul\":7111:7178   */\n  tag_131\n    /* \"#utility.yul\":7175:7177   */\n  0x20\n    /* \"#utility.yul\":7170:7173   */\n  dup4\n    /* \"#utility.yul\":7111:7178   */\n  tag_45\n  jump\t// in\ntag_131:\n    /* \"#utility.yul\":7104:7178   */\n  swap2\n  pop\n    /* \"#utility.yul\":7187:7280   */\n  tag_132\n    /* \"#utility.yul\":7276:7279   */\n  dup3\n    /* \"#utility.yul\":7187:7280   */\n  tag_46\n  jump\t// in\ntag_132:\n    /* \"#utility.yul\":7305:7307   */\n  0x20\n    /* \"#utility.yul\":7300:7303   */\n  dup3\n    /* \"#utility.yul\":7296:7308   */\n  add\n    /* \"#utility.yul\":7289:7308   */\n  swap1\n  pop\n    /* \"#utility.yul\":6948:7314   */\n  swap2\n  swap1\n  pop\n  jump\t// out\n    /* \"#utility.yul\":7320:7739   */\ntag_13:\n    /* \"#utility.yul\":7486:7490   */\n  0x00\n    /* \"#utility.yul\":7524:7526   */\n  0x20\n    /* \"#utility.yul\":7513:7522   */\n  dup3\n    /* \"#utility.yul\":7509:7527   */\n  add\n    /* \"#utility.yul\":7501:7527   */\n  swap1\n  pop\n    /* \"#utility.yul\":7573:7582   */\n  dup2\n    /* \"#utility.yul\":7567:7571   */\n  dup2\n    /* \"#utility.yul\":7563:7583   */\n  sub\n    /* \"#utility.yul\":7559:7560   */\n  0x00\n    /* \"#utility.yul\":7548:7557   */\n  dup4\n    /* \"#utility.yul\":7544:7561   */\n  add\n    /* \"#utility.yul\":7537:7584   */\n  mstore\n    /* \"#utility.yul\":7601:7732   */\n  tag_134\n    /* \"#utility.yul\":7727:7731   */\n  dup2\n    /* \"#utility.yul\":7601:7732   */\n  tag_47\n  jump\t// in\ntag_134:\n    /* \"#utility.yul\":7593:7732   */\n  swap1\n  pop\n    /* \"#utility.yul\":7320:7739   */\n  swap2\n  swap1\n  pop\n  jump\t// out\n    /* \"#utility.yul\":7745:7921   */\ntag_48:\n    /* \"#utility.yul\":7885:7913   */\n  0x496e76616c696420707269636520666565642061646472657373000000000000\n    /* \"#utility.yul\":7881:7882   */\n  0x00\n    /* \"#utility.yul\":7873:7879   */\n  dup3\n    /* \"#utility.yul\":7869:7883   */\n  add\n    /* \"#utility.yul\":7862:7914   */\n  mstore\n    /* \"#utility.yul\":7745:7921   */\n  pop\n  jump\t// out\n    /* \"#utility.yul\":7927:8293   */\ntag_49:\n    /* \"#utility.yul\":8069:8072   */\n  0x00\n    /* \"#utility.yul\":8090:8157   */\n  tag_137\n    /* \"#utility.yul\":8154:8156   */\n  0x1a\n    /* \"#utility.yul\":8149:8152   */\n  dup4\n    /* \"#utility.yul\":8090:8157   */\n  tag_45\n  jump\t// in\ntag_137:\n    /* \"#utility.yul\":8083:8157   */\n  swap2\n  pop\n    /* \"#utility.yul\":8166:8259   */\n  tag_138\n    /* \"#utility.yul\":8255:8258   */\n  dup3\n    /* \"#utility.yul\":8166:8259   */\n  tag_48\n  jump\t// in\ntag_138:\n    /* \"#utility.yul\":8284:8286   */\n  0x20\n    /* \"#utility.yul\":8279:8282   */\n  dup3\n    /* \"#utility.yul\":8275:8287   */\n  add\n    /* \"#utility.yul\":8268:8287   */\n  swap1\n  pop\n    /* \"#utility.yul\":7927:8293   */\n  swap2\n  swap1\n  pop\n  jump\t// out\n    /* \"#utility.yul\":8299:8718   */\ntag_16:\n    /* \"#utility.yul\":8465:8469   */\n  0x00\n    /* \"#utility.yul\":8503:8505   */\n  0x20\n    /* \"#utility.yul\":8492:8501   */\n  dup3\n    /* \"#utility.yul\":8488:8506   */\n  add\n    /* \"#utility.yul\":8480:8506   */\n  swap1\n  pop\n    /* \"#utility.yul\":8552:8561   */\n  dup2\n    /* \"#utility.yul\":8546:8550   */\n  dup2\n    /* \"#utility.yul\":8542:8562   */\n  sub\n    /* \"#utility.yul\":8538:8539   */\n  0x00\n    /* \"#utility.yul\":8527:8536   */\n  dup4\n    /* \"#utility.yul\":8523:8540   */\n  add\n    /* \"#utility.yul\":8516:8563   */\n  mstore\n    /* \"#utility.yul\":8580:8711   */\n  tag_140\n    /* \"#utility.yul\":8706:8710   */\n  dup2\n    /* \"#utility.yul\":8580:8711   */\n  tag_49\n  jump\t// in\ntag_140:\n    /* \"#utility.yul\":8572:8711   */\n  swap1\n  pop\n    /* \"#utility.yul\":8299:8718   */\n  swap2\n  swap1\n  pop\n  jump\t// out\n    /* \"CLPT/CLPTStablecoin.sol\":317:2212  contract CLPTStablecoin is ERC20 {... */\ntag_17:\n  dataSize(sub_0)\n  dup1\n  dataOffset(sub_0)\n  0x00\n  codecopy\n  0x00\n  return\nstop\n\nsub_0: assembly {\n        /* \"CLPT/CLPTStablecoin.sol\":317:2212  contract CLPTStablecoin is ERC20 {... */\n      mstore(0x40, 0x80)\n      callvalue\n      dup1\n      iszero\n      tag_1\n      jumpi\n      0x00\n      dup1\n      revert\n    tag_1:\n      pop\n      jumpi(tag_2, lt(calldatasize, 0x04))\n      shr(0xe0, calldataload(0x00))\n      dup1\n      0x741bef1a\n      gt\n      tag_22\n      jumpi\n      dup1\n      0xb2016bd4\n      gt\n      tag_23\n      jumpi\n      dup1\n      0xb2016bd4\n      eq\n      tag_17\n      jumpi\n      dup1\n      0xdd62ed3e\n      eq\n      tag_18\n      jumpi\n      dup1\n      0xf7683bbc\n      eq\n      tag_19\n      jumpi\n      dup1\n      0xf7be3819\n      eq\n      tag_20\n      jumpi\n      dup1\n      0xf851a440\n      eq\n      tag_21\n      jumpi\n      jump(tag_2)\n    tag_23:\n      dup1\n      0x741bef1a\n      eq\n      tag_12\n      jumpi\n      dup1\n      0x95d89b41\n      eq\n      tag_13\n      jumpi\n      dup1\n      0xa0712d68\n      eq\n      tag_14\n      jumpi\n      dup1\n      0xa457c2d7\n      eq\n      tag_15\n      jumpi\n      dup1\n      0xa9059cbb\n      eq\n      tag_16\n      jumpi\n      jump(tag_2)\n    tag_22:\n      dup1\n      0x23b872dd\n      gt\n      tag_24\n      jumpi\n      dup1\n      0x23b872dd\n      eq\n      tag_7\n      jumpi\n      dup1\n      0x313ce567\n      eq\n      tag_8\n      jumpi\n      dup1\n      0x39509351\n      eq\n      tag_9\n      jumpi\n      dup1\n      0x42966c68\n      eq\n      tag_10\n      jumpi\n      dup1\n      0x70a08231\n      eq\n      tag_11\n      jumpi\n      jump(tag_2)\n    tag_24:\n      dup1\n      0x06fdde03\n      eq\n      tag_3\n      jumpi\n      dup1\n      0x095ea7b3\n      eq\n      tag_4\n      jumpi\n      dup1\n      0x175c91df\n      eq\n      tag_5\n      jumpi\n      dup1\n      0x18160ddd\n      eq\n      tag_6\n      jumpi\n    tag_2:\n      0x00\n      dup1\n      revert\n        /* \"@openzeppelin/contracts/token/ERC20/ERC20.sol\":2158:2256  function name() public view virtual override returns (string memory) {... */\n    tag_3:\n      tag_25\n      tag_26\n      jump\t// in\n    tag_25:\n      mload(0x40)\n      tag_27\n      swap2\n      swap1\n      tag_28\n      jump\t// in\n    tag_27:\n      mload(0x40)\n      dup1\n      swap2\n      sub\n      swap1\n      return\n        /* \"@openzeppelin/contracts/token/ERC20/ERC20.sol\":4444:4641  function approve(address spender, uint256 amount) public virtual override returns (bool) {... */\n    tag_4:\n      tag_29\n      0x04\n      dup1\n      calldatasize\n      sub\n      dup2\n      add\n      swap1\n      tag_30\n      swap2\n      swap1\n      tag_31\n      jump\t// in\n    tag_30:\n      tag_32\n      jump\t// in\n    tag_29:\n      mload(0x40)\n      tag_33\n      swap2\n      swap1\n      tag_34\n      jump\t// in\n    tag_33:\n      mload(0x40)\n      dup1\n      swap2\n      sub\n      swap1\n      return\n        /* \"CLPT/CLPTStablecoin.sol\":502:547  uint public constant COLLATERAL_DECIMAL = 1e6 */\n    tag_5:\n      tag_35\n      tag_36\n      jump\t// in\n    tag_35:\n      mload(0x40)\n      tag_37\n      swap2\n      swap1\n      tag_38\n      jump\t// in\n    tag_37:\n      mload(0x40)\n      dup1\n      swap2\n      sub\n      swap1\n      return\n        /* \"@openzeppelin/contracts/token/ERC20/ERC20.sol\":3255:3361  function totalSupply() public view virtual override returns (uint256) {... */\n    tag_6:\n      tag_39\n      tag_40\n      jump\t// in\n    tag_39:\n      mload(0x40)\n      tag_41\n      swap2\n      swap1\n      tag_38\n      jump\t// in\n    tag_41:\n      mload(0x40)\n      dup1\n      swap2\n      sub\n      swap1\n      return\n        /* \"@openzeppelin/contracts/token/ERC20/ERC20.sol\":5203:5459  function transferFrom(address from, address to, uint256 amount) public virtual override returns (bool) {... */\n    tag_7:\n      tag_42\n      0x04\n      dup1\n      calldatasize\n      sub\n      dup2\n      add\n      swap1\n      tag_43\n      swap2\n      swap1\n      tag_44\n      jump\t// in\n    tag_43:\n      tag_45\n      jump\t// in\n    tag_42:\n      mload(0x40)\n      tag_46\n      swap2\n      swap1\n      tag_34\n      jump\t// in\n    tag_46:\n      mload(0x40)\n      dup1\n      swap2\n      sub\n      swap1\n      return\n        /* \"@openzeppelin/contracts/token/ERC20/ERC20.sol\":3104:3195  function decimals() public view virtual override returns (uint8) {... */\n    tag_8:\n      tag_47\n      tag_48\n      jump\t// in\n    tag_47:\n      mload(0x40)\n      tag_49\n      swap2\n      swap1\n      tag_50\n      jump\t// in\n    tag_49:\n      mload(0x40)\n      dup1\n      swap2\n      sub\n      swap1\n      return\n        /* \"@openzeppelin/contracts/token/ERC20/ERC20.sol\":5854:6088  function increaseAllowance(address spender, uint256 addedValue) public virtual returns (bool) {... */\n    tag_9:\n      tag_51\n      0x04\n      dup1\n      calldatasize\n      sub\n      dup2\n      add\n      swap1\n      tag_52\n      swap2\n      swap1\n      tag_31\n      jump\t// in\n    tag_52:\n      tag_53\n      jump\t// in\n    tag_51:\n      mload(0x40)\n      tag_54\n      swap2\n      swap1\n      tag_34\n      jump\t// in\n    tag_54:\n      mload(0x40)\n      dup1\n      swap2\n      sub\n      swap1\n      return\n        /* \"CLPT/CLPTStablecoin.sol\":1891:2209  function burn(uint _stablecoinAmount) external {... */\n    tag_10:\n      tag_55\n      0x04\n      dup1\n      calldatasize\n      sub\n      dup2\n      add\n      swap1\n      tag_56\n      swap2\n      swap1\n      tag_57\n      jump\t// in\n    tag_56:\n      tag_58\n      jump\t// in\n    tag_55:\n      stop\n        /* \"@openzeppelin/contracts/token/ERC20/ERC20.sol\":3419:3544  function balanceOf(address account) public view virtual override returns (uint256) {... */\n    tag_11:\n      tag_59\n      0x04\n      dup1\n      calldatasize\n      sub\n      dup2\n      add\n      swap1\n      tag_60\n      swap2\n      swap1\n      tag_61\n      jump\t// in\n    tag_60:\n      tag_62\n      jump\t// in\n    tag_59:\n      mload(0x40)\n      tag_63\n      swap2\n      swap1\n      tag_38\n      jump\t// in\n    tag_63:\n      mload(0x40)\n      dup1\n      swap2\n      sub\n      swap1\n      return\n        /* \"CLPT/CLPTStablecoin.sol\":455:493  AggregatorV3Interface public priceFeed */\n    tag_12:\n      tag_64\n      tag_65\n      jump\t// in\n    tag_64:\n      mload(0x40)\n      tag_66\n      swap2\n      swap1\n      tag_67\n      jump\t// in\n    tag_66:\n      mload(0x40)\n      dup1\n      swap2\n      sub\n      swap1\n      return\n        /* \"@openzeppelin/contracts/token/ERC20/ERC20.sol\":2369:2471  function symbol() public view virtual override returns (string memory) {... */\n    tag_13:\n      tag_68\n      tag_69\n      jump\t// in\n    tag_68:\n      mload(0x40)\n      tag_70\n      swap2\n      swap1\n      tag_28\n      jump\t// in\n    tag_70:\n      mload(0x40)\n      dup1\n      swap2\n      sub\n      swap1\n      return\n        /* \"CLPT/CLPTStablecoin.sol\":1494:1883  function mint(uint _stablecoinAmount) external {... */\n    tag_14:\n      tag_71\n      0x04\n      dup1\n      calldatasize\n      sub\n      dup2\n      add\n      swap1\n      tag_72\n      swap2\n      swap1\n      tag_57\n      jump\t// in\n    tag_72:\n      tag_73\n      jump\t// in\n    tag_71:\n      stop\n        /* \"@openzeppelin/contracts/token/ERC20/ERC20.sol\":6575:7002  function decreaseAllowance(address spender, uint256 subtractedValue) public virtual returns (bool) {... */\n    tag_15:\n      tag_74\n      0x04\n      dup1\n      calldatasize\n      sub\n      dup2\n      add\n      swap1\n      tag_75\n      swap2\n      swap1\n      tag_31\n      jump\t// in\n    tag_75:\n      tag_76\n      jump\t// in\n    tag_74:\n      mload(0x40)\n      tag_77\n      swap2\n      swap1\n      tag_34\n      jump\t// in\n    tag_77:\n      mload(0x40)\n      dup1\n      swap2\n      sub\n      swap1\n      return\n        /* \"@openzeppelin/contracts/token/ERC20/ERC20.sol\":3740:3929  function transfer(address to, uint256 amount) public virtual override returns (bool) {... */\n    tag_16:\n      tag_78\n      0x04\n      dup1\n      calldatasize\n      sub\n      dup2\n      add\n      swap1\n      tag_79\n      swap2\n      swap1\n      tag_31\n      jump\t// in\n    tag_79:\n      tag_80\n      jump\t// in\n    tag_78:\n      mload(0x40)\n      tag_81\n      swap2\n      swap1\n      tag_34\n      jump\t// in\n    tag_81:\n      mload(0x40)\n      dup1\n      swap2\n      sub\n      swap1\n      return\n        /* \"CLPT/CLPTStablecoin.sol\":419:448  IERC20 public collateralToken */\n    tag_17:\n      tag_82\n      tag_83\n      jump\t// in\n    tag_82:\n      mload(0x40)\n      tag_84\n      swap2\n      swap1\n      tag_85\n      jump\t// in\n    tag_84:\n      mload(0x40)\n      dup1\n      swap2\n      sub\n      swap1\n      return\n        /* \"@openzeppelin/contracts/token/ERC20/ERC20.sol\":3987:4136  function allowance(address owner, address spender) public view virtual override returns (uint256) {... */\n    tag_18:\n      tag_86\n      0x04\n      dup1\n      calldatasize\n      sub\n      dup2\n      add\n      swap1\n      tag_87\n      swap2\n      swap1\n      tag_88\n      jump\t// in\n    tag_87:\n      tag_89\n      jump\t// in\n    tag_86:\n      mload(0x40)\n      tag_90\n      swap2\n      swap1\n      tag_38\n      jump\t// in\n    tag_90:\n      mload(0x40)\n      dup1\n      swap2\n      sub\n      swap1\n      return\n        /* \"CLPT/CLPTStablecoin.sol\":1029:1234  function getCollateralPrice() public view returns (uint) {... */\n    tag_19:\n      tag_91\n      tag_92\n      jump\t// in\n    tag_91:\n      mload(0x40)\n      tag_93\n      swap2\n      swap1\n      tag_38\n      jump\t// in\n    tag_93:\n      mload(0x40)\n      dup1\n      swap2\n      sub\n      swap1\n      return\n        /* \"CLPT/CLPTStablecoin.sol\":1242:1486  function calculateCollateralAmount(... */\n    tag_20:\n      tag_94\n      0x04\n      dup1\n      calldatasize\n      sub\n      dup2\n      add\n      swap1\n      tag_95\n      swap2\n      swap1\n      tag_57\n      jump\t// in\n    tag_95:\n      tag_96\n      jump\t// in\n    tag_94:\n      mload(0x40)\n      tag_97\n      swap2\n      swap1\n      tag_38\n      jump\t// in\n    tag_97:\n      mload(0x40)\n      dup1\n      swap2\n      sub\n      swap1\n      return\n        /* \"CLPT/CLPTStablecoin.sol\":392:412  address public admin */\n    tag_21:\n      tag_98\n      tag_99\n      jump\t// in\n    tag_98:\n      mload(0x40)\n      tag_100\n      swap2\n      swap1\n      tag_101\n      jump\t// in\n    tag_100:\n      mload(0x40)\n      dup1\n      swap2\n      sub\n      swap1\n      return\n        /* \"@openzeppelin/contracts/token/ERC20/ERC20.sol\":2158:2256  function name() public view virtual override returns (string memory) {... */\n    tag_26:\n        /* \"@openzeppelin/contracts/token/ERC20/ERC20.sol\":2212:2225  string memory */\n      0x60\n        /* \"@openzeppelin/contracts/token/ERC20/ERC20.sol\":2244:2249  _name */\n      0x03\n        /* \"@openzeppelin/contracts/token/ERC20/ERC20.sol\":2237:2249  return _name */\n      dup1\n      sload\n      tag_103\n      swap1\n      tag_104\n      jump\t// in\n    tag_103:\n      dup1\n      0x1f\n      add\n      0x20\n      dup1\n      swap2\n      div\n      mul\n      0x20\n      add\n      mload(0x40)\n      swap1\n      dup2\n      add\n      0x40\n      mstore\n      dup1\n      swap3\n      swap2\n      swap1\n      dup2\n      dup2\n      mstore\n      0x20\n      add\n      dup3\n      dup1\n      sload\n      tag_105\n      swap1\n      tag_104\n      jump\t// in\n    tag_105:\n      dup1\n      iszero\n      tag_106\n      jumpi\n      dup1\n      0x1f\n      lt\n      tag_107\n      jumpi\n      0x0100\n      dup1\n      dup4\n      sload\n      div\n      mul\n      dup4\n      mstore\n      swap2\n      0x20\n      add\n      swap2\n      jump(tag_106)\n    tag_107:\n      dup3\n      add\n      swap2\n      swap1\n      0x00\n      mstore\n      keccak256(0x00, 0x20)\n      swap1\n    tag_108:\n      dup2\n      sload\n      dup2\n      mstore\n      swap1\n      0x01\n      add\n      swap1\n      0x20\n      add\n      dup1\n      dup4\n      gt\n      tag_108\n      jumpi\n      dup3\n      swap1\n      sub\n      0x1f\n      and\n      dup3\n      add\n      swap2\n    tag_106:\n      pop\n      pop\n      pop\n      pop\n      pop\n      swap1\n      pop\n        /* \"@openzeppelin/contracts/token/ERC20/ERC20.sol\":2158:2256  function name() public view virtual override returns (string memory) {... */\n      swap1\n      jump\t// out\n        /* \"@openzeppelin/contracts/token/ERC20/ERC20.sol\":4444:4641  function approve(address spender, uint256 amount) public virtual override returns (bool) {... */\n    tag_32:\n        /* \"@openzeppelin/contracts/token/ERC20/ERC20.sol\":4527:4531  bool */\n      0x00\n        /* \"@openzeppelin/contracts/token/ERC20/ERC20.sol\":4543:4556  address owner */\n      dup1\n        /* \"@openzeppelin/contracts/token/ERC20/ERC20.sol\":4559:4571  _msgSender() */\n      tag_110\n        /* \"@openzeppelin/contracts/token/ERC20/ERC20.sol\":4559:4569  _msgSender */\n      tag_111\n        /* \"@openzeppelin/contracts/token/ERC20/ERC20.sol\":4559:4571  _msgSender() */\n      jump\t// in\n    tag_110:\n        /* \"@openzeppelin/contracts/token/ERC20/ERC20.sol\":4543:4571  address owner = _msgSender() */\n      swap1\n      pop\n        /* \"@openzeppelin/contracts/token/ERC20/ERC20.sol\":4581:4613  _approve(owner, spender, amount) */\n      tag_112\n        /* \"@openzeppelin/contracts/token/ERC20/ERC20.sol\":4590:4595  owner */\n      dup2\n        /* \"@openzeppelin/contracts/token/ERC20/ERC20.sol\":4597:4604  spender */\n      dup6\n        /* \"@openzeppelin/contracts/token/ERC20/ERC20.sol\":4606:4612  amount */\n      dup6\n        /* \"@openzeppelin/contracts/token/ERC20/ERC20.sol\":4581:4589  _approve */\n      tag_113\n        /* \"@openzeppelin/contracts/token/ERC20/ERC20.sol\":4581:4613  _approve(owner, spender, amount) */\n      jump\t// in\n    tag_112:\n        /* \"@openzeppelin/contracts/token/ERC20/ERC20.sol\":4630:4634  true */\n      0x01\n        /* \"@openzeppelin/contracts/token/ERC20/ERC20.sol\":4623:4634  return true */\n      swap2\n      pop\n      pop\n        /* \"@openzeppelin/contracts/token/ERC20/ERC20.sol\":4444:4641  function approve(address spender, uint256 amount) public virtual override returns (bool) {... */\n      swap3\n      swap2\n      pop\n      pop\n      jump\t// out\n        /* \"CLPT/CLPTStablecoin.sol\":502:547  uint public constant COLLATERAL_DECIMAL = 1e6 */\n    tag_36:\n        /* \"CLPT/CLPTStablecoin.sol\":544:547  1e6 */\n      0x0f4240\n        /* \"CLPT/CLPTStablecoin.sol\":502:547  uint public constant COLLATERAL_DECIMAL = 1e6 */\n      dup2\n      jump\t// out\n        /* \"@openzeppelin/contracts/token/ERC20/ERC20.sol\":3255:3361  function totalSupply() public view virtual override returns (uint256) {... */\n    tag_40:\n        /* \"@openzeppelin/contracts/token/ERC20/ERC20.sol\":3316:3323  uint256 */\n      0x00\n        /* \"@openzeppelin/contracts/token/ERC20/ERC20.sol\":3342:3354  _totalSupply */\n      sload(0x02)\n        /* \"@openzeppelin/contracts/token/ERC20/ERC20.sol\":3335:3354  return _totalSupply */\n      swap1\n      pop\n        /* \"@openzeppelin/contracts/token/ERC20/ERC20.sol\":3255:3361  function totalSupply() public view virtual override returns (uint256) {... */\n      swap1\n      jump\t// out\n        /* \"@openzeppelin/contracts/token/ERC20/ERC20.sol\":5203:5459  function transferFrom(address from, address to, uint256 amount) public virtual override returns (bool) {... */\n    tag_45:\n        /* \"@openzeppelin/contracts/token/ERC20/ERC20.sol\":5300:5304  bool */\n      0x00\n        /* \"@openzeppelin/contracts/token/ERC20/ERC20.sol\":5316:5331  address spender */\n      dup1\n        /* \"@openzeppelin/contracts/token/ERC20/ERC20.sol\":5334:5346  _msgSender() */\n      tag_116\n        /* \"@openzeppelin/contracts/token/ERC20/ERC20.sol\":5334:5344  _msgSender */\n      tag_111\n        /* \"@openzeppelin/contracts/token/ERC20/ERC20.sol\":5334:5346  _msgSender() */\n      jump\t// in\n    tag_116:\n        /* \"@openzeppelin/contracts/token/ERC20/ERC20.sol\":5316:5346  address spender = _msgSender() */\n      swap1\n      pop\n        /* \"@openzeppelin/contracts/token/ERC20/ERC20.sol\":5356:5394  _spendAllowance(from, spender, amount) */\n      tag_117\n        /* \"@openzeppelin/contracts/token/ERC20/ERC20.sol\":5372:5376  from */\n      dup6\n        /* \"@openzeppelin/contracts/token/ERC20/ERC20.sol\":5378:5385  spender */\n      dup3\n        /* \"@openzeppelin/contracts/token/ERC20/ERC20.sol\":5387:5393  amount */\n      dup6\n        /* \"@openzeppelin/contracts/token/ERC20/ERC20.sol\":5356:5371  _spendAllowance */\n      tag_118\n        /* \"@openzeppelin/contracts/token/ERC20/ERC20.sol\":5356:5394  _spendAllowance(from, spender, amount) */\n      jump\t// in\n    tag_117:\n        /* \"@openzeppelin/contracts/token/ERC20/ERC20.sol\":5404:5431  _transfer(from, to, amount) */\n      tag_119\n        /* \"@openzeppelin/contracts/token/ERC20/ERC20.sol\":5414:5418  from */\n      dup6\n        /* \"@openzeppelin/contracts/token/ERC20/ERC20.sol\":5420:5422  to */\n      dup6\n        /* \"@openzeppelin/contracts/token/ERC20/ERC20.sol\":5424:5430  amount */\n      dup6\n        /* \"@openzeppelin/contracts/token/ERC20/ERC20.sol\":5404:5413  _transfer */\n      tag_120\n        /* \"@openzeppelin/contracts/token/ERC20/ERC20.sol\":5404:5431  _transfer(from, to, amount) */\n      jump\t// in\n    tag_119:\n        /* \"@openzeppelin/contracts/token/ERC20/ERC20.sol\":5448:5452  true */\n      0x01\n        /* \"@openzeppelin/contracts/token/ERC20/ERC20.sol\":5441:5452  return true */\n      swap2\n      pop\n      pop\n        /* \"@openzeppelin/contracts/token/ERC20/ERC20.sol\":5203:5459  function transferFrom(address from, address to, uint256 amount) public virtual override returns (bool) {... */\n      swap4\n      swap3\n      pop\n      pop\n      pop\n      jump\t// out\n        /* \"@openzeppelin/contracts/token/ERC20/ERC20.sol\":3104:3195  function decimals() public view virtual override returns (uint8) {... */\n    tag_48:\n        /* \"@openzeppelin/contracts/token/ERC20/ERC20.sol\":3162:3167  uint8 */\n      0x00\n        /* \"@openzeppelin/contracts/token/ERC20/ERC20.sol\":3186:3188  18 */\n      0x12\n        /* \"@openzeppelin/contracts/token/ERC20/ERC20.sol\":3179:3188  return 18 */\n      swap1\n      pop\n        /* \"@openzeppelin/contracts/token/ERC20/ERC20.sol\":3104:3195  function decimals() public view virtual override returns (uint8) {... */\n      swap1\n      jump\t// out\n        /* \"@openzeppelin/contracts/token/ERC20/ERC20.sol\":5854:6088  function increaseAllowance(address spender, uint256 addedValue) public virtual returns (bool) {... */\n    tag_53:\n        /* \"@openzeppelin/contracts/token/ERC20/ERC20.sol\":5942:5946  bool */\n      0x00\n        /* \"@openzeppelin/contracts/token/ERC20/ERC20.sol\":5958:5971  address owner */\n      dup1\n        /* \"@openzeppelin/contracts/token/ERC20/ERC20.sol\":5974:5986  _msgSender() */\n      tag_123\n        /* \"@openzeppelin/contracts/token/ERC20/ERC20.sol\":5974:5984  _msgSender */\n      tag_111\n        /* \"@openzeppelin/contracts/token/ERC20/ERC20.sol\":5974:5986  _msgSender() */\n      jump\t// in\n    tag_123:\n        /* \"@openzeppelin/contracts/token/ERC20/ERC20.sol\":5958:5986  address owner = _msgSender() */\n      swap1\n      pop\n        /* \"@openzeppelin/contracts/token/ERC20/ERC20.sol\":5996:6060  _approve(owner, spender, allowance(owner, spender) + addedValue) */\n      tag_124\n        /* \"@openzeppelin/contracts/token/ERC20/ERC20.sol\":6005:6010  owner */\n      dup2\n        /* \"@openzeppelin/contracts/token/ERC20/ERC20.sol\":6012:6019  spender */\n      dup6\n        /* \"@openzeppelin/contracts/token/ERC20/ERC20.sol\":6049:6059  addedValue */\n      dup6\n        /* \"@openzeppelin/contracts/token/ERC20/ERC20.sol\":6021:6046  allowance(owner, spender) */\n      tag_125\n        /* \"@openzeppelin/contracts/token/ERC20/ERC20.sol\":6031:6036  owner */\n      dup6\n        /* \"@openzeppelin/contracts/token/ERC20/ERC20.sol\":6038:6045  spender */\n      dup10\n        /* \"@openzeppelin/contracts/token/ERC20/ERC20.sol\":6021:6030  allowance */\n      tag_89\n        /* \"@openzeppelin/contracts/token/ERC20/ERC20.sol\":6021:6046  allowance(owner, spender) */\n      jump\t// in\n    tag_125:\n        /* \"@openzeppelin/contracts/token/ERC20/ERC20.sol\":6021:6059  allowance(owner, spender) + addedValue */\n      tag_126\n      swap2\n      swap1\n      tag_127\n      jump\t// in\n    tag_126:\n        /* \"@openzeppelin/contracts/token/ERC20/ERC20.sol\":5996:6004  _approve */\n      tag_113\n        /* \"@openzeppelin/contracts/token/ERC20/ERC20.sol\":5996:6060  _approve(owner, spender, allowance(owner, spender) + addedValue) */\n      jump\t// in\n    tag_124:\n        /* \"@openzeppelin/contracts/token/ERC20/ERC20.sol\":6077:6081  true */\n      0x01\n        /* \"@openzeppelin/contracts/token/ERC20/ERC20.sol\":6070:6081  return true */\n      swap2\n      pop\n      pop\n        /* \"@openzeppelin/contracts/token/ERC20/ERC20.sol\":5854:6088  function increaseAllowance(address spender, uint256 addedValue) public virtual returns (bool) {... */\n      swap3\n      swap2\n      pop\n      pop\n      jump\t// out\n        /* \"CLPT/CLPTStablecoin.sol\":1891:2209  function burn(uint _stablecoinAmount) external {... */\n    tag_58:\n        /* \"CLPT/CLPTStablecoin.sol\":1977:1978  0 */\n      0x00\n        /* \"CLPT/CLPTStablecoin.sol\":1957:1974  _stablecoinAmount */\n      dup2\n        /* \"CLPT/CLPTStablecoin.sol\":1957:1978  _stablecoinAmount > 0 */\n      gt\n        /* \"CLPT/CLPTStablecoin.sol\":1949:2008  require(_stablecoinAmount > 0, \"Invalid stablecoin amount\") */\n      tag_129\n      jumpi\n      mload(0x40)\n      0x08c379a000000000000000000000000000000000000000000000000000000000\n      dup2\n      mstore\n      0x04\n      add\n      tag_130\n      swap1\n      tag_131\n      jump\t// in\n    tag_130:\n      mload(0x40)\n      dup1\n      swap2\n      sub\n      swap1\n      revert\n    tag_129:\n        /* \"CLPT/CLPTStablecoin.sol\":2021:2042  uint collateralAmount */\n      0x00\n        /* \"CLPT/CLPTStablecoin.sol\":2045:2089  calculateCollateralAmount(_stablecoinAmount) */\n      tag_132\n        /* \"CLPT/CLPTStablecoin.sol\":2071:2088  _stablecoinAmount */\n      dup3\n        /* \"CLPT/CLPTStablecoin.sol\":2045:2070  calculateCollateralAmount */\n      tag_96\n        /* \"CLPT/CLPTStablecoin.sol\":2045:2089  calculateCollateralAmount(_stablecoinAmount) */\n      jump\t// in\n    tag_132:\n        /* \"CLPT/CLPTStablecoin.sol\":2021:2089  uint collateralAmount = calculateCollateralAmount(_stablecoinAmount) */\n      swap1\n      pop\n        /* \"CLPT/CLPTStablecoin.sol\":2100:2136  _burn(msg.sender, _stablecoinAmount) */\n      tag_133\n        /* \"CLPT/CLPTStablecoin.sol\":2106:2116  msg.sender */\n      caller\n        /* \"CLPT/CLPTStablecoin.sol\":2118:2135  _stablecoinAmount */\n      dup4\n        /* \"CLPT/CLPTStablecoin.sol\":2100:2105  _burn */\n      tag_134\n        /* \"CLPT/CLPTStablecoin.sol\":2100:2136  _burn(msg.sender, _stablecoinAmount) */\n      jump\t// in\n    tag_133:\n        /* \"CLPT/CLPTStablecoin.sol\":2147:2162  collateralToken */\n      0x06\n      0x00\n      swap1\n      sload\n      swap1\n      0x0100\n      exp\n      swap1\n      div\n      0xffffffffffffffffffffffffffffffffffffffff\n      and\n        /* \"CLPT/CLPTStablecoin.sol\":2147:2171  collateralToken.transfer */\n      0xffffffffffffffffffffffffffffffffffffffff\n      and\n      0xa9059cbb\n        /* \"CLPT/CLPTStablecoin.sol\":2172:2182  msg.sender */\n      caller\n        /* \"CLPT/CLPTStablecoin.sol\":2184:2200  collateralAmount */\n      dup4\n        /* \"CLPT/CLPTStablecoin.sol\":2147:2201  collateralToken.transfer(msg.sender, collateralAmount) */\n      mload(0x40)\n      dup4\n      0xffffffff\n      and\n      0xe0\n      shl\n      dup2\n      mstore\n      0x04\n      add\n      tag_135\n      swap3\n      swap2\n      swap1\n      tag_136\n      jump\t// in\n    tag_135:\n      0x20\n      mload(0x40)\n      dup1\n      dup4\n      sub\n      dup2\n      0x00\n      dup8\n      gas\n      call\n      iszero\n      dup1\n      iszero\n      tag_138\n      jumpi\n      returndatasize\n      0x00\n      dup1\n      returndatacopy\n      revert(0x00, returndatasize)\n    tag_138:\n      pop\n      pop\n      pop\n      pop\n      mload(0x40)\n      returndatasize\n      not(0x1f)\n      0x1f\n      dup3\n      add\n      and\n      dup3\n      add\n      dup1\n      0x40\n      mstore\n      pop\n      dup2\n      add\n      swap1\n      tag_139\n      swap2\n      swap1\n      tag_140\n      jump\t// in\n    tag_139:\n      pop\n        /* \"CLPT/CLPTStablecoin.sol\":1938:2209  {... */\n      pop\n        /* \"CLPT/CLPTStablecoin.sol\":1891:2209  function burn(uint _stablecoinAmount) external {... */\n      pop\n      jump\t// out\n        /* \"@openzeppelin/contracts/token/ERC20/ERC20.sol\":3419:3544  function balanceOf(address account) public view virtual override returns (uint256) {... */\n    tag_62:\n        /* \"@openzeppelin/contracts/token/ERC20/ERC20.sol\":3493:3500  uint256 */\n      0x00\n        /* \"@openzeppelin/contracts/token/ERC20/ERC20.sol\":3519:3528  _balances */\n      dup1\n        /* \"@openzeppelin/contracts/token/ERC20/ERC20.sol\":3519:3537  _balances[account] */\n      0x00\n        /* \"@openzeppelin/contracts/token/ERC20/ERC20.sol\":3529:3536  account */\n      dup4\n        /* \"@openzeppelin/contracts/token/ERC20/ERC20.sol\":3519:3537  _balances[account] */\n      0xffffffffffffffffffffffffffffffffffffffff\n      and\n      0xffffffffffffffffffffffffffffffffffffffff\n      and\n      dup2\n      mstore\n      0x20\n      add\n      swap1\n      dup2\n      mstore\n      0x20\n      add\n      0x00\n      keccak256\n      sload\n        /* \"@openzeppelin/contracts/token/ERC20/ERC20.sol\":3512:3537  return _balances[account] */\n      swap1\n      pop\n        /* \"@openzeppelin/contracts/token/ERC20/ERC20.sol\":3419:3544  function balanceOf(address account) public view virtual override returns (uint256) {... */\n      swap2\n      swap1\n      pop\n      jump\t// out\n        /* \"CLPT/CLPTStablecoin.sol\":455:493  AggregatorV3Interface public priceFeed */\n    tag_65:\n      0x07\n      0x00\n      swap1\n      sload\n      swap1\n      0x0100\n      exp\n      swap1\n      div\n      0xffffffffffffffffffffffffffffffffffffffff\n      and\n      dup2\n      jump\t// out\n        /* \"@openzeppelin/contracts/token/ERC20/ERC20.sol\":2369:2471  function symbol() public view virtual override returns (string memory) {... */\n    tag_69:\n        /* \"@openzeppelin/contracts/token/ERC20/ERC20.sol\":2425:2438  string memory */\n      0x60\n        /* \"@openzeppelin/contracts/token/ERC20/ERC20.sol\":2457:2464  _symbol */\n      0x04\n        /* \"@openzeppelin/contracts/token/ERC20/ERC20.sol\":2450:2464  return _symbol */\n      dup1\n      sload\n      tag_143\n      swap1\n      tag_104\n      jump\t// in\n    tag_143:\n      dup1\n      0x1f\n      add\n      0x20\n      dup1\n      swap2\n      div\n      mul\n      0x20\n      add\n      mload(0x40)\n      swap1\n      dup2\n      add\n      0x40\n      mstore\n      dup1\n      swap3\n      swap2\n      swap1\n      dup2\n      dup2\n      mstore\n      0x20\n      add\n      dup3\n      dup1\n      sload\n      tag_144\n      swap1\n      tag_104\n      jump\t// in\n    tag_144:\n      dup1\n      iszero\n      tag_145\n      jumpi\n      dup1\n      0x1f\n      lt\n      tag_146\n      jumpi\n      0x0100\n      dup1\n      dup4\n      sload\n      div\n      mul\n      dup4\n      mstore\n      swap2\n      0x20\n      add\n      swap2\n      jump(tag_145)\n    tag_146:\n      dup3\n      add\n      swap2\n      swap1\n      0x00\n      mstore\n      keccak256(0x00, 0x20)\n      swap1\n    tag_147:\n      dup2\n      sload\n      dup2\n      mstore\n      swap1\n      0x01\n      add\n      swap1\n      0x20\n      add\n      dup1\n      dup4\n      gt\n      tag_147\n      jumpi\n      dup3\n      swap1\n      sub\n      0x1f\n      and\n      dup3\n      add\n      swap2\n    tag_145:\n      pop\n      pop\n      pop\n      pop\n      pop\n      swap1\n      pop\n        /* \"@openzeppelin/contracts/token/ERC20/ERC20.sol\":2369:2471  function symbol() public view virtual override returns (string memory) {... */\n      swap1\n      jump\t// out\n        /* \"CLPT/CLPTStablecoin.sol\":1494:1883  function mint(uint _stablecoinAmount) external {... */\n    tag_73:\n        /* \"CLPT/CLPTStablecoin.sol\":1580:1581  0 */\n      0x00\n        /* \"CLPT/CLPTStablecoin.sol\":1560:1577  _stablecoinAmount */\n      dup2\n        /* \"CLPT/CLPTStablecoin.sol\":1560:1581  _stablecoinAmount > 0 */\n      gt\n        /* \"CLPT/CLPTStablecoin.sol\":1552:1611  require(_stablecoinAmount > 0, \"Invalid stablecoin amount\") */\n      tag_149\n      jumpi\n      mload(0x40)\n      0x08c379a000000000000000000000000000000000000000000000000000000000\n      dup2\n      mstore\n      0x04\n      add\n      tag_150\n      swap1\n      tag_131\n      jump\t// in\n    tag_150:\n      mload(0x40)\n      dup1\n      swap2\n      sub\n      swap1\n      revert\n    tag_149:\n        /* \"CLPT/CLPTStablecoin.sol\":1624:1645  uint collateralAmount */\n      0x00\n        /* \"CLPT/CLPTStablecoin.sol\":1648:1692  calculateCollateralAmount(_stablecoinAmount) */\n      tag_151\n        /* \"CLPT/CLPTStablecoin.sol\":1674:1691  _stablecoinAmount */\n      dup3\n        /* \"CLPT/CLPTStablecoin.sol\":1648:1673  calculateCollateralAmount */\n      tag_96\n        /* \"CLPT/CLPTStablecoin.sol\":1648:1692  calculateCollateralAmount(_stablecoinAmount) */\n      jump\t// in\n    tag_151:\n        /* \"CLPT/CLPTStablecoin.sol\":1624:1692  uint collateralAmount = calculateCollateralAmount(_stablecoinAmount) */\n      swap1\n      pop\n        /* \"CLPT/CLPTStablecoin.sol\":1703:1718  collateralToken */\n      0x06\n      0x00\n      swap1\n      sload\n      swap1\n      0x0100\n      exp\n      swap1\n      div\n      0xffffffffffffffffffffffffffffffffffffffff\n      and\n        /* \"CLPT/CLPTStablecoin.sol\":1703:1731  collateralToken.transferFrom */\n      0xffffffffffffffffffffffffffffffffffffffff\n      and\n      0x23b872dd\n        /* \"CLPT/CLPTStablecoin.sol\":1746:1756  msg.sender */\n      caller\n        /* \"CLPT/CLPTStablecoin.sol\":1779:1783  this */\n      address\n        /* \"CLPT/CLPTStablecoin.sol\":1799:1815  collateralAmount */\n      dup5\n        /* \"CLPT/CLPTStablecoin.sol\":1703:1826  collateralToken.transferFrom(... */\n      mload(0x40)\n      dup5\n      0xffffffff\n      and\n      0xe0\n      shl\n      dup2\n      mstore\n      0x04\n      add\n      tag_152\n      swap4\n      swap3\n      swap2\n      swap1\n      tag_153\n      jump\t// in\n    tag_152:\n      0x20\n      mload(0x40)\n      dup1\n      dup4\n      sub\n      dup2\n      0x00\n      dup8\n      gas\n      call\n      iszero\n      dup1\n      iszero\n      tag_155\n      jumpi\n      returndatasize\n      0x00\n      dup1\n      returndatacopy\n      revert(0x00, returndatasize)\n    tag_155:\n      pop\n      pop\n      pop\n      pop\n      mload(0x40)\n      returndatasize\n      not(0x1f)\n      0x1f\n      dup3\n      add\n      and\n      dup3\n      add\n      dup1\n      0x40\n      mstore\n      pop\n      dup2\n      add\n      swap1\n      tag_156\n      swap2\n      swap1\n      tag_140\n      jump\t// in\n    tag_156:\n      pop\n        /* \"CLPT/CLPTStablecoin.sol\":1839:1875  _mint(msg.sender, _stablecoinAmount) */\n      tag_157\n        /* \"CLPT/CLPTStablecoin.sol\":1845:1855  msg.sender */\n      caller\n        /* \"CLPT/CLPTStablecoin.sol\":1857:1874  _stablecoinAmount */\n      dup4\n        /* \"CLPT/CLPTStablecoin.sol\":1839:1844  _mint */\n      tag_158\n        /* \"CLPT/CLPTStablecoin.sol\":1839:1875  _mint(msg.sender, _stablecoinAmount) */\n      jump\t// in\n    tag_157:\n        /* \"CLPT/CLPTStablecoin.sol\":1541:1883  {... */\n      pop\n        /* \"CLPT/CLPTStablecoin.sol\":1494:1883  function mint(uint _stablecoinAmount) external {... */\n      pop\n      jump\t// out\n        /* \"@openzeppelin/contracts/token/ERC20/ERC20.sol\":6575:7002  function decreaseAllowance(address spender, uint256 subtractedValue) public virtual returns (bool) {... */\n    tag_76:\n        /* \"@openzeppelin/contracts/token/ERC20/ERC20.sol\":6668:6672  bool */\n      0x00\n        /* \"@openzeppelin/contracts/token/ERC20/ERC20.sol\":6684:6697  address owner */\n      dup1\n        /* \"@openzeppelin/contracts/token/ERC20/ERC20.sol\":6700:6712  _msgSender() */\n      tag_160\n        /* \"@openzeppelin/contracts/token/ERC20/ERC20.sol\":6700:6710  _msgSender */\n      tag_111\n        /* \"@openzeppelin/contracts/token/ERC20/ERC20.sol\":6700:6712  _msgSender() */\n      jump\t// in\n    tag_160:\n        /* \"@openzeppelin/contracts/token/ERC20/ERC20.sol\":6684:6712  address owner = _msgSender() */\n      swap1\n      pop\n        /* \"@openzeppelin/contracts/token/ERC20/ERC20.sol\":6722:6746  uint256 currentAllowance */\n      0x00\n        /* \"@openzeppelin/contracts/token/ERC20/ERC20.sol\":6749:6774  allowance(owner, spender) */\n      tag_161\n        /* \"@openzeppelin/contracts/token/ERC20/ERC20.sol\":6759:6764  owner */\n      dup3\n        /* \"@openzeppelin/contracts/token/ERC20/ERC20.sol\":6766:6773  spender */\n      dup7\n        /* \"@openzeppelin/contracts/token/ERC20/ERC20.sol\":6749:6758  allowance */\n      tag_89\n        /* \"@openzeppelin/contracts/token/ERC20/ERC20.sol\":6749:6774  allowance(owner, spender) */\n      jump\t// in\n    tag_161:\n        /* \"@openzeppelin/contracts/token/ERC20/ERC20.sol\":6722:6774  uint256 currentAllowance = allowance(owner, spender) */\n      swap1\n      pop\n        /* \"@openzeppelin/contracts/token/ERC20/ERC20.sol\":6812:6827  subtractedValue */\n      dup4\n        /* \"@openzeppelin/contracts/token/ERC20/ERC20.sol\":6792:6808  currentAllowance */\n      dup2\n        /* \"@openzeppelin/contracts/token/ERC20/ERC20.sol\":6792:6827  currentAllowance >= subtractedValue */\n      lt\n      iszero\n        /* \"@openzeppelin/contracts/token/ERC20/ERC20.sol\":6784:6869  require(currentAllowance >= subtractedValue, \"ERC20: decreased allowance below zero\") */\n      tag_162\n      jumpi\n      mload(0x40)\n      0x08c379a000000000000000000000000000000000000000000000000000000000\n      dup2\n      mstore\n      0x04\n      add\n      tag_163\n      swap1\n      tag_164\n      jump\t// in\n    tag_163:\n      mload(0x40)\n      dup1\n      swap2\n      sub\n      swap1\n      revert\n    tag_162:\n        /* \"@openzeppelin/contracts/token/ERC20/ERC20.sol\":6903:6963  _approve(owner, spender, currentAllowance - subtractedValue) */\n      tag_165\n        /* \"@openzeppelin/contracts/token/ERC20/ERC20.sol\":6912:6917  owner */\n      dup3\n        /* \"@openzeppelin/contracts/token/ERC20/ERC20.sol\":6919:6926  spender */\n      dup7\n        /* \"@openzeppelin/contracts/token/ERC20/ERC20.sol\":6947:6962  subtractedValue */\n      dup7\n        /* \"@openzeppelin/contracts/token/ERC20/ERC20.sol\":6928:6944  currentAllowance */\n      dup5\n        /* \"@openzeppelin/contracts/token/ERC20/ERC20.sol\":6928:6962  currentAllowance - subtractedValue */\n      sub\n        /* \"@openzeppelin/contracts/token/ERC20/ERC20.sol\":6903:6911  _approve */\n      tag_113\n        /* \"@openzeppelin/contracts/token/ERC20/ERC20.sol\":6903:6963  _approve(owner, spender, currentAllowance - subtractedValue) */\n      jump\t// in\n    tag_165:\n        /* \"@openzeppelin/contracts/token/ERC20/ERC20.sol\":6991:6995  true */\n      0x01\n        /* \"@openzeppelin/contracts/token/ERC20/ERC20.sol\":6984:6995  return true */\n      swap3\n      pop\n      pop\n      pop\n        /* \"@openzeppelin/contracts/token/ERC20/ERC20.sol\":6575:7002  function decreaseAllowance(address spender, uint256 subtractedValue) public virtual returns (bool) {... */\n      swap3\n      swap2\n      pop\n      pop\n      jump\t// out\n        /* \"@openzeppelin/contracts/token/ERC20/ERC20.sol\":3740:3929  function transfer(address to, uint256 amount) public virtual override returns (bool) {... */\n    tag_80:\n        /* \"@openzeppelin/contracts/token/ERC20/ERC20.sol\":3819:3823  bool */\n      0x00\n        /* \"@openzeppelin/contracts/token/ERC20/ERC20.sol\":3835:3848  address owner */\n      dup1\n        /* \"@openzeppelin/contracts/token/ERC20/ERC20.sol\":3851:3863  _msgSender() */\n      tag_167\n        /* \"@openzeppelin/contracts/token/ERC20/ERC20.sol\":3851:3861  _msgSender */\n      tag_111\n        /* \"@openzeppelin/contracts/token/ERC20/ERC20.sol\":3851:3863  _msgSender() */\n      jump\t// in\n    tag_167:\n        /* \"@openzeppelin/contracts/token/ERC20/ERC20.sol\":3835:3863  address owner = _msgSender() */\n      swap1\n      pop\n        /* \"@openzeppelin/contracts/token/ERC20/ERC20.sol\":3873:3901  _transfer(owner, to, amount) */\n      tag_168\n        /* \"@openzeppelin/contracts/token/ERC20/ERC20.sol\":3883:3888  owner */\n      dup2\n        /* \"@openzeppelin/contracts/token/ERC20/ERC20.sol\":3890:3892  to */\n      dup6\n        /* \"@openzeppelin/contracts/token/ERC20/ERC20.sol\":3894:3900  amount */\n      dup6\n        /* \"@openzeppelin/contracts/token/ERC20/ERC20.sol\":3873:3882  _transfer */\n      tag_120\n        /* \"@openzeppelin/contracts/token/ERC20/ERC20.sol\":3873:3901  _transfer(owner, to, amount) */\n      jump\t// in\n    tag_168:\n        /* \"@openzeppelin/contracts/token/ERC20/ERC20.sol\":3918:3922  true */\n      0x01\n        /* \"@openzeppelin/contracts/token/ERC20/ERC20.sol\":3911:3922  return true */\n      swap2\n      pop\n      pop\n        /* \"@openzeppelin/contracts/token/ERC20/ERC20.sol\":3740:3929  function transfer(address to, uint256 amount) public virtual override returns (bool) {... */\n      swap3\n      swap2\n      pop\n      pop\n      jump\t// out\n        /* \"CLPT/CLPTStablecoin.sol\":419:448  IERC20 public collateralToken */\n    tag_83:\n      0x06\n      0x00\n      swap1\n      sload\n      swap1\n      0x0100\n      exp\n      swap1\n      div\n      0xffffffffffffffffffffffffffffffffffffffff\n      and\n      dup2\n      jump\t// out\n        /* \"@openzeppelin/contracts/token/ERC20/ERC20.sol\":3987:4136  function allowance(address owner, address spender) public view virtual override returns (uint256) {... */\n    tag_89:\n        /* \"@openzeppelin/contracts/token/ERC20/ERC20.sol\":4076:4083  uint256 */\n      0x00\n        /* \"@openzeppelin/contracts/token/ERC20/ERC20.sol\":4102:4113  _allowances */\n      0x01\n        /* \"@openzeppelin/contracts/token/ERC20/ERC20.sol\":4102:4120  _allowances[owner] */\n      0x00\n        /* \"@openzeppelin/contracts/token/ERC20/ERC20.sol\":4114:4119  owner */\n      dup5\n        /* \"@openzeppelin/contracts/token/ERC20/ERC20.sol\":4102:4120  _allowances[owner] */\n      0xffffffffffffffffffffffffffffffffffffffff\n      and\n      0xffffffffffffffffffffffffffffffffffffffff\n      and\n      dup2\n      mstore\n      0x20\n      add\n      swap1\n      dup2\n      mstore\n      0x20\n      add\n      0x00\n      keccak256\n        /* \"@openzeppelin/contracts/token/ERC20/ERC20.sol\":4102:4129  _allowances[owner][spender] */\n      0x00\n        /* \"@openzeppelin/contracts/token/ERC20/ERC20.sol\":4121:4128  spender */\n      dup4\n        /* \"@openzeppelin/contracts/token/ERC20/ERC20.sol\":4102:4129  _allowances[owner][spender] */\n      0xffffffffffffffffffffffffffffffffffffffff\n      and\n      0xffffffffffffffffffffffffffffffffffffffff\n      and\n      dup2\n      mstore\n      0x20\n      add\n      swap1\n      dup2\n      mstore\n      0x20\n      add\n      0x00\n      keccak256\n      sload\n        /* \"@openzeppelin/contracts/token/ERC20/ERC20.sol\":4095:4129  return _allowances[owner][spender] */\n      swap1\n      pop\n        /* \"@openzeppelin/contracts/token/ERC20/ERC20.sol\":3987:4136  function allowance(address owner, address spender) public view virtual override returns (uint256) {... */\n      swap3\n      swap2\n      pop\n      pop\n      jump\t// out\n        /* \"CLPT/CLPTStablecoin.sol\":1029:1234  function getCollateralPrice() public view returns (uint) {... */\n    tag_92:\n        /* \"CLPT/CLPTStablecoin.sol\":1080:1084  uint */\n      0x00\n        /* \"CLPT/CLPTStablecoin.sol\":1100:1109  int price */\n      dup1\n        /* \"CLPT/CLPTStablecoin.sol\":1119:1128  priceFeed */\n      0x07\n      0x00\n      swap1\n      sload\n      swap1\n      0x0100\n      exp\n      swap1\n      div\n      0xffffffffffffffffffffffffffffffffffffffff\n      and\n        /* \"CLPT/CLPTStablecoin.sol\":1119:1144  priceFeed.latestRoundData */\n      0xffffffffffffffffffffffffffffffffffffffff\n      and\n      0xfeaf968c\n        /* \"CLPT/CLPTStablecoin.sol\":1119:1146  priceFeed.latestRoundData() */\n      mload(0x40)\n      dup2\n      0xffffffff\n      and\n      0xe0\n      shl\n      dup2\n      mstore\n      0x04\n      add\n      0xa0\n      mload(0x40)\n      dup1\n      dup4\n      sub\n      dup2\n      dup7\n      gas\n      staticcall\n      iszero\n      dup1\n      iszero\n      tag_172\n      jumpi\n      returndatasize\n      0x00\n      dup1\n      returndatacopy\n      revert(0x00, returndatasize)\n    tag_172:\n      pop\n      pop\n      pop\n      pop\n      mload(0x40)\n      returndatasize\n      not(0x1f)\n      0x1f\n      dup3\n      add\n      and\n      dup3\n      add\n      dup1\n      0x40\n      mstore\n      pop\n      dup2\n      add\n      swap1\n      tag_173\n      swap2\n      swap1\n      tag_174\n      jump\t// in\n    tag_173:\n        /* \"CLPT/CLPTStablecoin.sol\":1097:1146  (, int price, , , ) = priceFeed.latestRoundData() */\n      pop\n      pop\n      pop\n      swap2\n      pop\n      pop\n        /* \"CLPT/CLPTStablecoin.sol\":1173:1174  0 */\n      0x00\n        /* \"CLPT/CLPTStablecoin.sol\":1165:1170  price */\n      dup2\n        /* \"CLPT/CLPTStablecoin.sol\":1165:1174  price > 0 */\n      sgt\n        /* \"CLPT/CLPTStablecoin.sol\":1157:1197  require(price > 0, \"Invalid price feed\") */\n      tag_175\n      jumpi\n      mload(0x40)\n      0x08c379a000000000000000000000000000000000000000000000000000000000\n      dup2\n      mstore\n      0x04\n      add\n      tag_176\n      swap1\n      tag_177\n      jump\t// in\n    tag_176:\n      mload(0x40)\n      dup1\n      swap2\n      sub\n      swap1\n      revert\n    tag_175:\n        /* \"CLPT/CLPTStablecoin.sol\":1220:1225  price */\n      dup1\n        /* \"CLPT/CLPTStablecoin.sol\":1208:1226  return uint(price) */\n      swap2\n      pop\n      pop\n        /* \"CLPT/CLPTStablecoin.sol\":1029:1234  function getCollateralPrice() public view returns (uint) {... */\n      swap1\n      jump\t// out\n        /* \"CLPT/CLPTStablecoin.sol\":1242:1486  function calculateCollateralAmount(... */\n    tag_96:\n        /* \"CLPT/CLPTStablecoin.sol\":1338:1342  uint */\n      0x00\n        /* \"CLPT/CLPTStablecoin.sol\":1355:1375  uint collateralprice */\n      dup1\n        /* \"CLPT/CLPTStablecoin.sol\":1378:1398  getCollateralPrice() */\n      tag_179\n        /* \"CLPT/CLPTStablecoin.sol\":1378:1396  getCollateralPrice */\n      tag_92\n        /* \"CLPT/CLPTStablecoin.sol\":1378:1398  getCollateralPrice() */\n      jump\t// in\n    tag_179:\n        /* \"CLPT/CLPTStablecoin.sol\":1355:1398  uint collateralprice = getCollateralPrice() */\n      swap1\n      pop\n        /* \"CLPT/CLPTStablecoin.sol\":1416:1478  _stablecoinAmount.mul(COLLATERAL_DECIMAL).div(collateralprice) */\n      tag_180\n        /* \"CLPT/CLPTStablecoin.sol\":1462:1477  collateralprice */\n      dup2\n        /* \"CLPT/CLPTStablecoin.sol\":1416:1457  _stablecoinAmount.mul(COLLATERAL_DECIMAL) */\n      tag_181\n        /* \"CLPT/CLPTStablecoin.sol\":544:547  1e6 */\n      0x0f4240\n        /* \"CLPT/CLPTStablecoin.sol\":1416:1433  _stablecoinAmount */\n      dup7\n        /* \"CLPT/CLPTStablecoin.sol\":1416:1437  _stablecoinAmount.mul */\n      tag_182\n      swap1\n        /* \"CLPT/CLPTStablecoin.sol\":1416:1457  _stablecoinAmount.mul(COLLATERAL_DECIMAL) */\n      swap2\n      swap1\n      0xffffffff\n      and\n      jump\t// in\n    tag_181:\n        /* \"CLPT/CLPTStablecoin.sol\":1416:1461  _stablecoinAmount.mul(COLLATERAL_DECIMAL).div */\n      tag_183\n      swap1\n        /* \"CLPT/CLPTStablecoin.sol\":1416:1478  _stablecoinAmount.mul(COLLATERAL_DECIMAL).div(collateralprice) */\n      swap2\n      swap1\n      0xffffffff\n      and\n      jump\t// in\n    tag_180:\n        /* \"CLPT/CLPTStablecoin.sol\":1409:1478  return _stablecoinAmount.mul(COLLATERAL_DECIMAL).div(collateralprice) */\n      swap2\n      pop\n      pop\n        /* \"CLPT/CLPTStablecoin.sol\":1242:1486  function calculateCollateralAmount(... */\n      swap2\n      swap1\n      pop\n      jump\t// out\n        /* \"CLPT/CLPTStablecoin.sol\":392:412  address public admin */\n    tag_99:\n      0x05\n      0x00\n      swap1\n      sload\n      swap1\n      0x0100\n      exp\n      swap1\n      div\n      0xffffffffffffffffffffffffffffffffffffffff\n      and\n      dup2\n      jump\t// out\n        /* \"@openzeppelin/contracts/utils/Context.sol\":640:736  function _msgSender() internal view virtual returns (address) {... */\n    tag_111:\n        /* \"@openzeppelin/contracts/utils/Context.sol\":693:700  address */\n      0x00\n        /* \"@openzeppelin/contracts/utils/Context.sol\":719:729  msg.sender */\n      caller\n        /* \"@openzeppelin/contracts/utils/Context.sol\":712:729  return msg.sender */\n      swap1\n      pop\n        /* \"@openzeppelin/contracts/utils/Context.sol\":640:736  function _msgSender() internal view virtual returns (address) {... */\n      swap1\n      jump\t// out\n        /* \"@openzeppelin/contracts/token/ERC20/ERC20.sol\":10457:10797  function _approve(address owner, address spender, uint256 amount) internal virtual {... */\n    tag_113:\n        /* \"@openzeppelin/contracts/token/ERC20/ERC20.sol\":10575:10576  0 */\n      0x00\n        /* \"@openzeppelin/contracts/token/ERC20/ERC20.sol\":10558:10577  owner != address(0) */\n      0xffffffffffffffffffffffffffffffffffffffff\n      and\n        /* \"@openzeppelin/contracts/token/ERC20/ERC20.sol\":10558:10563  owner */\n      dup4\n        /* \"@openzeppelin/contracts/token/ERC20/ERC20.sol\":10558:10577  owner != address(0) */\n      0xffffffffffffffffffffffffffffffffffffffff\n      and\n      sub\n        /* \"@openzeppelin/contracts/token/ERC20/ERC20.sol\":10550:10618  require(owner != address(0), \"ERC20: approve from the zero address\") */\n      tag_186\n      jumpi\n      mload(0x40)\n      0x08c379a000000000000000000000000000000000000000000000000000000000\n      dup2\n      mstore\n      0x04\n      add\n      tag_187\n      swap1\n      tag_188\n      jump\t// in\n    tag_187:\n      mload(0x40)\n      dup1\n      swap2\n      sub\n      swap1\n      revert\n    tag_186:\n        /* \"@openzeppelin/contracts/token/ERC20/ERC20.sol\":10655:10656  0 */\n      0x00\n        /* \"@openzeppelin/contracts/token/ERC20/ERC20.sol\":10636:10657  spender != address(0) */\n      0xffffffffffffffffffffffffffffffffffffffff\n      and\n        /* \"@openzeppelin/contracts/token/ERC20/ERC20.sol\":10636:10643  spender */\n      dup3\n        /* \"@openzeppelin/contracts/token/ERC20/ERC20.sol\":10636:10657  spender != address(0) */\n      0xffffffffffffffffffffffffffffffffffffffff\n      and\n      sub\n        /* \"@openzeppelin/contracts/token/ERC20/ERC20.sol\":10628:10696  require(spender != address(0), \"ERC20: approve to the zero address\") */\n      tag_189\n      jumpi\n      mload(0x40)\n      0x08c379a000000000000000000000000000000000000000000000000000000000\n      dup2\n      mstore\n      0x04\n      add\n      tag_190\n      swap1\n      tag_191\n      jump\t// in\n    tag_190:\n      mload(0x40)\n      dup1\n      swap2\n      sub\n      swap1\n      revert\n    tag_189:\n        /* \"@openzeppelin/contracts/token/ERC20/ERC20.sol\":10737:10743  amount */\n      dup1\n        /* \"@openzeppelin/contracts/token/ERC20/ERC20.sol\":10707:10718  _allowances */\n      0x01\n        /* \"@openzeppelin/contracts/token/ERC20/ERC20.sol\":10707:10725  _allowances[owner] */\n      0x00\n        /* \"@openzeppelin/contracts/token/ERC20/ERC20.sol\":10719:10724  owner */\n      dup6\n        /* \"@openzeppelin/contracts/token/ERC20/ERC20.sol\":10707:10725  _allowances[owner] */\n      0xffffffffffffffffffffffffffffffffffffffff\n      and\n      0xffffffffffffffffffffffffffffffffffffffff\n      and\n      dup2\n      mstore\n      0x20\n      add\n      swap1\n      dup2\n      mstore\n      0x20\n      add\n      0x00\n      keccak256\n        /* \"@openzeppelin/contracts/token/ERC20/ERC20.sol\":10707:10734  _allowances[owner][spender] */\n      0x00\n        /* \"@openzeppelin/contracts/token/ERC20/ERC20.sol\":10726:10733  spender */\n      dup5\n        /* \"@openzeppelin/contracts/token/ERC20/ERC20.sol\":10707:10734  _allowances[owner][spender] */\n      0xffffffffffffffffffffffffffffffffffffffff\n      and\n      0xffffffffffffffffffffffffffffffffffffffff\n      and\n      dup2\n      mstore\n      0x20\n      add\n      swap1\n      dup2\n      mstore\n      0x20\n      add\n      0x00\n      keccak256\n        /* \"@openzeppelin/contracts/token/ERC20/ERC20.sol\":10707:10743  _allowances[owner][spender] = amount */\n      dup2\n      swap1\n      sstore\n      pop\n        /* \"@openzeppelin/contracts/token/ERC20/ERC20.sol\":10774:10781  spender */\n      dup2\n        /* \"@openzeppelin/contracts/token/ERC20/ERC20.sol\":10758:10790  Approval(owner, spender, amount) */\n      0xffffffffffffffffffffffffffffffffffffffff\n      and\n        /* \"@openzeppelin/contracts/token/ERC20/ERC20.sol\":10767:10772  owner */\n      dup4\n        /* \"@openzeppelin/contracts/token/ERC20/ERC20.sol\":10758:10790  Approval(owner, spender, amount) */\n      0xffffffffffffffffffffffffffffffffffffffff\n      and\n      0x8c5be1e5ebec7d5bd14f71427d1e84f3dd0314c0f7b2291e5b200ac8c7c3b925\n        /* \"@openzeppelin/contracts/token/ERC20/ERC20.sol\":10783:10789  amount */\n      dup4\n        /* \"@openzeppelin/contracts/token/ERC20/ERC20.sol\":10758:10790  Approval(owner, spender, amount) */\n      mload(0x40)\n      tag_192\n      swap2\n      swap1\n      tag_38\n      jump\t// in\n    tag_192:\n      mload(0x40)\n      dup1\n      swap2\n      sub\n      swap1\n      log3\n        /* \"@openzeppelin/contracts/token/ERC20/ERC20.sol\":10457:10797  function _approve(address owner, address spender, uint256 amount) internal virtual {... */\n      pop\n      pop\n      pop\n      jump\t// out\n        /* \"@openzeppelin/contracts/token/ERC20/ERC20.sol\":11078:11489  function _spendAllowance(address owner, address spender, uint256 amount) internal virtual {... */\n    tag_118:\n        /* \"@openzeppelin/contracts/token/ERC20/ERC20.sol\":11178:11202  uint256 currentAllowance */\n      0x00\n        /* \"@openzeppelin/contracts/token/ERC20/ERC20.sol\":11205:11230  allowance(owner, spender) */\n      tag_194\n        /* \"@openzeppelin/contracts/token/ERC20/ERC20.sol\":11215:11220  owner */\n      dup5\n        /* \"@openzeppelin/contracts/token/ERC20/ERC20.sol\":11222:11229  spender */\n      dup5\n        /* \"@openzeppelin/contracts/token/ERC20/ERC20.sol\":11205:11214  allowance */\n      tag_89\n        /* \"@openzeppelin/contracts/token/ERC20/ERC20.sol\":11205:11230  allowance(owner, spender) */\n      jump\t// in\n    tag_194:\n        /* \"@openzeppelin/contracts/token/ERC20/ERC20.sol\":11178:11230  uint256 currentAllowance = allowance(owner, spender) */\n      swap1\n      pop\n        /* \"@openzeppelin/contracts/token/ERC20/ERC20.sol\":11264:11281  type(uint256).max */\n      0xffffffffffffffffffffffffffffffffffffffffffffffffffffffffffffffff\n        /* \"@openzeppelin/contracts/token/ERC20/ERC20.sol\":11244:11260  currentAllowance */\n      dup2\n        /* \"@openzeppelin/contracts/token/ERC20/ERC20.sol\":11244:11281  currentAllowance != type(uint256).max */\n      eq\n        /* \"@openzeppelin/contracts/token/ERC20/ERC20.sol\":11240:11483  if (currentAllowance != type(uint256).max) {... */\n      tag_195\n      jumpi\n        /* \"@openzeppelin/contracts/token/ERC20/ERC20.sol\":11325:11331  amount */\n      dup2\n        /* \"@openzeppelin/contracts/token/ERC20/ERC20.sol\":11305:11321  currentAllowance */\n      dup2\n        /* \"@openzeppelin/contracts/token/ERC20/ERC20.sol\":11305:11331  currentAllowance >= amount */\n      lt\n      iszero\n        /* \"@openzeppelin/contracts/token/ERC20/ERC20.sol\":11297:11365  require(currentAllowance >= amount, \"ERC20: insufficient allowance\") */\n      tag_196\n      jumpi\n      mload(0x40)\n      0x08c379a000000000000000000000000000000000000000000000000000000000\n      dup2\n      mstore\n      0x04\n      add\n      tag_197\n      swap1\n      tag_198\n      jump\t// in\n    tag_197:\n      mload(0x40)\n      dup1\n      swap2\n      sub\n      swap1\n      revert\n    tag_196:\n        /* \"@openzeppelin/contracts/token/ERC20/ERC20.sol\":11407:11458  _approve(owner, spender, currentAllowance - amount) */\n      tag_199\n        /* \"@openzeppelin/contracts/token/ERC20/ERC20.sol\":11416:11421  owner */\n      dup5\n        /* \"@openzeppelin/contracts/token/ERC20/ERC20.sol\":11423:11430  spender */\n      dup5\n        /* \"@openzeppelin/contracts/token/ERC20/ERC20.sol\":11451:11457  amount */\n      dup5\n        /* \"@openzeppelin/contracts/token/ERC20/ERC20.sol\":11432:11448  currentAllowance */\n      dup5\n        /* \"@openzeppelin/contracts/token/ERC20/ERC20.sol\":11432:11457  currentAllowance - amount */\n      sub\n        /* \"@openzeppelin/contracts/token/ERC20/ERC20.sol\":11407:11415  _approve */\n      tag_113\n        /* \"@openzeppelin/contracts/token/ERC20/ERC20.sol\":11407:11458  _approve(owner, spender, currentAllowance - amount) */\n      jump\t// in\n    tag_199:\n        /* \"@openzeppelin/contracts/token/ERC20/ERC20.sol\":11240:11483  if (currentAllowance != type(uint256).max) {... */\n    tag_195:\n        /* \"@openzeppelin/contracts/token/ERC20/ERC20.sol\":11168:11489  {... */\n      pop\n        /* \"@openzeppelin/contracts/token/ERC20/ERC20.sol\":11078:11489  function _spendAllowance(address owner, address spender, uint256 amount) internal virtual {... */\n      pop\n      pop\n      pop\n      jump\t// out\n        /* \"@openzeppelin/contracts/token/ERC20/ERC20.sol\":7456:8244  function _transfer(address from, address to, uint256 amount) internal virtual {... */\n    tag_120:\n        /* \"@openzeppelin/contracts/token/ERC20/ERC20.sol\":7568:7569  0 */\n      0x00\n        /* \"@openzeppelin/contracts/token/ERC20/ERC20.sol\":7552:7570  from != address(0) */\n      0xffffffffffffffffffffffffffffffffffffffff\n      and\n        /* \"@openzeppelin/contracts/token/ERC20/ERC20.sol\":7552:7556  from */\n      dup4\n        /* \"@openzeppelin/contracts/token/ERC20/ERC20.sol\":7552:7570  from != address(0) */\n      0xffffffffffffffffffffffffffffffffffffffff\n      and\n      sub\n        /* \"@openzeppelin/contracts/token/ERC20/ERC20.sol\":7544:7612  require(from != address(0), \"ERC20: transfer from the zero address\") */\n      tag_201\n      jumpi\n      mload(0x40)\n      0x08c379a000000000000000000000000000000000000000000000000000000000\n      dup2\n      mstore\n      0x04\n      add\n      tag_202\n      swap1\n      tag_203\n      jump\t// in\n    tag_202:\n      mload(0x40)\n      dup1\n      swap2\n      sub\n      swap1\n      revert\n    tag_201:\n        /* \"@openzeppelin/contracts/token/ERC20/ERC20.sol\":7644:7645  0 */\n      0x00\n        /* \"@openzeppelin/contracts/token/ERC20/ERC20.sol\":7630:7646  to != address(0) */\n      0xffffffffffffffffffffffffffffffffffffffff\n      and\n        /* \"@openzeppelin/contracts/token/ERC20/ERC20.sol\":7630:7632  to */\n      dup3\n        /* \"@openzeppelin/contracts/token/ERC20/ERC20.sol\":7630:7646  to != address(0) */\n      0xffffffffffffffffffffffffffffffffffffffff\n      and\n      sub\n        /* \"@openzeppelin/contracts/token/ERC20/ERC20.sol\":7622:7686  require(to != address(0), \"ERC20: transfer to the zero address\") */\n      tag_204\n      jumpi\n      mload(0x40)\n      0x08c379a000000000000000000000000000000000000000000000000000000000\n      dup2\n      mstore\n      0x04\n      add\n      tag_205\n      swap1\n      tag_206\n      jump\t// in\n    tag_205:\n      mload(0x40)\n      dup1\n      swap2\n      sub\n      swap1\n      revert\n    tag_204:\n        /* \"@openzeppelin/contracts/token/ERC20/ERC20.sol\":7697:7735  _beforeTokenTransfer(from, to, amount) */\n      tag_207\n        /* \"@openzeppelin/contracts/token/ERC20/ERC20.sol\":7718:7722  from */\n      dup4\n        /* \"@openzeppelin/contracts/token/ERC20/ERC20.sol\":7724:7726  to */\n      dup4\n        /* \"@openzeppelin/contracts/token/ERC20/ERC20.sol\":7728:7734  amount */\n      dup4\n        /* \"@openzeppelin/contracts/token/ERC20/ERC20.sol\":7697:7717  _beforeTokenTransfer */\n      tag_208\n        /* \"@openzeppelin/contracts/token/ERC20/ERC20.sol\":7697:7735  _beforeTokenTransfer(from, to, amount) */\n      jump\t// in\n    tag_207:\n        /* \"@openzeppelin/contracts/token/ERC20/ERC20.sol\":7746:7765  uint256 fromBalance */\n      0x00\n        /* \"@openzeppelin/contracts/token/ERC20/ERC20.sol\":7768:7777  _balances */\n      dup1\n        /* \"@openzeppelin/contracts/token/ERC20/ERC20.sol\":7768:7783  _balances[from] */\n      0x00\n        /* \"@openzeppelin/contracts/token/ERC20/ERC20.sol\":7778:7782  from */\n      dup6\n        /* \"@openzeppelin/contracts/token/ERC20/ERC20.sol\":7768:7783  _balances[from] */\n      0xffffffffffffffffffffffffffffffffffffffff\n      and\n      0xffffffffffffffffffffffffffffffffffffffff\n      and\n      dup2\n      mstore\n      0x20\n      add\n      swap1\n      dup2\n      mstore\n      0x20\n      add\n      0x00\n      keccak256\n      sload\n        /* \"@openzeppelin/contracts/token/ERC20/ERC20.sol\":7746:7783  uint256 fromBalance = _balances[from] */\n      swap1\n      pop\n        /* \"@openzeppelin/contracts/token/ERC20/ERC20.sol\":7816:7822  amount */\n      dup2\n        /* \"@openzeppelin/contracts/token/ERC20/ERC20.sol\":7801:7812  fromBalance */\n      dup2\n        /* \"@openzeppelin/contracts/token/ERC20/ERC20.sol\":7801:7822  fromBalance >= amount */\n      lt\n      iszero\n        /* \"@openzeppelin/contracts/token/ERC20/ERC20.sol\":7793:7865  require(fromBalance >= amount, \"ERC20: transfer amount exceeds balance\") */\n      tag_209\n      jumpi\n      mload(0x40)\n      0x08c379a000000000000000000000000000000000000000000000000000000000\n      dup2\n      mstore\n      0x04\n      add\n      tag_210\n      swap1\n      tag_211\n      jump\t// in\n    tag_210:\n      mload(0x40)\n      dup1\n      swap2\n      sub\n      swap1\n      revert\n    tag_209:\n        /* \"@openzeppelin/contracts/token/ERC20/ERC20.sol\":7931:7937  amount */\n      dup2\n        /* \"@openzeppelin/contracts/token/ERC20/ERC20.sol\":7917:7928  fromBalance */\n      dup2\n        /* \"@openzeppelin/contracts/token/ERC20/ERC20.sol\":7917:7937  fromBalance - amount */\n      sub\n        /* \"@openzeppelin/contracts/token/ERC20/ERC20.sol\":7899:7908  _balances */\n      0x00\n        /* \"@openzeppelin/contracts/token/ERC20/ERC20.sol\":7899:7914  _balances[from] */\n      dup1\n        /* \"@openzeppelin/contracts/token/ERC20/ERC20.sol\":7909:7913  from */\n      dup7\n        /* \"@openzeppelin/contracts/token/ERC20/ERC20.sol\":7899:7914  _balances[from] */\n      0xffffffffffffffffffffffffffffffffffffffff\n      and\n      0xffffffffffffffffffffffffffffffffffffffff\n      and\n      dup2\n      mstore\n      0x20\n      add\n      swap1\n      dup2\n      mstore\n      0x20\n      add\n      0x00\n      keccak256\n        /* \"@openzeppelin/contracts/token/ERC20/ERC20.sol\":7899:7937  _balances[from] = fromBalance - amount */\n      dup2\n      swap1\n      sstore\n      pop\n        /* \"@openzeppelin/contracts/token/ERC20/ERC20.sol\":8131:8137  amount */\n      dup2\n        /* \"@openzeppelin/contracts/token/ERC20/ERC20.sol\":8114:8123  _balances */\n      0x00\n        /* \"@openzeppelin/contracts/token/ERC20/ERC20.sol\":8114:8127  _balances[to] */\n      dup1\n        /* \"@openzeppelin/contracts/token/ERC20/ERC20.sol\":8124:8126  to */\n      dup6\n        /* \"@openzeppelin/contracts/token/ERC20/ERC20.sol\":8114:8127  _balances[to] */\n      0xffffffffffffffffffffffffffffffffffffffff\n      and\n      0xffffffffffffffffffffffffffffffffffffffff\n      and\n      dup2\n      mstore\n      0x20\n      add\n      swap1\n      dup2\n      mstore\n      0x20\n      add\n      0x00\n      keccak256\n      0x00\n        /* \"@openzeppelin/contracts/token/ERC20/ERC20.sol\":8114:8137  _balances[to] += amount */\n      dup3\n      dup3\n      sload\n      add\n      swap3\n      pop\n      pop\n      dup2\n      swap1\n      sstore\n      pop\n        /* \"@openzeppelin/contracts/token/ERC20/ERC20.sol\":8178:8180  to */\n      dup3\n        /* \"@openzeppelin/contracts/token/ERC20/ERC20.sol\":8163:8189  Transfer(from, to, amount) */\n      0xffffffffffffffffffffffffffffffffffffffff\n      and\n        /* \"@openzeppelin/contracts/token/ERC20/ERC20.sol\":8172:8176  from */\n      dup5\n        /* \"@openzeppelin/contracts/token/ERC20/ERC20.sol\":8163:8189  Transfer(from, to, amount) */\n      0xffffffffffffffffffffffffffffffffffffffff\n      and\n      0xddf252ad1be2c89b69c2b068fc378daa952ba7f163c4a11628f55a4df523b3ef\n        /* \"@openzeppelin/contracts/token/ERC20/ERC20.sol\":8182:8188  amount */\n      dup5\n        /* \"@openzeppelin/contracts/token/ERC20/ERC20.sol\":8163:8189  Transfer(from, to, amount) */\n      mload(0x40)\n      tag_212\n      swap2\n      swap1\n      tag_38\n      jump\t// in\n    tag_212:\n      mload(0x40)\n      dup1\n      swap2\n      sub\n      swap1\n      log3\n        /* \"@openzeppelin/contracts/token/ERC20/ERC20.sol\":8200:8237  _afterTokenTransfer(from, to, amount) */\n      tag_213\n        /* \"@openzeppelin/contracts/token/ERC20/ERC20.sol\":8220:8224  from */\n      dup5\n        /* \"@openzeppelin/contracts/token/ERC20/ERC20.sol\":8226:8228  to */\n      dup5\n        /* \"@openzeppelin/contracts/token/ERC20/ERC20.sol\":8230:8236  amount */\n      dup5\n        /* \"@openzeppelin/contracts/token/ERC20/ERC20.sol\":8200:8219  _afterTokenTransfer */\n      tag_214\n        /* \"@openzeppelin/contracts/token/ERC20/ERC20.sol\":8200:8237  _afterTokenTransfer(from, to, amount) */\n      jump\t// in\n    tag_213:\n        /* \"@openzeppelin/contracts/token/ERC20/ERC20.sol\":7534:8244  {... */\n      pop\n        /* \"@openzeppelin/contracts/token/ERC20/ERC20.sol\":7456:8244  function _transfer(address from, address to, uint256 amount) internal virtual {... */\n      pop\n      pop\n      pop\n      jump\t// out\n        /* \"@openzeppelin/contracts/token/ERC20/ERC20.sol\":9375:10034  function _burn(address account, uint256 amount) internal virtual {... */\n    tag_134:\n        /* \"@openzeppelin/contracts/token/ERC20/ERC20.sol\":9477:9478  0 */\n      0x00\n        /* \"@openzeppelin/contracts/token/ERC20/ERC20.sol\":9458:9479  account != address(0) */\n      0xffffffffffffffffffffffffffffffffffffffff\n      and\n        /* \"@openzeppelin/contracts/token/ERC20/ERC20.sol\":9458:9465  account */\n      dup3\n        /* \"@openzeppelin/contracts/token/ERC20/ERC20.sol\":9458:9479  account != address(0) */\n      0xffffffffffffffffffffffffffffffffffffffff\n      and\n      sub\n        /* \"@openzeppelin/contracts/token/ERC20/ERC20.sol\":9450:9517  require(account != address(0), \"ERC20: burn from the zero address\") */\n      tag_216\n      jumpi\n      mload(0x40)\n      0x08c379a000000000000000000000000000000000000000000000000000000000\n      dup2\n      mstore\n      0x04\n      add\n      tag_217\n      swap1\n      tag_218\n      jump\t// in\n    tag_217:\n      mload(0x40)\n      dup1\n      swap2\n      sub\n      swap1\n      revert\n    tag_216:\n        /* \"@openzeppelin/contracts/token/ERC20/ERC20.sol\":9528:9577  _beforeTokenTransfer(account, address(0), amount) */\n      tag_219\n        /* \"@openzeppelin/contracts/token/ERC20/ERC20.sol\":9549:9556  account */\n      dup3\n        /* \"@openzeppelin/contracts/token/ERC20/ERC20.sol\":9566:9567  0 */\n      0x00\n        /* \"@openzeppelin/contracts/token/ERC20/ERC20.sol\":9570:9576  amount */\n      dup4\n        /* \"@openzeppelin/contracts/token/ERC20/ERC20.sol\":9528:9548  _beforeTokenTransfer */\n      tag_208\n        /* \"@openzeppelin/contracts/token/ERC20/ERC20.sol\":9528:9577  _beforeTokenTransfer(account, address(0), amount) */\n      jump\t// in\n    tag_219:\n        /* \"@openzeppelin/contracts/token/ERC20/ERC20.sol\":9588:9610  uint256 accountBalance */\n      0x00\n        /* \"@openzeppelin/contracts/token/ERC20/ERC20.sol\":9613:9622  _balances */\n      dup1\n        /* \"@openzeppelin/contracts/token/ERC20/ERC20.sol\":9613:9631  _balances[account] */\n      0x00\n        /* \"@openzeppelin/contracts/token/ERC20/ERC20.sol\":9623:9630  account */\n      dup5\n        /* \"@openzeppelin/contracts/token/ERC20/ERC20.sol\":9613:9631  _balances[account] */\n      0xffffffffffffffffffffffffffffffffffffffff\n      and\n      0xffffffffffffffffffffffffffffffffffffffff\n      and\n      dup2\n      mstore\n      0x20\n      add\n      swap1\n      dup2\n      mstore\n      0x20\n      add\n      0x00\n      keccak256\n      sload\n        /* \"@openzeppelin/contracts/token/ERC20/ERC20.sol\":9588:9631  uint256 accountBalance = _balances[account] */\n      swap1\n      pop\n        /* \"@openzeppelin/contracts/token/ERC20/ERC20.sol\":9667:9673  amount */\n      dup2\n        /* \"@openzeppelin/contracts/token/ERC20/ERC20.sol\":9649:9663  accountBalance */\n      dup2\n        /* \"@openzeppelin/contracts/token/ERC20/ERC20.sol\":9649:9673  accountBalance >= amount */\n      lt\n      iszero\n        /* \"@openzeppelin/contracts/token/ERC20/ERC20.sol\":9641:9712  require(accountBalance >= amount, \"ERC20: burn amount exceeds balance\") */\n      tag_220\n      jumpi\n      mload(0x40)\n      0x08c379a000000000000000000000000000000000000000000000000000000000\n      dup2\n      mstore\n      0x04\n      add\n      tag_221\n      swap1\n      tag_222\n      jump\t// in\n    tag_221:\n      mload(0x40)\n      dup1\n      swap2\n      sub\n      swap1\n      revert\n    tag_220:\n        /* \"@openzeppelin/contracts/token/ERC20/ERC20.sol\":9784:9790  amount */\n      dup2\n        /* \"@openzeppelin/contracts/token/ERC20/ERC20.sol\":9767:9781  accountBalance */\n      dup2\n        /* \"@openzeppelin/contracts/token/ERC20/ERC20.sol\":9767:9790  accountBalance - amount */\n      sub\n        /* \"@openzeppelin/contracts/token/ERC20/ERC20.sol\":9746:9755  _balances */\n      0x00\n        /* \"@openzeppelin/contracts/token/ERC20/ERC20.sol\":9746:9764  _balances[account] */\n      dup1\n        /* \"@openzeppelin/contracts/token/ERC20/ERC20.sol\":9756:9763  account */\n      dup6\n        /* \"@openzeppelin/contracts/token/ERC20/ERC20.sol\":9746:9764  _balances[account] */\n      0xffffffffffffffffffffffffffffffffffffffff\n      and\n      0xffffffffffffffffffffffffffffffffffffffff\n      and\n      dup2\n      mstore\n      0x20\n      add\n      swap1\n      dup2\n      mstore\n      0x20\n      add\n      0x00\n      keccak256\n        /* \"@openzeppelin/contracts/token/ERC20/ERC20.sol\":9746:9790  _balances[account] = accountBalance - amount */\n      dup2\n      swap1\n      sstore\n      pop\n        /* \"@openzeppelin/contracts/token/ERC20/ERC20.sol\":9899:9905  amount */\n      dup2\n        /* \"@openzeppelin/contracts/token/ERC20/ERC20.sol\":9883:9895  _totalSupply */\n      0x02\n      0x00\n        /* \"@openzeppelin/contracts/token/ERC20/ERC20.sol\":9883:9905  _totalSupply -= amount */\n      dup3\n      dup3\n      sload\n      sub\n      swap3\n      pop\n      pop\n      dup2\n      swap1\n      sstore\n      pop\n        /* \"@openzeppelin/contracts/token/ERC20/ERC20.sol\":9957:9958  0 */\n      0x00\n        /* \"@openzeppelin/contracts/token/ERC20/ERC20.sol\":9931:9968  Transfer(account, address(0), amount) */\n      0xffffffffffffffffffffffffffffffffffffffff\n      and\n        /* \"@openzeppelin/contracts/token/ERC20/ERC20.sol\":9940:9947  account */\n      dup4\n        /* \"@openzeppelin/contracts/token/ERC20/ERC20.sol\":9931:9968  Transfer(account, address(0), amount) */\n      0xffffffffffffffffffffffffffffffffffffffff\n      and\n      0xddf252ad1be2c89b69c2b068fc378daa952ba7f163c4a11628f55a4df523b3ef\n        /* \"@openzeppelin/contracts/token/ERC20/ERC20.sol\":9961:9967  amount */\n      dup5\n        /* \"@openzeppelin/contracts/token/ERC20/ERC20.sol\":9931:9968  Transfer(account, address(0), amount) */\n      mload(0x40)\n      tag_223\n      swap2\n      swap1\n      tag_38\n      jump\t// in\n    tag_223:\n      mload(0x40)\n      dup1\n      swap2\n      sub\n      swap1\n      log3\n        /* \"@openzeppelin/contracts/token/ERC20/ERC20.sol\":9979:10027  _afterTokenTransfer(account, address(0), amount) */\n      tag_224\n        /* \"@openzeppelin/contracts/token/ERC20/ERC20.sol\":9999:10006  account */\n      dup4\n        /* \"@openzeppelin/contracts/token/ERC20/ERC20.sol\":10016:10017  0 */\n      0x00\n        /* \"@openzeppelin/contracts/token/ERC20/ERC20.sol\":10020:10026  amount */\n      dup5\n        /* \"@openzeppelin/contracts/token/ERC20/ERC20.sol\":9979:9998  _afterTokenTransfer */\n      tag_214\n        /* \"@openzeppelin/contracts/token/ERC20/ERC20.sol\":9979:10027  _afterTokenTransfer(account, address(0), amount) */\n      jump\t// in\n    tag_224:\n        /* \"@openzeppelin/contracts/token/ERC20/ERC20.sol\":9440:10034  {... */\n      pop\n        /* \"@openzeppelin/contracts/token/ERC20/ERC20.sol\":9375:10034  function _burn(address account, uint256 amount) internal virtual {... */\n      pop\n      pop\n      jump\t// out\n        /* \"@openzeppelin/contracts/token/ERC20/ERC20.sol\":8520:9055  function _mint(address account, uint256 amount) internal virtual {... */\n    tag_158:\n        /* \"@openzeppelin/contracts/token/ERC20/ERC20.sol\":8622:8623  0 */\n      0x00\n        /* \"@openzeppelin/contracts/token/ERC20/ERC20.sol\":8603:8624  account != address(0) */\n      0xffffffffffffffffffffffffffffffffffffffff\n      and\n        /* \"@openzeppelin/contracts/token/ERC20/ERC20.sol\":8603:8610  account */\n      dup3\n        /* \"@openzeppelin/contracts/token/ERC20/ERC20.sol\":8603:8624  account != address(0) */\n      0xffffffffffffffffffffffffffffffffffffffff\n      and\n      sub\n        /* \"@openzeppelin/contracts/token/ERC20/ERC20.sol\":8595:8660  require(account != address(0), \"ERC20: mint to the zero address\") */\n      tag_226\n      jumpi\n      mload(0x40)\n      0x08c379a000000000000000000000000000000000000000000000000000000000\n      dup2\n      mstore\n      0x04\n      add\n      tag_227\n      swap1\n      tag_228\n      jump\t// in\n    tag_227:\n      mload(0x40)\n      dup1\n      swap2\n      sub\n      swap1\n      revert\n    tag_226:\n        /* \"@openzeppelin/contracts/token/ERC20/ERC20.sol\":8671:8720  _beforeTokenTransfer(address(0), account, amount) */\n      tag_229\n        /* \"@openzeppelin/contracts/token/ERC20/ERC20.sol\":8700:8701  0 */\n      0x00\n        /* \"@openzeppelin/contracts/token/ERC20/ERC20.sol\":8704:8711  account */\n      dup4\n        /* \"@openzeppelin/contracts/token/ERC20/ERC20.sol\":8713:8719  amount */\n      dup4\n        /* \"@openzeppelin/contracts/token/ERC20/ERC20.sol\":8671:8691  _beforeTokenTransfer */\n      tag_208\n        /* \"@openzeppelin/contracts/token/ERC20/ERC20.sol\":8671:8720  _beforeTokenTransfer(address(0), account, amount) */\n      jump\t// in\n    tag_229:\n        /* \"@openzeppelin/contracts/token/ERC20/ERC20.sol\":8747:8753  amount */\n      dup1\n        /* \"@openzeppelin/contracts/token/ERC20/ERC20.sol\":8731:8743  _totalSupply */\n      0x02\n      0x00\n        /* \"@openzeppelin/contracts/token/ERC20/ERC20.sol\":8731:8753  _totalSupply += amount */\n      dup3\n      dup3\n      sload\n      tag_230\n      swap2\n      swap1\n      tag_127\n      jump\t// in\n    tag_230:\n      swap3\n      pop\n      pop\n      dup2\n      swap1\n      sstore\n      pop\n        /* \"@openzeppelin/contracts/token/ERC20/ERC20.sol\":8921:8927  amount */\n      dup1\n        /* \"@openzeppelin/contracts/token/ERC20/ERC20.sol\":8899:8908  _balances */\n      0x00\n        /* \"@openzeppelin/contracts/token/ERC20/ERC20.sol\":8899:8917  _balances[account] */\n      dup1\n        /* \"@openzeppelin/contracts/token/ERC20/ERC20.sol\":8909:8916  account */\n      dup5\n        /* \"@openzeppelin/contracts/token/ERC20/ERC20.sol\":8899:8917  _balances[account] */\n      0xffffffffffffffffffffffffffffffffffffffff\n      and\n      0xffffffffffffffffffffffffffffffffffffffff\n      and\n      dup2\n      mstore\n      0x20\n      add\n      swap1\n      dup2\n      mstore\n      0x20\n      add\n      0x00\n      keccak256\n      0x00\n        /* \"@openzeppelin/contracts/token/ERC20/ERC20.sol\":8899:8927  _balances[account] += amount */\n      dup3\n      dup3\n      sload\n      add\n      swap3\n      pop\n      pop\n      dup2\n      swap1\n      sstore\n      pop\n        /* \"@openzeppelin/contracts/token/ERC20/ERC20.sol\":8973:8980  account */\n      dup2\n        /* \"@openzeppelin/contracts/token/ERC20/ERC20.sol\":8952:8989  Transfer(address(0), account, amount) */\n      0xffffffffffffffffffffffffffffffffffffffff\n      and\n        /* \"@openzeppelin/contracts/token/ERC20/ERC20.sol\":8969:8970  0 */\n      0x00\n        /* \"@openzeppelin/contracts/token/ERC20/ERC20.sol\":8952:8989  Transfer(address(0), account, amount) */\n      0xffffffffffffffffffffffffffffffffffffffff\n      and\n      0xddf252ad1be2c89b69c2b068fc378daa952ba7f163c4a11628f55a4df523b3ef\n        /* \"@openzeppelin/contracts/token/ERC20/ERC20.sol\":8982:8988  amount */\n      dup4\n        /* \"@openzeppelin/contracts/token/ERC20/ERC20.sol\":8952:8989  Transfer(address(0), account, amount) */\n      mload(0x40)\n      tag_231\n      swap2\n      swap1\n      tag_38\n      jump\t// in\n    tag_231:\n      mload(0x40)\n      dup1\n      swap2\n      sub\n      swap1\n      log3\n        /* \"@openzeppelin/contracts/token/ERC20/ERC20.sol\":9000:9048  _afterTokenTransfer(address(0), account, amount) */\n      tag_232\n        /* \"@openzeppelin/contracts/token/ERC20/ERC20.sol\":9028:9029  0 */\n      0x00\n        /* \"@openzeppelin/contracts/token/ERC20/ERC20.sol\":9032:9039  account */\n      dup4\n        /* \"@openzeppelin/contracts/token/ERC20/ERC20.sol\":9041:9047  amount */\n      dup4\n        /* \"@openzeppelin/contracts/token/ERC20/ERC20.sol\":9000:9019  _afterTokenTransfer */\n      tag_214\n        /* \"@openzeppelin/contracts/token/ERC20/ERC20.sol\":9000:9048  _afterTokenTransfer(address(0), account, amount) */\n      jump\t// in\n    tag_232:\n        /* \"@openzeppelin/contracts/token/ERC20/ERC20.sol\":8520:9055  function _mint(address account, uint256 amount) internal virtual {... */\n      pop\n      pop\n      jump\t// out\n        /* \"@openzeppelin/contracts/utils/math/SafeMath.sol\":3465:3561  function mul(uint256 a, uint256 b) internal pure returns (uint256) {... */\n    tag_182:\n        /* \"@openzeppelin/contracts/utils/math/SafeMath.sol\":3523:3530  uint256 */\n      0x00\n        /* \"@openzeppelin/contracts/utils/math/SafeMath.sol\":3553:3554  b */\n      dup2\n        /* \"@openzeppelin/contracts/utils/math/SafeMath.sol\":3549:3550  a */\n      dup4\n        /* \"@openzeppelin/contracts/utils/math/SafeMath.sol\":3549:3554  a * b */\n      tag_234\n      swap2\n      swap1\n      tag_235\n      jump\t// in\n    tag_234:\n        /* \"@openzeppelin/contracts/utils/math/SafeMath.sol\":3542:3554  return a * b */\n      swap1\n      pop\n        /* \"@openzeppelin/contracts/utils/math/SafeMath.sol\":3465:3561  function mul(uint256 a, uint256 b) internal pure returns (uint256) {... */\n      swap3\n      swap2\n      pop\n      pop\n      jump\t// out\n        /* \"@openzeppelin/contracts/utils/math/SafeMath.sol\":3850:3946  function div(uint256 a, uint256 b) internal pure returns (uint256) {... */\n    tag_183:\n        /* \"@openzeppelin/contracts/utils/math/SafeMath.sol\":3908:3915  uint256 */\n      0x00\n        /* \"@openzeppelin/contracts/utils/math/SafeMath.sol\":3938:3939  b */\n      dup2\n        /* \"@openzeppelin/contracts/utils/math/SafeMath.sol\":3934:3935  a */\n      dup4\n        /* \"@openzeppelin/contracts/utils/math/SafeMath.sol\":3934:3939  a / b */\n      tag_237\n      swap2\n      swap1\n      tag_238\n      jump\t// in\n    tag_237:\n        /* \"@openzeppelin/contracts/utils/math/SafeMath.sol\":3927:3939  return a / b */\n      swap1\n      pop\n        /* \"@openzeppelin/contracts/utils/math/SafeMath.sol\":3850:3946  function div(uint256 a, uint256 b) internal pure returns (uint256) {... */\n      swap3\n      swap2\n      pop\n      pop\n      jump\t// out\n        /* \"@openzeppelin/contracts/token/ERC20/ERC20.sol\":12073:12164  function _beforeTokenTransfer(address from, address to, uint256 amount) internal virtual {} */\n    tag_208:\n      pop\n      pop\n      pop\n      jump\t// out\n        /* \"@openzeppelin/contracts/token/ERC20/ERC20.sol\":12752:12842  function _afterTokenTransfer(address from, address to, uint256 amount) internal virtual {} */\n    tag_214:\n      pop\n      pop\n      pop\n      jump\t// out\n        /* \"#utility.yul\":7:106   */\n    tag_241:\n        /* \"#utility.yul\":59:65   */\n      0x00\n        /* \"#utility.yul\":93:98   */\n      dup2\n        /* \"#utility.yul\":87:99   */\n      mload\n        /* \"#utility.yul\":77:99   */\n      swap1\n      pop\n        /* \"#utility.yul\":7:106   */\n      swap2\n      swap1\n      pop\n      jump\t// out\n        /* \"#utility.yul\":112:281   */\n    tag_242:\n        /* \"#utility.yul\":196:207   */\n      0x00\n        /* \"#utility.yul\":230:236   */\n      dup3\n        /* \"#utility.yul\":225:228   */\n      dup3\n        /* \"#utility.yul\":218:237   */\n      mstore\n        /* \"#utility.yul\":270:274   */\n      0x20\n        /* \"#utility.yul\":265:268   */\n      dup3\n        /* \"#utility.yul\":261:275   */\n      add\n        /* \"#utility.yul\":246:275   */\n      swap1\n      pop\n        /* \"#utility.yul\":112:281   */\n      swap3\n      swap2\n      pop\n      pop\n      jump\t// out\n        /* \"#utility.yul\":287:533   */\n    tag_243:\n        /* \"#utility.yul\":368:369   */\n      0x00\n        /* \"#utility.yul\":378:491   */\n    tag_309:\n        /* \"#utility.yul\":392:398   */\n      dup4\n        /* \"#utility.yul\":389:390   */\n      dup2\n        /* \"#utility.yul\":386:399   */\n      lt\n        /* \"#utility.yul\":378:491   */\n      iszero\n      tag_311\n      jumpi\n        /* \"#utility.yul\":477:478   */\n      dup1\n        /* \"#utility.yul\":472:475   */\n      dup3\n        /* \"#utility.yul\":468:479   */\n      add\n        /* \"#utility.yul\":462:480   */\n      mload\n        /* \"#utility.yul\":458:459   */\n      dup2\n        /* \"#utility.yul\":453:456   */\n      dup5\n        /* \"#utility.yul\":449:460   */\n      add\n        /* \"#utility.yul\":442:481   */\n      mstore\n        /* \"#utility.yul\":414:416   */\n      0x20\n        /* \"#utility.yul\":411:412   */\n      dup2\n        /* \"#utility.yul\":407:417   */\n      add\n        /* \"#utility.yul\":402:417   */\n      swap1\n      pop\n        /* \"#utility.yul\":378:491   */\n      jump(tag_309)\n    tag_311:\n        /* \"#utility.yul\":525:526   */\n      0x00\n        /* \"#utility.yul\":516:522   */\n      dup5\n        /* \"#utility.yul\":511:514   */\n      dup5\n        /* \"#utility.yul\":507:523   */\n      add\n        /* \"#utility.yul\":500:527   */\n      mstore\n        /* \"#utility.yul\":349:533   */\n      pop\n        /* \"#utility.yul\":287:533   */\n      pop\n      pop\n      pop\n      jump\t// out\n        /* \"#utility.yul\":539:641   */\n    tag_244:\n        /* \"#utility.yul\":580:586   */\n      0x00\n        /* \"#utility.yul\":631:633   */\n      0x1f\n        /* \"#utility.yul\":627:634   */\n      not\n        /* \"#utility.yul\":622:624   */\n      0x1f\n        /* \"#utility.yul\":615:620   */\n      dup4\n        /* \"#utility.yul\":611:625   */\n      add\n        /* \"#utility.yul\":607:635   */\n      and\n        /* \"#utility.yul\":597:635   */\n      swap1\n      pop\n        /* \"#utility.yul\":539:641   */\n      swap2\n      swap1\n      pop\n      jump\t// out\n        /* \"#utility.yul\":647:1024   */\n    tag_245:\n        /* \"#utility.yul\":735:738   */\n      0x00\n        /* \"#utility.yul\":763:802   */\n      tag_314\n        /* \"#utility.yul\":796:801   */\n      dup3\n        /* \"#utility.yul\":763:802   */\n      tag_241\n      jump\t// in\n    tag_314:\n        /* \"#utility.yul\":818:889   */\n      tag_315\n        /* \"#utility.yul\":882:888   */\n      dup2\n        /* \"#utility.yul\":877:880   */\n      dup6\n        /* \"#utility.yul\":818:889   */\n      tag_242\n      jump\t// in\n    tag_315:\n        /* \"#utility.yul\":811:889   */\n      swap4\n      pop\n        /* \"#utility.yul\":898:963   */\n      tag_316\n        /* \"#utility.yul\":956:962   */\n      dup2\n        /* \"#utility.yul\":951:954   */\n      dup6\n        /* \"#utility.yul\":944:948   */\n      0x20\n        /* \"#utility.yul\":937:942   */\n      dup7\n        /* \"#utility.yul\":933:949   */\n      add\n        /* \"#utility.yul\":898:963   */\n      tag_243\n      jump\t// in\n    tag_316:\n        /* \"#utility.yul\":988:1017   */\n      tag_317\n        /* \"#utility.yul\":1010:1016   */\n      dup2\n        /* \"#utility.yul\":988:1017   */\n      tag_244\n      jump\t// in\n    tag_317:\n        /* \"#utility.yul\":983:986   */\n      dup5\n        /* \"#utility.yul\":979:1018   */\n      add\n        /* \"#utility.yul\":972:1018   */\n      swap2\n      pop\n        /* \"#utility.yul\":739:1024   */\n      pop\n        /* \"#utility.yul\":647:1024   */\n      swap3\n      swap2\n      pop\n      pop\n      jump\t// out\n        /* \"#utility.yul\":1030:1343   */\n    tag_28:\n        /* \"#utility.yul\":1143:1147   */\n      0x00\n        /* \"#utility.yul\":1181:1183   */\n      0x20\n        /* \"#utility.yul\":1170:1179   */\n      dup3\n        /* \"#utility.yul\":1166:1184   */\n      add\n        /* \"#utility.yul\":1158:1184   */\n      swap1\n      pop\n        /* \"#utility.yul\":1230:1239   */\n      dup2\n        /* \"#utility.yul\":1224:1228   */\n      dup2\n        /* \"#utility.yul\":1220:1240   */\n      sub\n        /* \"#utility.yul\":1216:1217   */\n      0x00\n        /* \"#utility.yul\":1205:1214   */\n      dup4\n        /* \"#utility.yul\":1201:1218   */\n      add\n        /* \"#utility.yul\":1194:1241   */\n      mstore\n        /* \"#utility.yul\":1258:1336   */\n      tag_319\n        /* \"#utility.yul\":1331:1335   */\n      dup2\n        /* \"#utility.yul\":1322:1328   */\n      dup5\n        /* \"#utility.yul\":1258:1336   */\n      tag_245\n      jump\t// in\n    tag_319:\n        /* \"#utility.yul\":1250:1336   */\n      swap1\n      pop\n        /* \"#utility.yul\":1030:1343   */\n      swap3\n      swap2\n      pop\n      pop\n      jump\t// out\n        /* \"#utility.yul\":1430:1547   */\n    tag_247:\n        /* \"#utility.yul\":1539:1540   */\n      0x00\n        /* \"#utility.yul\":1536:1537   */\n      dup1\n        /* \"#utility.yul\":1529:1541   */\n      revert\n        /* \"#utility.yul\":1676:1802   */\n    tag_249:\n        /* \"#utility.yul\":1713:1720   */\n      0x00\n        /* \"#utility.yul\":1753:1795   */\n      0xffffffffffffffffffffffffffffffffffffffff\n        /* \"#utility.yul\":1746:1751   */\n      dup3\n        /* \"#utility.yul\":1742:1796   */\n      and\n        /* \"#utility.yul\":1731:1796   */\n      swap1\n      pop\n        /* \"#utility.yul\":1676:1802   */\n      swap2\n      swap1\n      pop\n      jump\t// out\n        /* \"#utility.yul\":1808:1904   */\n    tag_250:\n        /* \"#utility.yul\":1845:1852   */\n      0x00\n        /* \"#utility.yul\":1874:1898   */\n      tag_325\n        /* \"#utility.yul\":1892:1897   */\n      dup3\n        /* \"#utility.yul\":1874:1898   */\n      tag_249\n      jump\t// in\n    tag_325:\n        /* \"#utility.yul\":1863:1898   */\n      swap1\n      pop\n        /* \"#utility.yul\":1808:1904   */\n      swap2\n      swap1\n      pop\n      jump\t// out\n        /* \"#utility.yul\":1910:2032   */\n    tag_251:\n        /* \"#utility.yul\":1983:2007   */\n      tag_327\n        /* \"#utility.yul\":2001:2006   */\n      dup2\n        /* \"#utility.yul\":1983:2007   */\n      tag_250\n      jump\t// in\n    tag_327:\n        /* \"#utility.yul\":1976:1981   */\n      dup2\n        /* \"#utility.yul\":1973:2008   */\n      eq\n        /* \"#utility.yul\":1963:2026   */\n      tag_328\n      jumpi\n        /* \"#utility.yul\":2022:2023   */\n      0x00\n        /* \"#utility.yul\":2019:2020   */\n      dup1\n        /* \"#utility.yul\":2012:2024   */\n      revert\n        /* \"#utility.yul\":1963:2026   */\n    tag_328:\n        /* \"#utility.yul\":1910:2032   */\n      pop\n      jump\t// out\n        /* \"#utility.yul\":2038:2177   */\n    tag_252:\n        /* \"#utility.yul\":2084:2089   */\n      0x00\n        /* \"#utility.yul\":2122:2128   */\n      dup2\n        /* \"#utility.yul\":2109:2129   */\n      calldataload\n        /* \"#utility.yul\":2100:2129   */\n      swap1\n      pop\n        /* \"#utility.yul\":2138:2171   */\n      tag_330\n        /* \"#utility.yul\":2165:2170   */\n      dup2\n        /* \"#utility.yul\":2138:2171   */\n      tag_251\n      jump\t// in\n    tag_330:\n        /* \"#utility.yul\":2038:2177   */\n      swap3\n      swap2\n      pop\n      pop\n      jump\t// out\n        /* \"#utility.yul\":2183:2260   */\n    tag_253:\n        /* \"#utility.yul\":2220:2227   */\n      0x00\n        /* \"#utility.yul\":2249:2254   */\n      dup2\n        /* \"#utility.yul\":2238:2254   */\n      swap1\n      pop\n        /* \"#utility.yul\":2183:2260   */\n      swap2\n      swap1\n      pop\n      jump\t// out\n        /* \"#utility.yul\":2266:2388   */\n    tag_254:\n        /* \"#utility.yul\":2339:2363   */\n      tag_333\n        /* \"#utility.yul\":2357:2362   */\n      dup2\n        /* \"#utility.yul\":2339:2363   */\n      tag_253\n      jump\t// in\n    tag_333:\n        /* \"#utility.yul\":2332:2337   */\n      dup2\n        /* \"#utility.yul\":2329:2364   */\n      eq\n        /* \"#utility.yul\":2319:2382   */\n      tag_334\n      jumpi\n        /* \"#utility.yul\":2378:2379   */\n      0x00\n        /* \"#utility.yul\":2375:2376   */\n      dup1\n        /* \"#utility.yul\":2368:2380   */\n      revert\n        /* \"#utility.yul\":2319:2382   */\n    tag_334:\n        /* \"#utility.yul\":2266:2388   */\n      pop\n      jump\t// out\n        /* \"#utility.yul\":2394:2533   */\n    tag_255:\n        /* \"#utility.yul\":2440:2445   */\n      0x00\n        /* \"#utility.yul\":2478:2484   */\n      dup2\n        /* \"#utility.yul\":2465:2485   */\n      calldataload\n        /* \"#utility.yul\":2456:2485   */\n      swap1\n      pop\n        /* \"#utility.yul\":2494:2527   */\n      tag_336\n        /* \"#utility.yul\":2521:2526   */\n      dup2\n        /* \"#utility.yul\":2494:2527   */\n      tag_254\n      jump\t// in\n    tag_336:\n        /* \"#utility.yul\":2394:2533   */\n      swap3\n      swap2\n      pop\n      pop\n      jump\t// out\n        /* \"#utility.yul\":2539:3013   */\n    tag_31:\n        /* \"#utility.yul\":2607:2613   */\n      0x00\n        /* \"#utility.yul\":2615:2621   */\n      dup1\n        /* \"#utility.yul\":2664:2666   */\n      0x40\n        /* \"#utility.yul\":2652:2661   */\n      dup4\n        /* \"#utility.yul\":2643:2650   */\n      dup6\n        /* \"#utility.yul\":2639:2662   */\n      sub\n        /* \"#utility.yul\":2635:2667   */\n      slt\n        /* \"#utility.yul\":2632:2751   */\n      iszero\n      tag_338\n      jumpi\n        /* \"#utility.yul\":2670:2749   */\n      tag_339\n      tag_247\n      jump\t// in\n    tag_339:\n        /* \"#utility.yul\":2632:2751   */\n    tag_338:\n        /* \"#utility.yul\":2790:2791   */\n      0x00\n        /* \"#utility.yul\":2815:2868   */\n      tag_340\n        /* \"#utility.yul\":2860:2867   */\n      dup6\n        /* \"#utility.yul\":2851:2857   */\n      dup3\n        /* \"#utility.yul\":2840:2849   */\n      dup7\n        /* \"#utility.yul\":2836:2858   */\n      add\n        /* \"#utility.yul\":2815:2868   */\n      tag_252\n      jump\t// in\n    tag_340:\n        /* \"#utility.yul\":2805:2868   */\n      swap3\n      pop\n        /* \"#utility.yul\":2761:2878   */\n      pop\n        /* \"#utility.yul\":2917:2919   */\n      0x20\n        /* \"#utility.yul\":2943:2996   */\n      tag_341\n        /* \"#utility.yul\":2988:2995   */\n      dup6\n        /* \"#utility.yul\":2979:2985   */\n      dup3\n        /* \"#utility.yul\":2968:2977   */\n      dup7\n        /* \"#utility.yul\":2964:2986   */\n      add\n        /* \"#utility.yul\":2943:2996   */\n      tag_255\n      jump\t// in\n    tag_341:\n        /* \"#utility.yul\":2933:2996   */\n      swap2\n      pop\n        /* \"#utility.yul\":2888:3006   */\n      pop\n        /* \"#utility.yul\":2539:3013   */\n      swap3\n      pop\n      swap3\n      swap1\n      pop\n      jump\t// out\n        /* \"#utility.yul\":3019:3109   */\n    tag_256:\n        /* \"#utility.yul\":3053:3060   */\n      0x00\n        /* \"#utility.yul\":3096:3101   */\n      dup2\n        /* \"#utility.yul\":3089:3102   */\n      iszero\n        /* \"#utility.yul\":3082:3103   */\n      iszero\n        /* \"#utility.yul\":3071:3103   */\n      swap1\n      pop\n        /* \"#utility.yul\":3019:3109   */\n      swap2\n      swap1\n      pop\n      jump\t// out\n        /* \"#utility.yul\":3115:3224   */\n    tag_257:\n        /* \"#utility.yul\":3196:3217   */\n      tag_344\n        /* \"#utility.yul\":3211:3216   */\n      dup2\n        /* \"#utility.yul\":3196:3217   */\n      tag_256\n      jump\t// in\n    tag_344:\n        /* \"#utility.yul\":3191:3194   */\n      dup3\n        /* \"#utility.yul\":3184:3218   */\n      mstore\n        /* \"#utility.yul\":3115:3224   */\n      pop\n      pop\n      jump\t// out\n        /* \"#utility.yul\":3230:3440   */\n    tag_34:\n        /* \"#utility.yul\":3317:3321   */\n      0x00\n        /* \"#utility.yul\":3355:3357   */\n      0x20\n        /* \"#utility.yul\":3344:3353   */\n      dup3\n        /* \"#utility.yul\":3340:3358   */\n      add\n        /* \"#utility.yul\":3332:3358   */\n      swap1\n      pop\n        /* \"#utility.yul\":3368:3433   */\n      tag_346\n        /* \"#utility.yul\":3430:3431   */\n      0x00\n        /* \"#utility.yul\":3419:3428   */\n      dup4\n        /* \"#utility.yul\":3415:3432   */\n      add\n        /* \"#utility.yul\":3406:3412   */\n      dup5\n        /* \"#utility.yul\":3368:3433   */\n      tag_257\n      jump\t// in\n    tag_346:\n        /* \"#utility.yul\":3230:3440   */\n      swap3\n      swap2\n      pop\n      pop\n      jump\t// out\n        /* \"#utility.yul\":3446:3564   */\n    tag_258:\n        /* \"#utility.yul\":3533:3557   */\n      tag_348\n        /* \"#utility.yul\":3551:3556   */\n      dup2\n        /* \"#utility.yul\":3533:3557   */\n      tag_253\n      jump\t// in\n    tag_348:\n        /* \"#utility.yul\":3528:3531   */\n      dup3\n        /* \"#utility.yul\":3521:3558   */\n      mstore\n        /* \"#utility.yul\":3446:3564   */\n      pop\n      pop\n      jump\t// out\n        /* \"#utility.yul\":3570:3792   */\n    tag_38:\n        /* \"#utility.yul\":3663:3667   */\n      0x00\n        /* \"#utility.yul\":3701:3703   */\n      0x20\n        /* \"#utility.yul\":3690:3699   */\n      dup3\n        /* \"#utility.yul\":3686:3704   */\n      add\n        /* \"#utility.yul\":3678:3704   */\n      swap1\n      pop\n        /* \"#utility.yul\":3714:3785   */\n      tag_350\n        /* \"#utility.yul\":3782:3783   */\n      0x00\n        /* \"#utility.yul\":3771:3780   */\n      dup4\n        /* \"#utility.yul\":3767:3784   */\n      add\n        /* \"#utility.yul\":3758:3764   */\n      dup5\n        /* \"#utility.yul\":3714:3785   */\n      tag_258\n      jump\t// in\n    tag_350:\n        /* \"#utility.yul\":3570:3792   */\n      swap3\n      swap2\n      pop\n      pop\n      jump\t// out\n        /* \"#utility.yul\":3798:4417   */\n    tag_44:\n        /* \"#utility.yul\":3875:3881   */\n      0x00\n        /* \"#utility.yul\":3883:3889   */\n      dup1\n        /* \"#utility.yul\":3891:3897   */\n      0x00\n        /* \"#utility.yul\":3940:3942   */\n      0x60\n        /* \"#utility.yul\":3928:3937   */\n      dup5\n        /* \"#utility.yul\":3919:3926   */\n      dup7\n        /* \"#utility.yul\":3915:3938   */\n      sub\n        /* \"#utility.yul\":3911:3943   */\n      slt\n        /* \"#utility.yul\":3908:4027   */\n      iszero\n      tag_352\n      jumpi\n        /* \"#utility.yul\":3946:4025   */\n      tag_353\n      tag_247\n      jump\t// in\n    tag_353:\n        /* \"#utility.yul\":3908:4027   */\n    tag_352:\n        /* \"#utility.yul\":4066:4067   */\n      0x00\n        /* \"#utility.yul\":4091:4144   */\n      tag_354\n        /* \"#utility.yul\":4136:4143   */\n      dup7\n        /* \"#utility.yul\":4127:4133   */\n      dup3\n        /* \"#utility.yul\":4116:4125   */\n      dup8\n        /* \"#utility.yul\":4112:4134   */\n      add\n        /* \"#utility.yul\":4091:4144   */\n      tag_252\n      jump\t// in\n    tag_354:\n        /* \"#utility.yul\":4081:4144   */\n      swap4\n      pop\n        /* \"#utility.yul\":4037:4154   */\n      pop\n        /* \"#utility.yul\":4193:4195   */\n      0x20\n        /* \"#utility.yul\":4219:4272   */\n      tag_355\n        /* \"#utility.yul\":4264:4271   */\n      dup7\n        /* \"#utility.yul\":4255:4261   */\n      dup3\n        /* \"#utility.yul\":4244:4253   */\n      dup8\n        /* \"#utility.yul\":4240:4262   */\n      add\n        /* \"#utility.yul\":4219:4272   */\n      tag_252\n      jump\t// in\n    tag_355:\n        /* \"#utility.yul\":4209:4272   */\n      swap3\n      pop\n        /* \"#utility.yul\":4164:4282   */\n      pop\n        /* \"#utility.yul\":4321:4323   */\n      0x40\n        /* \"#utility.yul\":4347:4400   */\n      tag_356\n        /* \"#utility.yul\":4392:4399   */\n      dup7\n        /* \"#utility.yul\":4383:4389   */\n      dup3\n        /* \"#utility.yul\":4372:4381   */\n      dup8\n        /* \"#utility.yul\":4368:4390   */\n      add\n        /* \"#utility.yul\":4347:4400   */\n      tag_255\n      jump\t// in\n    tag_356:\n        /* \"#utility.yul\":4337:4400   */\n      swap2\n      pop\n        /* \"#utility.yul\":4292:4410   */\n      pop\n        /* \"#utility.yul\":3798:4417   */\n      swap3\n      pop\n      swap3\n      pop\n      swap3\n      jump\t// out\n        /* \"#utility.yul\":4423:4509   */\n    tag_259:\n        /* \"#utility.yul\":4458:4465   */\n      0x00\n        /* \"#utility.yul\":4498:4502   */\n      0xff\n        /* \"#utility.yul\":4491:4496   */\n      dup3\n        /* \"#utility.yul\":4487:4503   */\n      and\n        /* \"#utility.yul\":4476:4503   */\n      swap1\n      pop\n        /* \"#utility.yul\":4423:4509   */\n      swap2\n      swap1\n      pop\n      jump\t// out\n        /* \"#utility.yul\":4515:4627   */\n    tag_260:\n        /* \"#utility.yul\":4598:4620   */\n      tag_359\n        /* \"#utility.yul\":4614:4619   */\n      dup2\n        /* \"#utility.yul\":4598:4620   */\n      tag_259\n      jump\t// in\n    tag_359:\n        /* \"#utility.yul\":4593:4596   */\n      dup3\n        /* \"#utility.yul\":4586:4621   */\n      mstore\n        /* \"#utility.yul\":4515:4627   */\n      pop\n      pop\n      jump\t// out\n        /* \"#utility.yul\":4633:4847   */\n    tag_50:\n        /* \"#utility.yul\":4722:4726   */\n      0x00\n        /* \"#utility.yul\":4760:4762   */\n      0x20\n        /* \"#utility.yul\":4749:4758   */\n      dup3\n        /* \"#utility.yul\":4745:4763   */\n      add\n        /* \"#utility.yul\":4737:4763   */\n      swap1\n      pop\n        /* \"#utility.yul\":4773:4840   */\n      tag_361\n        /* \"#utility.yul\":4837:4838   */\n      0x00\n        /* \"#utility.yul\":4826:4835   */\n      dup4\n        /* \"#utility.yul\":4822:4839   */\n      add\n        /* \"#utility.yul\":4813:4819   */\n      dup5\n        /* \"#utility.yul\":4773:4840   */\n      tag_260\n      jump\t// in\n    tag_361:\n        /* \"#utility.yul\":4633:4847   */\n      swap3\n      swap2\n      pop\n      pop\n      jump\t// out\n        /* \"#utility.yul\":4853:5182   */\n    tag_57:\n        /* \"#utility.yul\":4912:4918   */\n      0x00\n        /* \"#utility.yul\":4961:4963   */\n      0x20\n        /* \"#utility.yul\":4949:4958   */\n      dup3\n        /* \"#utility.yul\":4940:4947   */\n      dup5\n        /* \"#utility.yul\":4936:4959   */\n      sub\n        /* \"#utility.yul\":4932:4964   */\n      slt\n        /* \"#utility.yul\":4929:5048   */\n      iszero\n      tag_363\n      jumpi\n        /* \"#utility.yul\":4967:5046   */\n      tag_364\n      tag_247\n      jump\t// in\n    tag_364:\n        /* \"#utility.yul\":4929:5048   */\n    tag_363:\n        /* \"#utility.yul\":5087:5088   */\n      0x00\n        /* \"#utility.yul\":5112:5165   */\n      tag_365\n        /* \"#utility.yul\":5157:5164   */\n      dup5\n        /* \"#utility.yul\":5148:5154   */\n      dup3\n        /* \"#utility.yul\":5137:5146   */\n      dup6\n        /* \"#utility.yul\":5133:5155   */\n      add\n        /* \"#utility.yul\":5112:5165   */\n      tag_255\n      jump\t// in\n    tag_365:\n        /* \"#utility.yul\":5102:5165   */\n      swap2\n      pop\n        /* \"#utility.yul\":5058:5175   */\n      pop\n        /* \"#utility.yul\":4853:5182   */\n      swap3\n      swap2\n      pop\n      pop\n      jump\t// out\n        /* \"#utility.yul\":5188:5517   */\n    tag_61:\n        /* \"#utility.yul\":5247:5253   */\n      0x00\n        /* \"#utility.yul\":5296:5298   */\n      0x20\n        /* \"#utility.yul\":5284:5293   */\n      dup3\n        /* \"#utility.yul\":5275:5282   */\n      dup5\n        /* \"#utility.yul\":5271:5294   */\n      sub\n        /* \"#utility.yul\":5267:5299   */\n      slt\n        /* \"#utility.yul\":5264:5383   */\n      iszero\n      tag_367\n      jumpi\n        /* \"#utility.yul\":5302:5381   */\n      tag_368\n      tag_247\n      jump\t// in\n    tag_368:\n        /* \"#utility.yul\":5264:5383   */\n    tag_367:\n        /* \"#utility.yul\":5422:5423   */\n      0x00\n        /* \"#utility.yul\":5447:5500   */\n      tag_369\n        /* \"#utility.yul\":5492:5499   */\n      dup5\n        /* \"#utility.yul\":5483:5489   */\n      dup3\n        /* \"#utility.yul\":5472:5481   */\n      dup6\n        /* \"#utility.yul\":5468:5490   */\n      add\n        /* \"#utility.yul\":5447:5500   */\n      tag_252\n      jump\t// in\n    tag_369:\n        /* \"#utility.yul\":5437:5500   */\n      swap2\n      pop\n        /* \"#utility.yul\":5393:5510   */\n      pop\n        /* \"#utility.yul\":5188:5517   */\n      swap3\n      swap2\n      pop\n      pop\n      jump\t// out\n        /* \"#utility.yul\":5523:5583   */\n    tag_261:\n        /* \"#utility.yul\":5551:5554   */\n      0x00\n        /* \"#utility.yul\":5572:5577   */\n      dup2\n        /* \"#utility.yul\":5565:5577   */\n      swap1\n      pop\n        /* \"#utility.yul\":5523:5583   */\n      swap2\n      swap1\n      pop\n      jump\t// out\n        /* \"#utility.yul\":5589:5731   */\n    tag_262:\n        /* \"#utility.yul\":5639:5648   */\n      0x00\n        /* \"#utility.yul\":5672:5725   */\n      tag_372\n        /* \"#utility.yul\":5690:5724   */\n      tag_373\n        /* \"#utility.yul\":5699:5723   */\n      tag_374\n        /* \"#utility.yul\":5717:5722   */\n      dup5\n        /* \"#utility.yul\":5699:5723   */\n      tag_249\n      jump\t// in\n    tag_374:\n        /* \"#utility.yul\":5690:5724   */\n      tag_261\n      jump\t// in\n    tag_373:\n        /* \"#utility.yul\":5672:5725   */\n      tag_249\n      jump\t// in\n    tag_372:\n        /* \"#utility.yul\":5659:5725   */\n      swap1\n      pop\n        /* \"#utility.yul\":5589:5731   */\n      swap2\n      swap1\n      pop\n      jump\t// out\n        /* \"#utility.yul\":5737:5863   */\n    tag_263:\n        /* \"#utility.yul\":5787:5796   */\n      0x00\n        /* \"#utility.yul\":5820:5857   */\n      tag_376\n        /* \"#utility.yul\":5851:5856   */\n      dup3\n        /* \"#utility.yul\":5820:5857   */\n      tag_262\n      jump\t// in\n    tag_376:\n        /* \"#utility.yul\":5807:5857   */\n      swap1\n      pop\n        /* \"#utility.yul\":5737:5863   */\n      swap2\n      swap1\n      pop\n      jump\t// out\n        /* \"#utility.yul\":5869:6023   */\n    tag_264:\n        /* \"#utility.yul\":5947:5956   */\n      0x00\n        /* \"#utility.yul\":5980:6017   */\n      tag_378\n        /* \"#utility.yul\":6011:6016   */\n      dup3\n        /* \"#utility.yul\":5980:6017   */\n      tag_263\n      jump\t// in\n    tag_378:\n        /* \"#utility.yul\":5967:6017   */\n      swap1\n      pop\n        /* \"#utility.yul\":5869:6023   */\n      swap2\n      swap1\n      pop\n      jump\t// out\n        /* \"#utility.yul\":6029:6216   */\n    tag_265:\n        /* \"#utility.yul\":6144:6209   */\n      tag_380\n        /* \"#utility.yul\":6203:6208   */\n      dup2\n        /* \"#utility.yul\":6144:6209   */\n      tag_264\n      jump\t// in\n    tag_380:\n        /* \"#utility.yul\":6139:6142   */\n      dup3\n        /* \"#utility.yul\":6132:6210   */\n      mstore\n        /* \"#utility.yul\":6029:6216   */\n      pop\n      pop\n      jump\t// out\n        /* \"#utility.yul\":6222:6500   */\n    tag_67:\n        /* \"#utility.yul\":6343:6347   */\n      0x00\n        /* \"#utility.yul\":6381:6383   */\n      0x20\n        /* \"#utility.yul\":6370:6379   */\n      dup3\n        /* \"#utility.yul\":6366:6384   */\n      add\n        /* \"#utility.yul\":6358:6384   */\n      swap1\n      pop\n        /* \"#utility.yul\":6394:6493   */\n      tag_382\n        /* \"#utility.yul\":6490:6491   */\n      0x00\n        /* \"#utility.yul\":6479:6488   */\n      dup4\n        /* \"#utility.yul\":6475:6492   */\n      add\n        /* \"#utility.yul\":6466:6472   */\n      dup5\n        /* \"#utility.yul\":6394:6493   */\n      tag_265\n      jump\t// in\n    tag_382:\n        /* \"#utility.yul\":6222:6500   */\n      swap3\n      swap2\n      pop\n      pop\n      jump\t// out\n        /* \"#utility.yul\":6506:6646   */\n    tag_266:\n        /* \"#utility.yul\":6570:6579   */\n      0x00\n        /* \"#utility.yul\":6603:6640   */\n      tag_384\n        /* \"#utility.yul\":6634:6639   */\n      dup3\n        /* \"#utility.yul\":6603:6640   */\n      tag_263\n      jump\t// in\n    tag_384:\n        /* \"#utility.yul\":6590:6640   */\n      swap1\n      pop\n        /* \"#utility.yul\":6506:6646   */\n      swap2\n      swap1\n      pop\n      jump\t// out\n        /* \"#utility.yul\":6652:6811   */\n    tag_267:\n        /* \"#utility.yul\":6753:6804   */\n      tag_386\n        /* \"#utility.yul\":6798:6803   */\n      dup2\n        /* \"#utility.yul\":6753:6804   */\n      tag_266\n      jump\t// in\n    tag_386:\n        /* \"#utility.yul\":6748:6751   */\n      dup3\n        /* \"#utility.yul\":6741:6805   */\n      mstore\n        /* \"#utility.yul\":6652:6811   */\n      pop\n      pop\n      jump\t// out\n        /* \"#utility.yul\":6817:7067   */\n    tag_85:\n        /* \"#utility.yul\":6924:6928   */\n      0x00\n        /* \"#utility.yul\":6962:6964   */\n      0x20\n        /* \"#utility.yul\":6951:6960   */\n      dup3\n        /* \"#utility.yul\":6947:6965   */\n      add\n        /* \"#utility.yul\":6939:6965   */\n      swap1\n      pop\n        /* \"#utility.yul\":6975:7060   */\n      tag_388\n        /* \"#utility.yul\":7057:7058   */\n      0x00\n        /* \"#utility.yul\":7046:7055   */\n      dup4\n        /* \"#utility.yul\":7042:7059   */\n      add\n        /* \"#utility.yul\":7033:7039   */\n      dup5\n        /* \"#utility.yul\":6975:7060   */\n      tag_267\n      jump\t// in\n    tag_388:\n        /* \"#utility.yul\":6817:7067   */\n      swap3\n      swap2\n      pop\n      pop\n      jump\t// out\n        /* \"#utility.yul\":7073:7547   */\n    tag_88:\n        /* \"#utility.yul\":7141:7147   */\n      0x00\n        /* \"#utility.yul\":7149:7155   */\n      dup1\n        /* \"#utility.yul\":7198:7200   */\n      0x40\n        /* \"#utility.yul\":7186:7195   */\n      dup4\n        /* \"#utility.yul\":7177:7184   */\n      dup6\n        /* \"#utility.yul\":7173:7196   */\n      sub\n        /* \"#utility.yul\":7169:7201   */\n      slt\n        /* \"#utility.yul\":7166:7285   */\n      iszero\n      tag_390\n      jumpi\n        /* \"#utility.yul\":7204:7283   */\n      tag_391\n      tag_247\n      jump\t// in\n    tag_391:\n        /* \"#utility.yul\":7166:7285   */\n    tag_390:\n        /* \"#utility.yul\":7324:7325   */\n      0x00\n        /* \"#utility.yul\":7349:7402   */\n      tag_392\n        /* \"#utility.yul\":7394:7401   */\n      dup6\n        /* \"#utility.yul\":7385:7391   */\n      dup3\n        /* \"#utility.yul\":7374:7383   */\n      dup7\n        /* \"#utility.yul\":7370:7392   */\n      add\n        /* \"#utility.yul\":7349:7402   */\n      tag_252\n      jump\t// in\n    tag_392:\n        /* \"#utility.yul\":7339:7402   */\n      swap3\n      pop\n        /* \"#utility.yul\":7295:7412   */\n      pop\n        /* \"#utility.yul\":7451:7453   */\n      0x20\n        /* \"#utility.yul\":7477:7530   */\n      tag_393\n        /* \"#utility.yul\":7522:7529   */\n      dup6\n        /* \"#utility.yul\":7513:7519   */\n      dup3\n        /* \"#utility.yul\":7502:7511   */\n      dup7\n        /* \"#utility.yul\":7498:7520   */\n      add\n        /* \"#utility.yul\":7477:7530   */\n      tag_252\n      jump\t// in\n    tag_393:\n        /* \"#utility.yul\":7467:7530   */\n      swap2\n      pop\n        /* \"#utility.yul\":7422:7540   */\n      pop\n        /* \"#utility.yul\":7073:7547   */\n      swap3\n      pop\n      swap3\n      swap1\n      pop\n      jump\t// out\n        /* \"#utility.yul\":7553:7671   */\n    tag_268:\n        /* \"#utility.yul\":7640:7664   */\n      tag_395\n        /* \"#utility.yul\":7658:7663   */\n      dup2\n        /* \"#utility.yul\":7640:7664   */\n      tag_250\n      jump\t// in\n    tag_395:\n        /* \"#utility.yul\":7635:7638   */\n      dup3\n        /* \"#utility.yul\":7628:7665   */\n      mstore\n        /* \"#utility.yul\":7553:7671   */\n      pop\n      pop\n      jump\t// out\n        /* \"#utility.yul\":7677:7899   */\n    tag_101:\n        /* \"#utility.yul\":7770:7774   */\n      0x00\n        /* \"#utility.yul\":7808:7810   */\n      0x20\n        /* \"#utility.yul\":7797:7806   */\n      dup3\n        /* \"#utility.yul\":7793:7811   */\n      add\n        /* \"#utility.yul\":7785:7811   */\n      swap1\n      pop\n        /* \"#utility.yul\":7821:7892   */\n      tag_397\n        /* \"#utility.yul\":7889:7890   */\n      0x00\n        /* \"#utility.yul\":7878:7887   */\n      dup4\n        /* \"#utility.yul\":7874:7891   */\n      add\n        /* \"#utility.yul\":7865:7871   */\n      dup5\n        /* \"#utility.yul\":7821:7892   */\n      tag_268\n      jump\t// in\n    tag_397:\n        /* \"#utility.yul\":7677:7899   */\n      swap3\n      swap2\n      pop\n      pop\n      jump\t// out\n        /* \"#utility.yul\":7905:8085   */\n    tag_269:\n        /* \"#utility.yul\":7953:8030   */\n      0x4e487b7100000000000000000000000000000000000000000000000000000000\n        /* \"#utility.yul\":7950:7951   */\n      0x00\n        /* \"#utility.yul\":7943:8031   */\n      mstore\n        /* \"#utility.yul\":8050:8054   */\n      0x22\n        /* \"#utility.yul\":8047:8048   */\n      0x04\n        /* \"#utility.yul\":8040:8055   */\n      mstore\n        /* \"#utility.yul\":8074:8078   */\n      0x24\n        /* \"#utility.yul\":8071:8072   */\n      0x00\n        /* \"#utility.yul\":8064:8079   */\n      revert\n        /* \"#utility.yul\":8091:8411   */\n    tag_104:\n        /* \"#utility.yul\":8135:8141   */\n      0x00\n        /* \"#utility.yul\":8172:8173   */\n      0x02\n        /* \"#utility.yul\":8166:8170   */\n      dup3\n        /* \"#utility.yul\":8162:8174   */\n      div\n        /* \"#utility.yul\":8152:8174   */\n      swap1\n      pop\n        /* \"#utility.yul\":8219:8220   */\n      0x01\n        /* \"#utility.yul\":8213:8217   */\n      dup3\n        /* \"#utility.yul\":8209:8221   */\n      and\n        /* \"#utility.yul\":8240:8258   */\n      dup1\n        /* \"#utility.yul\":8230:8311   */\n      tag_400\n      jumpi\n        /* \"#utility.yul\":8296:8300   */\n      0x7f\n        /* \"#utility.yul\":8288:8294   */\n      dup3\n        /* \"#utility.yul\":8284:8301   */\n      and\n        /* \"#utility.yul\":8274:8301   */\n      swap2\n      pop\n        /* \"#utility.yul\":8230:8311   */\n    tag_400:\n        /* \"#utility.yul\":8358:8360   */\n      0x20\n        /* \"#utility.yul\":8350:8356   */\n      dup3\n        /* \"#utility.yul\":8347:8361   */\n      lt\n        /* \"#utility.yul\":8327:8345   */\n      dup2\n        /* \"#utility.yul\":8324:8362   */\n      sub\n        /* \"#utility.yul\":8321:8405   */\n      tag_401\n      jumpi\n        /* \"#utility.yul\":8377:8395   */\n      tag_402\n      tag_269\n      jump\t// in\n    tag_402:\n        /* \"#utility.yul\":8321:8405   */\n    tag_401:\n        /* \"#utility.yul\":8142:8411   */\n      pop\n        /* \"#utility.yul\":8091:8411   */\n      swap2\n      swap1\n      pop\n      jump\t// out\n        /* \"#utility.yul\":8417:8597   */\n    tag_270:\n        /* \"#utility.yul\":8465:8542   */\n      0x4e487b7100000000000000000000000000000000000000000000000000000000\n        /* \"#utility.yul\":8462:8463   */\n      0x00\n        /* \"#utility.yul\":8455:8543   */\n      mstore\n        /* \"#utility.yul\":8562:8566   */\n      0x11\n        /* \"#utility.yul\":8559:8560   */\n      0x04\n        /* \"#utility.yul\":8552:8567   */\n      mstore\n        /* \"#utility.yul\":8586:8590   */\n      0x24\n        /* \"#utility.yul\":8583:8584   */\n      0x00\n        /* \"#utility.yul\":8576:8591   */\n      revert\n        /* \"#utility.yul\":8603:8794   */\n    tag_127:\n        /* \"#utility.yul\":8643:8646   */\n      0x00\n        /* \"#utility.yul\":8662:8682   */\n      tag_405\n        /* \"#utility.yul\":8680:8681   */\n      dup3\n        /* \"#utility.yul\":8662:8682   */\n      tag_253\n      jump\t// in\n    tag_405:\n        /* \"#utility.yul\":8657:8682   */\n      swap2\n      pop\n        /* \"#utility.yul\":8696:8716   */\n      tag_406\n        /* \"#utility.yul\":8714:8715   */\n      dup4\n        /* \"#utility.yul\":8696:8716   */\n      tag_253\n      jump\t// in\n    tag_406:\n        /* \"#utility.yul\":8691:8716   */\n      swap3\n      pop\n        /* \"#utility.yul\":8739:8740   */\n      dup3\n        /* \"#utility.yul\":8736:8737   */\n      dup3\n        /* \"#utility.yul\":8732:8741   */\n      add\n        /* \"#utility.yul\":8725:8741   */\n      swap1\n      pop\n        /* \"#utility.yul\":8760:8763   */\n      dup1\n        /* \"#utility.yul\":8757:8758   */\n      dup3\n        /* \"#utility.yul\":8754:8764   */\n      gt\n        /* \"#utility.yul\":8751:8787   */\n      iszero\n      tag_407\n      jumpi\n        /* \"#utility.yul\":8767:8785   */\n      tag_408\n      tag_270\n      jump\t// in\n    tag_408:\n        /* \"#utility.yul\":8751:8787   */\n    tag_407:\n        /* \"#utility.yul\":8603:8794   */\n      swap3\n      swap2\n      pop\n      pop\n      jump\t// out\n        /* \"#utility.yul\":8800:8975   */\n    tag_271:\n        /* \"#utility.yul\":8940:8967   */\n      0x496e76616c696420737461626c65636f696e20616d6f756e7400000000000000\n        /* \"#utility.yul\":8936:8937   */\n      0x00\n        /* \"#utility.yul\":8928:8934   */\n      dup3\n        /* \"#utility.yul\":8924:8938   */\n      add\n        /* \"#utility.yul\":8917:8968   */\n      mstore\n        /* \"#utility.yul\":8800:8975   */\n      pop\n      jump\t// out\n        /* \"#utility.yul\":8981:9347   */\n    tag_272:\n        /* \"#utility.yul\":9123:9126   */\n      0x00\n        /* \"#utility.yul\":9144:9211   */\n      tag_411\n        /* \"#utility.yul\":9208:9210   */\n      0x19\n        /* \"#utility.yul\":9203:9206   */\n      dup4\n        /* \"#utility.yul\":9144:9211   */\n      tag_242\n      jump\t// in\n    tag_411:\n        /* \"#utility.yul\":9137:9211   */\n      swap2\n      pop\n        /* \"#utility.yul\":9220:9313   */\n      tag_412\n        /* \"#utility.yul\":9309:9312   */\n      dup3\n        /* \"#utility.yul\":9220:9313   */\n      tag_271\n      jump\t// in\n    tag_412:\n        /* \"#utility.yul\":9338:9340   */\n      0x20\n        /* \"#utility.yul\":9333:9336   */\n      dup3\n        /* \"#utility.yul\":9329:9341   */\n      add\n        /* \"#utility.yul\":9322:9341   */\n      swap1\n      pop\n        /* \"#utility.yul\":8981:9347   */\n      swap2\n      swap1\n      pop\n      jump\t// out\n        /* \"#utility.yul\":9353:9772   */\n    tag_131:\n        /* \"#utility.yul\":9519:9523   */\n      0x00\n        /* \"#utility.yul\":9557:9559   */\n      0x20\n        /* \"#utility.yul\":9546:9555   */\n      dup3\n        /* \"#utility.yul\":9542:9560   */\n      add\n        /* \"#utility.yul\":9534:9560   */\n      swap1\n      pop\n        /* \"#utility.yul\":9606:9615   */\n      dup2\n        /* \"#utility.yul\":9600:9604   */\n      dup2\n        /* \"#utility.yul\":9596:9616   */\n      sub\n        /* \"#utility.yul\":9592:9593   */\n      0x00\n        /* \"#utility.yul\":9581:9590   */\n      dup4\n        /* \"#utility.yul\":9577:9594   */\n      add\n        /* \"#utility.yul\":9570:9617   */\n      mstore\n        /* \"#utility.yul\":9634:9765   */\n      tag_414\n        /* \"#utility.yul\":9760:9764   */\n      dup2\n        /* \"#utility.yul\":9634:9765   */\n      tag_272\n      jump\t// in\n    tag_414:\n        /* \"#utility.yul\":9626:9765   */\n      swap1\n      pop\n        /* \"#utility.yul\":9353:9772   */\n      swap2\n      swap1\n      pop\n      jump\t// out\n        /* \"#utility.yul\":9778:10110   */\n    tag_136:\n        /* \"#utility.yul\":9899:9903   */\n      0x00\n        /* \"#utility.yul\":9937:9939   */\n      0x40\n        /* \"#utility.yul\":9926:9935   */\n      dup3\n        /* \"#utility.yul\":9922:9940   */\n      add\n        /* \"#utility.yul\":9914:9940   */\n      swap1\n      pop\n        /* \"#utility.yul\":9950:10021   */\n      tag_416\n        /* \"#utility.yul\":10018:10019   */\n      0x00\n        /* \"#utility.yul\":10007:10016   */\n      dup4\n        /* \"#utility.yul\":10003:10020   */\n      add\n        /* \"#utility.yul\":9994:10000   */\n      dup6\n        /* \"#utility.yul\":9950:10021   */\n      tag_268\n      jump\t// in\n    tag_416:\n        /* \"#utility.yul\":10031:10103   */\n      tag_417\n        /* \"#utility.yul\":10099:10101   */\n      0x20\n        /* \"#utility.yul\":10088:10097   */\n      dup4\n        /* \"#utility.yul\":10084:10102   */\n      add\n        /* \"#utility.yul\":10075:10081   */\n      dup5\n        /* \"#utility.yul\":10031:10103   */\n      tag_258\n      jump\t// in\n    tag_417:\n        /* \"#utility.yul\":9778:10110   */\n      swap4\n      swap3\n      pop\n      pop\n      pop\n      jump\t// out\n        /* \"#utility.yul\":10116:10232   */\n    tag_273:\n        /* \"#utility.yul\":10186:10207   */\n      tag_419\n        /* \"#utility.yul\":10201:10206   */\n      dup2\n        /* \"#utility.yul\":10186:10207   */\n      tag_256\n      jump\t// in\n    tag_419:\n        /* \"#utility.yul\":10179:10184   */\n      dup2\n        /* \"#utility.yul\":10176:10208   */\n      eq\n        /* \"#utility.yul\":10166:10226   */\n      tag_420\n      jumpi\n        /* \"#utility.yul\":10222:10223   */\n      0x00\n        /* \"#utility.yul\":10219:10220   */\n      dup1\n        /* \"#utility.yul\":10212:10224   */\n      revert\n        /* \"#utility.yul\":10166:10226   */\n    tag_420:\n        /* \"#utility.yul\":10116:10232   */\n      pop\n      jump\t// out\n        /* \"#utility.yul\":10238:10375   */\n    tag_274:\n        /* \"#utility.yul\":10292:10297   */\n      0x00\n        /* \"#utility.yul\":10323:10329   */\n      dup2\n        /* \"#utility.yul\":10317:10330   */\n      mload\n        /* \"#utility.yul\":10308:10330   */\n      swap1\n      pop\n        /* \"#utility.yul\":10339:10369   */\n      tag_422\n        /* \"#utility.yul\":10363:10368   */\n      dup2\n        /* \"#utility.yul\":10339:10369   */\n      tag_273\n      jump\t// in\n    tag_422:\n        /* \"#utility.yul\":10238:10375   */\n      swap3\n      swap2\n      pop\n      pop\n      jump\t// out\n        /* \"#utility.yul\":10381:10726   */\n    tag_140:\n        /* \"#utility.yul\":10448:10454   */\n      0x00\n        /* \"#utility.yul\":10497:10499   */\n      0x20\n        /* \"#utility.yul\":10485:10494   */\n      dup3\n        /* \"#utility.yul\":10476:10483   */\n      dup5\n        /* \"#utility.yul\":10472:10495   */\n      sub\n        /* \"#utility.yul\":10468:10500   */\n      slt\n        /* \"#utility.yul\":10465:10584   */\n      iszero\n      tag_424\n      jumpi\n        /* \"#utility.yul\":10503:10582   */\n      tag_425\n      tag_247\n      jump\t// in\n    tag_425:\n        /* \"#utility.yul\":10465:10584   */\n    tag_424:\n        /* \"#utility.yul\":10623:10624   */\n      0x00\n        /* \"#utility.yul\":10648:10709   */\n      tag_426\n        /* \"#utility.yul\":10701:10708   */\n      dup5\n        /* \"#utility.yul\":10692:10698   */\n      dup3\n        /* \"#utility.yul\":10681:10690   */\n      dup6\n        /* \"#utility.yul\":10677:10699   */\n      add\n        /* \"#utility.yul\":10648:10709   */\n      tag_274\n      jump\t// in\n    tag_426:\n        /* \"#utility.yul\":10638:10709   */\n      swap2\n      pop\n        /* \"#utility.yul\":10594:10719   */\n      pop\n        /* \"#utility.yul\":10381:10726   */\n      swap3\n      swap2\n      pop\n      pop\n      jump\t// out\n        /* \"#utility.yul\":10732:11174   */\n    tag_153:\n        /* \"#utility.yul\":10881:10885   */\n      0x00\n        /* \"#utility.yul\":10919:10921   */\n      0x60\n        /* \"#utility.yul\":10908:10917   */\n      dup3\n        /* \"#utility.yul\":10904:10922   */\n      add\n        /* \"#utility.yul\":10896:10922   */\n      swap1\n      pop\n        /* \"#utility.yul\":10932:11003   */\n      tag_428\n        /* \"#utility.yul\":11000:11001   */\n      0x00\n        /* \"#utility.yul\":10989:10998   */\n      dup4\n        /* \"#utility.yul\":10985:11002   */\n      add\n        /* \"#utility.yul\":10976:10982   */\n      dup7\n        /* \"#utility.yul\":10932:11003   */\n      tag_268\n      jump\t// in\n    tag_428:\n        /* \"#utility.yul\":11013:11085   */\n      tag_429\n        /* \"#utility.yul\":11081:11083   */\n      0x20\n        /* \"#utility.yul\":11070:11079   */\n      dup4\n        /* \"#utility.yul\":11066:11084   */\n      add\n        /* \"#utility.yul\":11057:11063   */\n      dup6\n        /* \"#utility.yul\":11013:11085   */\n      tag_268\n      jump\t// in\n    tag_429:\n        /* \"#utility.yul\":11095:11167   */\n      tag_430\n        /* \"#utility.yul\":11163:11165   */\n      0x40\n        /* \"#utility.yul\":11152:11161   */\n      dup4\n        /* \"#utility.yul\":11148:11166   */\n      add\n        /* \"#utility.yul\":11139:11145   */\n      dup5\n        /* \"#utility.yul\":11095:11167   */\n      tag_258\n      jump\t// in\n    tag_430:\n        /* \"#utility.yul\":10732:11174   */\n      swap5\n      swap4\n      pop\n      pop\n      pop\n      pop\n      jump\t// out\n        /* \"#utility.yul\":11180:11404   */\n    tag_275:\n        /* \"#utility.yul\":11320:11354   */\n      0x45524332303a2064656372656173656420616c6c6f77616e63652062656c6f77\n        /* \"#utility.yul\":11316:11317   */\n      0x00\n        /* \"#utility.yul\":11308:11314   */\n      dup3\n        /* \"#utility.yul\":11304:11318   */\n      add\n        /* \"#utility.yul\":11297:11355   */\n      mstore\n        /* \"#utility.yul\":11389:11396   */\n      0x207a65726f000000000000000000000000000000000000000000000000000000\n        /* \"#utility.yul\":11384:11386   */\n      0x20\n        /* \"#utility.yul\":11376:11382   */\n      dup3\n        /* \"#utility.yul\":11372:11387   */\n      add\n        /* \"#utility.yul\":11365:11397   */\n      mstore\n        /* \"#utility.yul\":11180:11404   */\n      pop\n      jump\t// out\n        /* \"#utility.yul\":11410:11776   */\n    tag_276:\n        /* \"#utility.yul\":11552:11555   */\n      0x00\n        /* \"#utility.yul\":11573:11640   */\n      tag_433\n        /* \"#utility.yul\":11637:11639   */\n      0x25\n        /* \"#utility.yul\":11632:11635   */\n      dup4\n        /* \"#utility.yul\":11573:11640   */\n      tag_242\n      jump\t// in\n    tag_433:\n        /* \"#utility.yul\":11566:11640   */\n      swap2\n      pop\n        /* \"#utility.yul\":11649:11742   */\n      tag_434\n        /* \"#utility.yul\":11738:11741   */\n      dup3\n        /* \"#utility.yul\":11649:11742   */\n      tag_275\n      jump\t// in\n    tag_434:\n        /* \"#utility.yul\":11767:11769   */\n      0x40\n        /* \"#utility.yul\":11762:11765   */\n      dup3\n        /* \"#utility.yul\":11758:11770   */\n      add\n        /* \"#utility.yul\":11751:11770   */\n      swap1\n      pop\n        /* \"#utility.yul\":11410:11776   */\n      swap2\n      swap1\n      pop\n      jump\t// out\n        /* \"#utility.yul\":11782:12201   */\n    tag_164:\n        /* \"#utility.yul\":11948:11952   */\n      0x00\n        /* \"#utility.yul\":11986:11988   */\n      0x20\n        /* \"#utility.yul\":11975:11984   */\n      dup3\n        /* \"#utility.yul\":11971:11989   */\n      add\n        /* \"#utility.yul\":11963:11989   */\n      swap1\n      pop\n        /* \"#utility.yul\":12035:12044   */\n      dup2\n        /* \"#utility.yul\":12029:12033   */\n      dup2\n        /* \"#utility.yul\":12025:12045   */\n      sub\n        /* \"#utility.yul\":12021:12022   */\n      0x00\n        /* \"#utility.yul\":12010:12019   */\n      dup4\n        /* \"#utility.yul\":12006:12023   */\n      add\n        /* \"#utility.yul\":11999:12046   */\n      mstore\n        /* \"#utility.yul\":12063:12194   */\n      tag_436\n        /* \"#utility.yul\":12189:12193   */\n      dup2\n        /* \"#utility.yul\":12063:12194   */\n      tag_276\n      jump\t// in\n    tag_436:\n        /* \"#utility.yul\":12055:12194   */\n      swap1\n      pop\n        /* \"#utility.yul\":11782:12201   */\n      swap2\n      swap1\n      pop\n      jump\t// out\n        /* \"#utility.yul\":12207:12312   */\n    tag_277:\n        /* \"#utility.yul\":12243:12250   */\n      0x00\n        /* \"#utility.yul\":12283:12305   */\n      0xffffffffffffffffffff\n        /* \"#utility.yul\":12276:12281   */\n      dup3\n        /* \"#utility.yul\":12272:12306   */\n      and\n        /* \"#utility.yul\":12261:12306   */\n      swap1\n      pop\n        /* \"#utility.yul\":12207:12312   */\n      swap2\n      swap1\n      pop\n      jump\t// out\n        /* \"#utility.yul\":12318:12438   */\n    tag_278:\n        /* \"#utility.yul\":12390:12413   */\n      tag_439\n        /* \"#utility.yul\":12407:12412   */\n      dup2\n        /* \"#utility.yul\":12390:12413   */\n      tag_277\n      jump\t// in\n    tag_439:\n        /* \"#utility.yul\":12383:12388   */\n      dup2\n        /* \"#utility.yul\":12380:12414   */\n      eq\n        /* \"#utility.yul\":12370:12432   */\n      tag_440\n      jumpi\n        /* \"#utility.yul\":12428:12429   */\n      0x00\n        /* \"#utility.yul\":12425:12426   */\n      dup1\n        /* \"#utility.yul\":12418:12430   */\n      revert\n        /* \"#utility.yul\":12370:12432   */\n    tag_440:\n        /* \"#utility.yul\":12318:12438   */\n      pop\n      jump\t// out\n        /* \"#utility.yul\":12444:12585   */\n    tag_279:\n        /* \"#utility.yul\":12500:12505   */\n      0x00\n        /* \"#utility.yul\":12531:12537   */\n      dup2\n        /* \"#utility.yul\":12525:12538   */\n      mload\n        /* \"#utility.yul\":12516:12538   */\n      swap1\n      pop\n        /* \"#utility.yul\":12547:12579   */\n      tag_442\n        /* \"#utility.yul\":12573:12578   */\n      dup2\n        /* \"#utility.yul\":12547:12579   */\n      tag_278\n      jump\t// in\n    tag_442:\n        /* \"#utility.yul\":12444:12585   */\n      swap3\n      swap2\n      pop\n      pop\n      jump\t// out\n        /* \"#utility.yul\":12591:12667   */\n    tag_280:\n        /* \"#utility.yul\":12627:12634   */\n      0x00\n        /* \"#utility.yul\":12656:12661   */\n      dup2\n        /* \"#utility.yul\":12645:12661   */\n      swap1\n      pop\n        /* \"#utility.yul\":12591:12667   */\n      swap2\n      swap1\n      pop\n      jump\t// out\n        /* \"#utility.yul\":12673:12793   */\n    tag_281:\n        /* \"#utility.yul\":12745:12768   */\n      tag_445\n        /* \"#utility.yul\":12762:12767   */\n      dup2\n        /* \"#utility.yul\":12745:12768   */\n      tag_280\n      jump\t// in\n    tag_445:\n        /* \"#utility.yul\":12738:12743   */\n      dup2\n        /* \"#utility.yul\":12735:12769   */\n      eq\n        /* \"#utility.yul\":12725:12787   */\n      tag_446\n      jumpi\n        /* \"#utility.yul\":12783:12784   */\n      0x00\n        /* \"#utility.yul\":12780:12781   */\n      dup1\n        /* \"#utility.yul\":12773:12785   */\n      revert\n        /* \"#utility.yul\":12725:12787   */\n    tag_446:\n        /* \"#utility.yul\":12673:12793   */\n      pop\n      jump\t// out\n        /* \"#utility.yul\":12799:12940   */\n    tag_282:\n        /* \"#utility.yul\":12855:12860   */\n      0x00\n        /* \"#utility.yul\":12886:12892   */\n      dup2\n        /* \"#utility.yul\":12880:12893   */\n      mload\n        /* \"#utility.yul\":12871:12893   */\n      swap1\n      pop\n        /* \"#utility.yul\":12902:12934   */\n      tag_448\n        /* \"#utility.yul\":12928:12933   */\n      dup2\n        /* \"#utility.yul\":12902:12934   */\n      tag_281\n      jump\t// in\n    tag_448:\n        /* \"#utility.yul\":12799:12940   */\n      swap3\n      swap2\n      pop\n      pop\n      jump\t// out\n        /* \"#utility.yul\":12946:13089   */\n    tag_283:\n        /* \"#utility.yul\":13003:13008   */\n      0x00\n        /* \"#utility.yul\":13034:13040   */\n      dup2\n        /* \"#utility.yul\":13028:13041   */\n      mload\n        /* \"#utility.yul\":13019:13041   */\n      swap1\n      pop\n        /* \"#utility.yul\":13050:13083   */\n      tag_450\n        /* \"#utility.yul\":13077:13082   */\n      dup2\n        /* \"#utility.yul\":13050:13083   */\n      tag_254\n      jump\t// in\n    tag_450:\n        /* \"#utility.yul\":12946:13089   */\n      swap3\n      swap2\n      pop\n      pop\n      jump\t// out\n        /* \"#utility.yul\":13095:14066   */\n    tag_174:\n        /* \"#utility.yul\":13198:13204   */\n      0x00\n        /* \"#utility.yul\":13206:13212   */\n      dup1\n        /* \"#utility.yul\":13214:13220   */\n      0x00\n        /* \"#utility.yul\":13222:13228   */\n      dup1\n        /* \"#utility.yul\":13230:13236   */\n      0x00\n        /* \"#utility.yul\":13279:13282   */\n      0xa0\n        /* \"#utility.yul\":13267:13276   */\n      dup7\n        /* \"#utility.yul\":13258:13265   */\n      dup9\n        /* \"#utility.yul\":13254:13277   */\n      sub\n        /* \"#utility.yul\":13250:13283   */\n      slt\n        /* \"#utility.yul\":13247:13367   */\n      iszero\n      tag_452\n      jumpi\n        /* \"#utility.yul\":13286:13365   */\n      tag_453\n      tag_247\n      jump\t// in\n    tag_453:\n        /* \"#utility.yul\":13247:13367   */\n    tag_452:\n        /* \"#utility.yul\":13406:13407   */\n      0x00\n        /* \"#utility.yul\":13431:13494   */\n      tag_454\n        /* \"#utility.yul\":13486:13493   */\n      dup9\n        /* \"#utility.yul\":13477:13483   */\n      dup3\n        /* \"#utility.yul\":13466:13475   */\n      dup10\n        /* \"#utility.yul\":13462:13484   */\n      add\n        /* \"#utility.yul\":13431:13494   */\n      tag_279\n      jump\t// in\n    tag_454:\n        /* \"#utility.yul\":13421:13494   */\n      swap6\n      pop\n        /* \"#utility.yul\":13377:13504   */\n      pop\n        /* \"#utility.yul\":13543:13545   */\n      0x20\n        /* \"#utility.yul\":13569:13632   */\n      tag_455\n        /* \"#utility.yul\":13624:13631   */\n      dup9\n        /* \"#utility.yul\":13615:13621   */\n      dup3\n        /* \"#utility.yul\":13604:13613   */\n      dup10\n        /* \"#utility.yul\":13600:13622   */\n      add\n        /* \"#utility.yul\":13569:13632   */\n      tag_282\n      jump\t// in\n    tag_455:\n        /* \"#utility.yul\":13559:13632   */\n      swap5\n      pop\n        /* \"#utility.yul\":13514:13642   */\n      pop\n        /* \"#utility.yul\":13681:13683   */\n      0x40\n        /* \"#utility.yul\":13707:13771   */\n      tag_456\n        /* \"#utility.yul\":13763:13770   */\n      dup9\n        /* \"#utility.yul\":13754:13760   */\n      dup3\n        /* \"#utility.yul\":13743:13752   */\n      dup10\n        /* \"#utility.yul\":13739:13761   */\n      add\n        /* \"#utility.yul\":13707:13771   */\n      tag_283\n      jump\t// in\n    tag_456:\n        /* \"#utility.yul\":13697:13771   */\n      swap4\n      pop\n        /* \"#utility.yul\":13652:13781   */\n      pop\n        /* \"#utility.yul\":13820:13822   */\n      0x60\n        /* \"#utility.yul\":13846:13910   */\n      tag_457\n        /* \"#utility.yul\":13902:13909   */\n      dup9\n        /* \"#utility.yul\":13893:13899   */\n      dup3\n        /* \"#utility.yul\":13882:13891   */\n      dup10\n        /* \"#utility.yul\":13878:13900   */\n      add\n        /* \"#utility.yul\":13846:13910   */\n      tag_283\n      jump\t// in\n    tag_457:\n        /* \"#utility.yul\":13836:13910   */\n      swap3\n      pop\n        /* \"#utility.yul\":13791:13920   */\n      pop\n        /* \"#utility.yul\":13959:13962   */\n      0x80\n        /* \"#utility.yul\":13986:14049   */\n      tag_458\n        /* \"#utility.yul\":14041:14048   */\n      dup9\n        /* \"#utility.yul\":14032:14038   */\n      dup3\n        /* \"#utility.yul\":14021:14030   */\n      dup10\n        /* \"#utility.yul\":14017:14039   */\n      add\n        /* \"#utility.yul\":13986:14049   */\n      tag_279\n      jump\t// in\n    tag_458:\n        /* \"#utility.yul\":13976:14049   */\n      swap2\n      pop\n        /* \"#utility.yul\":13930:14059   */\n      pop\n        /* \"#utility.yul\":13095:14066   */\n      swap3\n      swap6\n      pop\n      swap3\n      swap6\n      swap1\n      swap4\n      pop\n      jump\t// out\n        /* \"#utility.yul\":14072:14240   */\n    tag_284:\n        /* \"#utility.yul\":14212:14232   */\n      0x496e76616c696420707269636520666565640000000000000000000000000000\n        /* \"#utility.yul\":14208:14209   */\n      0x00\n        /* \"#utility.yul\":14200:14206   */\n      dup3\n        /* \"#utility.yul\":14196:14210   */\n      add\n        /* \"#utility.yul\":14189:14233   */\n      mstore\n        /* \"#utility.yul\":14072:14240   */\n      pop\n      jump\t// out\n        /* \"#utility.yul\":14246:14612   */\n    tag_285:\n        /* \"#utility.yul\":14388:14391   */\n      0x00\n        /* \"#utility.yul\":14409:14476   */\n      tag_461\n        /* \"#utility.yul\":14473:14475   */\n      0x12\n        /* \"#utility.yul\":14468:14471   */\n      dup4\n        /* \"#utility.yul\":14409:14476   */\n      tag_242\n      jump\t// in\n    tag_461:\n        /* \"#utility.yul\":14402:14476   */\n      swap2\n      pop\n        /* \"#utility.yul\":14485:14578   */\n      tag_462\n        /* \"#utility.yul\":14574:14577   */\n      dup3\n        /* \"#utility.yul\":14485:14578   */\n      tag_284\n      jump\t// in\n    tag_462:\n        /* \"#utility.yul\":14603:14605   */\n      0x20\n        /* \"#utility.yul\":14598:14601   */\n      dup3\n        /* \"#utility.yul\":14594:14606   */\n      add\n        /* \"#utility.yul\":14587:14606   */\n      swap1\n      pop\n        /* \"#utility.yul\":14246:14612   */\n      swap2\n      swap1\n      pop\n      jump\t// out\n        /* \"#utility.yul\":14618:15037   */\n    tag_177:\n        /* \"#utility.yul\":14784:14788   */\n      0x00\n        /* \"#utility.yul\":14822:14824   */\n      0x20\n        /* \"#utility.yul\":14811:14820   */\n      dup3\n        /* \"#utility.yul\":14807:14825   */\n      add\n        /* \"#utility.yul\":14799:14825   */\n      swap1\n      pop\n        /* \"#utility.yul\":14871:14880   */\n      dup2\n        /* \"#utility.yul\":14865:14869   */\n      dup2\n        /* \"#utility.yul\":14861:14881   */\n      sub\n        /* \"#utility.yul\":14857:14858   */\n      0x00\n        /* \"#utility.yul\":14846:14855   */\n      dup4\n        /* \"#utility.yul\":14842:14859   */\n      add\n        /* \"#utility.yul\":14835:14882   */\n      mstore\n        /* \"#utility.yul\":14899:15030   */\n      tag_464\n        /* \"#utility.yul\":15025:15029   */\n      dup2\n        /* \"#utility.yul\":14899:15030   */\n      tag_285\n      jump\t// in\n    tag_464:\n        /* \"#utility.yul\":14891:15030   */\n      swap1\n      pop\n        /* \"#utility.yul\":14618:15037   */\n      swap2\n      swap1\n      pop\n      jump\t// out\n        /* \"#utility.yul\":15043:15266   */\n    tag_286:\n        /* \"#utility.yul\":15183:15217   */\n      0x45524332303a20617070726f76652066726f6d20746865207a65726f20616464\n        /* \"#utility.yul\":15179:15180   */\n      0x00\n        /* \"#utility.yul\":15171:15177   */\n      dup3\n        /* \"#utility.yul\":15167:15181   */\n      add\n        /* \"#utility.yul\":15160:15218   */\n      mstore\n        /* \"#utility.yul\":15252:15258   */\n      0x7265737300000000000000000000000000000000000000000000000000000000\n        /* \"#utility.yul\":15247:15249   */\n      0x20\n        /* \"#utility.yul\":15239:15245   */\n      dup3\n        /* \"#utility.yul\":15235:15250   */\n      add\n        /* \"#utility.yul\":15228:15259   */\n      mstore\n        /* \"#utility.yul\":15043:15266   */\n      pop\n      jump\t// out\n        /* \"#utility.yul\":15272:15638   */\n    tag_287:\n        /* \"#utility.yul\":15414:15417   */\n      0x00\n        /* \"#utility.yul\":15435:15502   */\n      tag_467\n        /* \"#utility.yul\":15499:15501   */\n      0x24\n        /* \"#utility.yul\":15494:15497   */\n      dup4\n        /* \"#utility.yul\":15435:15502   */\n      tag_242\n      jump\t// in\n    tag_467:\n        /* \"#utility.yul\":15428:15502   */\n      swap2\n      pop\n        /* \"#utility.yul\":15511:15604   */\n      tag_468\n        /* \"#utility.yul\":15600:15603   */\n      dup3\n        /* \"#utility.yul\":15511:15604   */\n      tag_286\n      jump\t// in\n    tag_468:\n        /* \"#utility.yul\":15629:15631   */\n      0x40\n        /* \"#utility.yul\":15624:15627   */\n      dup3\n        /* \"#utility.yul\":15620:15632   */\n      add\n        /* \"#utility.yul\":15613:15632   */\n      swap1\n      pop\n        /* \"#utility.yul\":15272:15638   */\n      swap2\n      swap1\n      pop\n      jump\t// out\n        /* \"#utility.yul\":15644:16063   */\n    tag_188:\n        /* \"#utility.yul\":15810:15814   */\n      0x00\n        /* \"#utility.yul\":15848:15850   */\n      0x20\n        /* \"#utility.yul\":15837:15846   */\n      dup3\n        /* \"#utility.yul\":15833:15851   */\n      add\n        /* \"#utility.yul\":15825:15851   */\n      swap1\n      pop\n        /* \"#utility.yul\":15897:15906   */\n      dup2\n        /* \"#utility.yul\":15891:15895   */\n      dup2\n        /* \"#utility.yul\":15887:15907   */\n      sub\n        /* \"#utility.yul\":15883:15884   */\n      0x00\n        /* \"#utility.yul\":15872:15881   */\n      dup4\n        /* \"#utility.yul\":15868:15885   */\n      add\n        /* \"#utility.yul\":15861:15908   */\n      mstore\n        /* \"#utility.yul\":15925:16056   */\n      tag_470\n        /* \"#utility.yul\":16051:16055   */\n      dup2\n        /* \"#utility.yul\":15925:16056   */\n      tag_287\n      jump\t// in\n    tag_470:\n        /* \"#utility.yul\":15917:16056   */\n      swap1\n      pop\n        /* \"#utility.yul\":15644:16063   */\n      swap2\n      swap1\n      pop\n      jump\t// out\n        /* \"#utility.yul\":16069:16290   */\n    tag_288:\n        /* \"#utility.yul\":16209:16243   */\n      0x45524332303a20617070726f766520746f20746865207a65726f206164647265\n        /* \"#utility.yul\":16205:16206   */\n      0x00\n        /* \"#utility.yul\":16197:16203   */\n      dup3\n        /* \"#utility.yul\":16193:16207   */\n      add\n        /* \"#utility.yul\":16186:16244   */\n      mstore\n        /* \"#utility.yul\":16278:16282   */\n      0x7373000000000000000000000000000000000000000000000000000000000000\n        /* \"#utility.yul\":16273:16275   */\n      0x20\n        /* \"#utility.yul\":16265:16271   */\n      dup3\n        /* \"#utility.yul\":16261:16276   */\n      add\n        /* \"#utility.yul\":16254:16283   */\n      mstore\n        /* \"#utility.yul\":16069:16290   */\n      pop\n      jump\t// out\n        /* \"#utility.yul\":16296:16662   */\n    tag_289:\n        /* \"#utility.yul\":16438:16441   */\n      0x00\n        /* \"#utility.yul\":16459:16526   */\n      tag_473\n        /* \"#utility.yul\":16523:16525   */\n      0x22\n        /* \"#utility.yul\":16518:16521   */\n      dup4\n        /* \"#utility.yul\":16459:16526   */\n      tag_242\n      jump\t// in\n    tag_473:\n        /* \"#utility.yul\":16452:16526   */\n      swap2\n      pop\n        /* \"#utility.yul\":16535:16628   */\n      tag_474\n        /* \"#utility.yul\":16624:16627   */\n      dup3\n        /* \"#utility.yul\":16535:16628   */\n      tag_288\n      jump\t// in\n    tag_474:\n        /* \"#utility.yul\":16653:16655   */\n      0x40\n        /* \"#utility.yul\":16648:16651   */\n      dup3\n        /* \"#utility.yul\":16644:16656   */\n      add\n        /* \"#utility.yul\":16637:16656   */\n      swap1\n      pop\n        /* \"#utility.yul\":16296:16662   */\n      swap2\n      swap1\n      pop\n      jump\t// out\n        /* \"#utility.yul\":16668:17087   */\n    tag_191:\n        /* \"#utility.yul\":16834:16838   */\n      0x00\n        /* \"#utility.yul\":16872:16874   */\n      0x20\n        /* \"#utility.yul\":16861:16870   */\n      dup3\n        /* \"#utility.yul\":16857:16875   */\n      add\n        /* \"#utility.yul\":16849:16875   */\n      swap1\n      pop\n        /* \"#utility.yul\":16921:16930   */\n      dup2\n        /* \"#utility.yul\":16915:16919   */\n      dup2\n        /* \"#utility.yul\":16911:16931   */\n      sub\n        /* \"#utility.yul\":16907:16908   */\n      0x00\n        /* \"#utility.yul\":16896:16905   */\n      dup4\n        /* \"#utility.yul\":16892:16909   */\n      add\n        /* \"#utility.yul\":16885:16932   */\n      mstore\n        /* \"#utility.yul\":16949:17080   */\n      tag_476\n        /* \"#utility.yul\":17075:17079   */\n      dup2\n        /* \"#utility.yul\":16949:17080   */\n      tag_289\n      jump\t// in\n    tag_476:\n        /* \"#utility.yul\":16941:17080   */\n      swap1\n      pop\n        /* \"#utility.yul\":16668:17087   */\n      swap2\n      swap1\n      pop\n      jump\t// out\n        /* \"#utility.yul\":17093:17272   */\n    tag_290:\n        /* \"#utility.yul\":17233:17264   */\n      0x45524332303a20696e73756666696369656e7420616c6c6f77616e6365000000\n        /* \"#utility.yul\":17229:17230   */\n      0x00\n        /* \"#utility.yul\":17221:17227   */\n      dup3\n        /* \"#utility.yul\":17217:17231   */\n      add\n        /* \"#utility.yul\":17210:17265   */\n      mstore\n        /* \"#utility.yul\":17093:17272   */\n      pop\n      jump\t// out\n        /* \"#utility.yul\":17278:17644   */\n    tag_291:\n        /* \"#utility.yul\":17420:17423   */\n      0x00\n        /* \"#utility.yul\":17441:17508   */\n      tag_479\n        /* \"#utility.yul\":17505:17507   */\n      0x1d\n        /* \"#utility.yul\":17500:17503   */\n      dup4\n        /* \"#utility.yul\":17441:17508   */\n      tag_242\n      jump\t// in\n    tag_479:\n        /* \"#utility.yul\":17434:17508   */\n      swap2\n      pop\n        /* \"#utility.yul\":17517:17610   */\n      tag_480\n        /* \"#utility.yul\":17606:17609   */\n      dup3\n        /* \"#utility.yul\":17517:17610   */\n      tag_290\n      jump\t// in\n    tag_480:\n        /* \"#utility.yul\":17635:17637   */\n      0x20\n        /* \"#utility.yul\":17630:17633   */\n      dup3\n        /* \"#utility.yul\":17626:17638   */\n      add\n        /* \"#utility.yul\":17619:17638   */\n      swap1\n      pop\n        /* \"#utility.yul\":17278:17644   */\n      swap2\n      swap1\n      pop\n      jump\t// out\n        /* \"#utility.yul\":17650:18069   */\n    tag_198:\n        /* \"#utility.yul\":17816:17820   */\n      0x00\n        /* \"#utility.yul\":17854:17856   */\n      0x20\n        /* \"#utility.yul\":17843:17852   */\n      dup3\n        /* \"#utility.yul\":17839:17857   */\n      add\n        /* \"#utility.yul\":17831:17857   */\n      swap1\n      pop\n        /* \"#utility.yul\":17903:17912   */\n      dup2\n        /* \"#utility.yul\":17897:17901   */\n      dup2\n        /* \"#utility.yul\":17893:17913   */\n      sub\n        /* \"#utility.yul\":17889:17890   */\n      0x00\n        /* \"#utility.yul\":17878:17887   */\n      dup4\n        /* \"#utility.yul\":17874:17891   */\n      add\n        /* \"#utility.yul\":17867:17914   */\n      mstore\n        /* \"#utility.yul\":17931:18062   */\n      tag_482\n        /* \"#utility.yul\":18057:18061   */\n      dup2\n        /* \"#utility.yul\":17931:18062   */\n      tag_291\n      jump\t// in\n    tag_482:\n        /* \"#utility.yul\":17923:18062   */\n      swap1\n      pop\n        /* \"#utility.yul\":17650:18069   */\n      swap2\n      swap1\n      pop\n      jump\t// out\n        /* \"#utility.yul\":18075:18299   */\n    tag_292:\n        /* \"#utility.yul\":18215:18249   */\n      0x45524332303a207472616e736665722066726f6d20746865207a65726f206164\n        /* \"#utility.yul\":18211:18212   */\n      0x00\n        /* \"#utility.yul\":18203:18209   */\n      dup3\n        /* \"#utility.yul\":18199:18213   */\n      add\n        /* \"#utility.yul\":18192:18250   */\n      mstore\n        /* \"#utility.yul\":18284:18291   */\n      0x6472657373000000000000000000000000000000000000000000000000000000\n        /* \"#utility.yul\":18279:18281   */\n      0x20\n        /* \"#utility.yul\":18271:18277   */\n      dup3\n        /* \"#utility.yul\":18267:18282   */\n      add\n        /* \"#utility.yul\":18260:18292   */\n      mstore\n        /* \"#utility.yul\":18075:18299   */\n      pop\n      jump\t// out\n        /* \"#utility.yul\":18305:18671   */\n    tag_293:\n        /* \"#utility.yul\":18447:18450   */\n      0x00\n        /* \"#utility.yul\":18468:18535   */\n      tag_485\n        /* \"#utility.yul\":18532:18534   */\n      0x25\n        /* \"#utility.yul\":18527:18530   */\n      dup4\n        /* \"#utility.yul\":18468:18535   */\n      tag_242\n      jump\t// in\n    tag_485:\n        /* \"#utility.yul\":18461:18535   */\n      swap2\n      pop\n        /* \"#utility.yul\":18544:18637   */\n      tag_486\n        /* \"#utility.yul\":18633:18636   */\n      dup3\n        /* \"#utility.yul\":18544:18637   */\n      tag_292\n      jump\t// in\n    tag_486:\n        /* \"#utility.yul\":18662:18664   */\n      0x40\n        /* \"#utility.yul\":18657:18660   */\n      dup3\n        /* \"#utility.yul\":18653:18665   */\n      add\n        /* \"#utility.yul\":18646:18665   */\n      swap1\n      pop\n        /* \"#utility.yul\":18305:18671   */\n      swap2\n      swap1\n      pop\n      jump\t// out\n        /* \"#utility.yul\":18677:19096   */\n    tag_203:\n        /* \"#utility.yul\":18843:18847   */\n      0x00\n        /* \"#utility.yul\":18881:18883   */\n      0x20\n        /* \"#utility.yul\":18870:18879   */\n      dup3\n        /* \"#utility.yul\":18866:18884   */\n      add\n        /* \"#utility.yul\":18858:18884   */\n      swap1\n      pop\n        /* \"#utility.yul\":18930:18939   */\n      dup2\n        /* \"#utility.yul\":18924:18928   */\n      dup2\n        /* \"#utility.yul\":18920:18940   */\n      sub\n        /* \"#utility.yul\":18916:18917   */\n      0x00\n        /* \"#utility.yul\":18905:18914   */\n      dup4\n        /* \"#utility.yul\":18901:18918   */\n      add\n        /* \"#utility.yul\":18894:18941   */\n      mstore\n        /* \"#utility.yul\":18958:19089   */\n      tag_488\n        /* \"#utility.yul\":19084:19088   */\n      dup2\n        /* \"#utility.yul\":18958:19089   */\n      tag_293\n      jump\t// in\n    tag_488:\n        /* \"#utility.yul\":18950:19089   */\n      swap1\n      pop\n        /* \"#utility.yul\":18677:19096   */\n      swap2\n      swap1\n      pop\n      jump\t// out\n        /* \"#utility.yul\":19102:19324   */\n    tag_294:\n        /* \"#utility.yul\":19242:19276   */\n      0x45524332303a207472616e7366657220746f20746865207a65726f2061646472\n        /* \"#utility.yul\":19238:19239   */\n      0x00\n        /* \"#utility.yul\":19230:19236   */\n      dup3\n        /* \"#utility.yul\":19226:19240   */\n      add\n        /* \"#utility.yul\":19219:19277   */\n      mstore\n        /* \"#utility.yul\":19311:19316   */\n      0x6573730000000000000000000000000000000000000000000000000000000000\n        /* \"#utility.yul\":19306:19308   */\n      0x20\n        /* \"#utility.yul\":19298:19304   */\n      dup3\n        /* \"#utility.yul\":19294:19309   */\n      add\n        /* \"#utility.yul\":19287:19317   */\n      mstore\n        /* \"#utility.yul\":19102:19324   */\n      pop\n      jump\t// out\n        /* \"#utility.yul\":19330:19696   */\n    tag_295:\n        /* \"#utility.yul\":19472:19475   */\n      0x00\n        /* \"#utility.yul\":19493:19560   */\n      tag_491\n        /* \"#utility.yul\":19557:19559   */\n      0x23\n        /* \"#utility.yul\":19552:19555   */\n      dup4\n        /* \"#utility.yul\":19493:19560   */\n      tag_242\n      jump\t// in\n    tag_491:\n        /* \"#utility.yul\":19486:19560   */\n      swap2\n      pop\n        /* \"#utility.yul\":19569:19662   */\n      tag_492\n        /* \"#utility.yul\":19658:19661   */\n      dup3\n        /* \"#utility.yul\":19569:19662   */\n      tag_294\n      jump\t// in\n    tag_492:\n        /* \"#utility.yul\":19687:19689   */\n      0x40\n        /* \"#utility.yul\":19682:19685   */\n      dup3\n        /* \"#utility.yul\":19678:19690   */\n      add\n        /* \"#utility.yul\":19671:19690   */\n      swap1\n      pop\n        /* \"#utility.yul\":19330:19696   */\n      swap2\n      swap1\n      pop\n      jump\t// out\n        /* \"#utility.yul\":19702:20121   */\n    tag_206:\n        /* \"#utility.yul\":19868:19872   */\n      0x00\n        /* \"#utility.yul\":19906:19908   */\n      0x20\n        /* \"#utility.yul\":19895:19904   */\n      dup3\n        /* \"#utility.yul\":19891:19909   */\n      add\n        /* \"#utility.yul\":19883:19909   */\n      swap1\n      pop\n        /* \"#utility.yul\":19955:19964   */\n      dup2\n        /* \"#utility.yul\":19949:19953   */\n      dup2\n        /* \"#utility.yul\":19945:19965   */\n      sub\n        /* \"#utility.yul\":19941:19942   */\n      0x00\n        /* \"#utility.yul\":19930:19939   */\n      dup4\n        /* \"#utility.yul\":19926:19943   */\n      add\n        /* \"#utility.yul\":19919:19966   */\n      mstore\n        /* \"#utility.yul\":19983:20114   */\n      tag_494\n        /* \"#utility.yul\":20109:20113   */\n      dup2\n        /* \"#utility.yul\":19983:20114   */\n      tag_295\n      jump\t// in\n    tag_494:\n        /* \"#utility.yul\":19975:20114   */\n      swap1\n      pop\n        /* \"#utility.yul\":19702:20121   */\n      swap2\n      swap1\n      pop\n      jump\t// out\n        /* \"#utility.yul\":20127:20352   */\n    tag_296:\n        /* \"#utility.yul\":20267:20301   */\n      0x45524332303a207472616e7366657220616d6f756e7420657863656564732062\n        /* \"#utility.yul\":20263:20264   */\n      0x00\n        /* \"#utility.yul\":20255:20261   */\n      dup3\n        /* \"#utility.yul\":20251:20265   */\n      add\n        /* \"#utility.yul\":20244:20302   */\n      mstore\n        /* \"#utility.yul\":20336:20344   */\n      0x616c616e63650000000000000000000000000000000000000000000000000000\n        /* \"#utility.yul\":20331:20333   */\n      0x20\n        /* \"#utility.yul\":20323:20329   */\n      dup3\n        /* \"#utility.yul\":20319:20334   */\n      add\n        /* \"#utility.yul\":20312:20345   */\n      mstore\n        /* \"#utility.yul\":20127:20352   */\n      pop\n      jump\t// out\n        /* \"#utility.yul\":20358:20724   */\n    tag_297:\n        /* \"#utility.yul\":20500:20503   */\n      0x00\n        /* \"#utility.yul\":20521:20588   */\n      tag_497\n        /* \"#utility.yul\":20585:20587   */\n      0x26\n        /* \"#utility.yul\":20580:20583   */\n      dup4\n        /* \"#utility.yul\":20521:20588   */\n      tag_242\n      jump\t// in\n    tag_497:\n        /* \"#utility.yul\":20514:20588   */\n      swap2\n      pop\n        /* \"#utility.yul\":20597:20690   */\n      tag_498\n        /* \"#utility.yul\":20686:20689   */\n      dup3\n        /* \"#utility.yul\":20597:20690   */\n      tag_296\n      jump\t// in\n    tag_498:\n        /* \"#utility.yul\":20715:20717   */\n      0x40\n        /* \"#utility.yul\":20710:20713   */\n      dup3\n        /* \"#utility.yul\":20706:20718   */\n      add\n        /* \"#utility.yul\":20699:20718   */\n      swap1\n      pop\n        /* \"#utility.yul\":20358:20724   */\n      swap2\n      swap1\n      pop\n      jump\t// out\n        /* \"#utility.yul\":20730:21149   */\n    tag_211:\n        /* \"#utility.yul\":20896:20900   */\n      0x00\n        /* \"#utility.yul\":20934:20936   */\n      0x20\n        /* \"#utility.yul\":20923:20932   */\n      dup3\n        /* \"#utility.yul\":20919:20937   */\n      add\n        /* \"#utility.yul\":20911:20937   */\n      swap1\n      pop\n        /* \"#utility.yul\":20983:20992   */\n      dup2\n        /* \"#utility.yul\":20977:20981   */\n      dup2\n        /* \"#utility.yul\":20973:20993   */\n      sub\n        /* \"#utility.yul\":20969:20970   */\n      0x00\n        /* \"#utility.yul\":20958:20967   */\n      dup4\n        /* \"#utility.yul\":20954:20971   */\n      add\n        /* \"#utility.yul\":20947:20994   */\n      mstore\n        /* \"#utility.yul\":21011:21142   */\n      tag_500\n        /* \"#utility.yul\":21137:21141   */\n      dup2\n        /* \"#utility.yul\":21011:21142   */\n      tag_297\n      jump\t// in\n    tag_500:\n        /* \"#utility.yul\":21003:21142   */\n      swap1\n      pop\n        /* \"#utility.yul\":20730:21149   */\n      swap2\n      swap1\n      pop\n      jump\t// out\n        /* \"#utility.yul\":21155:21375   */\n    tag_298:\n        /* \"#utility.yul\":21295:21329   */\n      0x45524332303a206275726e2066726f6d20746865207a65726f20616464726573\n        /* \"#utility.yul\":21291:21292   */\n      0x00\n        /* \"#utility.yul\":21283:21289   */\n      dup3\n        /* \"#utility.yul\":21279:21293   */\n      add\n        /* \"#utility.yul\":21272:21330   */\n      mstore\n        /* \"#utility.yul\":21364:21367   */\n      0x7300000000000000000000000000000000000000000000000000000000000000\n        /* \"#utility.yul\":21359:21361   */\n      0x20\n        /* \"#utility.yul\":21351:21357   */\n      dup3\n        /* \"#utility.yul\":21347:21362   */\n      add\n        /* \"#utility.yul\":21340:21368   */\n      mstore\n        /* \"#utility.yul\":21155:21375   */\n      pop\n      jump\t// out\n        /* \"#utility.yul\":21381:21747   */\n    tag_299:\n        /* \"#utility.yul\":21523:21526   */\n      0x00\n        /* \"#utility.yul\":21544:21611   */\n      tag_503\n        /* \"#utility.yul\":21608:21610   */\n      0x21\n        /* \"#utility.yul\":21603:21606   */\n      dup4\n        /* \"#utility.yul\":21544:21611   */\n      tag_242\n      jump\t// in\n    tag_503:\n        /* \"#utility.yul\":21537:21611   */\n      swap2\n      pop\n        /* \"#utility.yul\":21620:21713   */\n      tag_504\n        /* \"#utility.yul\":21709:21712   */\n      dup3\n        /* \"#utility.yul\":21620:21713   */\n      tag_298\n      jump\t// in\n    tag_504:\n        /* \"#utility.yul\":21738:21740   */\n      0x40\n        /* \"#utility.yul\":21733:21736   */\n      dup3\n        /* \"#utility.yul\":21729:21741   */\n      add\n        /* \"#utility.yul\":21722:21741   */\n      swap1\n      pop\n        /* \"#utility.yul\":21381:21747   */\n      swap2\n      swap1\n      pop\n      jump\t// out\n        /* \"#utility.yul\":21753:22172   */\n    tag_218:\n        /* \"#utility.yul\":21919:21923   */\n      0x00\n        /* \"#utility.yul\":21957:21959   */\n      0x20\n        /* \"#utility.yul\":21946:21955   */\n      dup3\n        /* \"#utility.yul\":21942:21960   */\n      add\n        /* \"#utility.yul\":21934:21960   */\n      swap1\n      pop\n        /* \"#utility.yul\":22006:22015   */\n      dup2\n        /* \"#utility.yul\":22000:22004   */\n      dup2\n        /* \"#utility.yul\":21996:22016   */\n      sub\n        /* \"#utility.yul\":21992:21993   */\n      0x00\n        /* \"#utility.yul\":21981:21990   */\n      dup4\n        /* \"#utility.yul\":21977:21994   */\n      add\n        /* \"#utility.yul\":21970:22017   */\n      mstore\n        /* \"#utility.yul\":22034:22165   */\n      tag_506\n        /* \"#utility.yul\":22160:22164   */\n      dup2\n        /* \"#utility.yul\":22034:22165   */\n      tag_299\n      jump\t// in\n    tag_506:\n        /* \"#utility.yul\":22026:22165   */\n      swap1\n      pop\n        /* \"#utility.yul\":21753:22172   */\n      swap2\n      swap1\n      pop\n      jump\t// out\n        /* \"#utility.yul\":22178:22399   */\n    tag_300:\n        /* \"#utility.yul\":22318:22352   */\n      0x45524332303a206275726e20616d6f756e7420657863656564732062616c616e\n        /* \"#utility.yul\":22314:22315   */\n      0x00\n        /* \"#utility.yul\":22306:22312   */\n      dup3\n        /* \"#utility.yul\":22302:22316   */\n      add\n        /* \"#utility.yul\":22295:22353   */\n      mstore\n        /* \"#utility.yul\":22387:22391   */\n      0x6365000000000000000000000000000000000000000000000000000000000000\n        /* \"#utility.yul\":22382:22384   */\n      0x20\n        /* \"#utility.yul\":22374:22380   */\n      dup3\n        /* \"#utility.yul\":22370:22385   */\n      add\n        /* \"#utility.yul\":22363:22392   */\n      mstore\n        /* \"#utility.yul\":22178:22399   */\n      pop\n      jump\t// out\n        /* \"#utility.yul\":22405:22771   */\n    tag_301:\n        /* \"#utility.yul\":22547:22550   */\n      0x00\n        /* \"#utility.yul\":22568:22635   */\n      tag_509\n        /* \"#utility.yul\":22632:22634   */\n      0x22\n        /* \"#utility.yul\":22627:22630   */\n      dup4\n        /* \"#utility.yul\":22568:22635   */\n      tag_242\n      jump\t// in\n    tag_509:\n        /* \"#utility.yul\":22561:22635   */\n      swap2\n      pop\n        /* \"#utility.yul\":22644:22737   */\n      tag_510\n        /* \"#utility.yul\":22733:22736   */\n      dup3\n        /* \"#utility.yul\":22644:22737   */\n      tag_300\n      jump\t// in\n    tag_510:\n        /* \"#utility.yul\":22762:22764   */\n      0x40\n        /* \"#utility.yul\":22757:22760   */\n      dup3\n        /* \"#utility.yul\":22753:22765   */\n      add\n        /* \"#utility.yul\":22746:22765   */\n      swap1\n      pop\n        /* \"#utility.yul\":22405:22771   */\n      swap2\n      swap1\n      pop\n      jump\t// out\n        /* \"#utility.yul\":22777:23196   */\n    tag_222:\n        /* \"#utility.yul\":22943:22947   */\n      0x00\n        /* \"#utility.yul\":22981:22983   */\n      0x20\n        /* \"#utility.yul\":22970:22979   */\n      dup3\n        /* \"#utility.yul\":22966:22984   */\n      add\n        /* \"#utility.yul\":22958:22984   */\n      swap1\n      pop\n        /* \"#utility.yul\":23030:23039   */\n      dup2\n        /* \"#utility.yul\":23024:23028   */\n      dup2\n        /* \"#utility.yul\":23020:23040   */\n      sub\n        /* \"#utility.yul\":23016:23017   */\n      0x00\n        /* \"#utility.yul\":23005:23014   */\n      dup4\n        /* \"#utility.yul\":23001:23018   */\n      add\n        /* \"#utility.yul\":22994:23041   */\n      mstore\n        /* \"#utility.yul\":23058:23189   */\n      tag_512\n        /* \"#utility.yul\":23184:23188   */\n      dup2\n        /* \"#utility.yul\":23058:23189   */\n      tag_301\n      jump\t// in\n    tag_512:\n        /* \"#utility.yul\":23050:23189   */\n      swap1\n      pop\n        /* \"#utility.yul\":22777:23196   */\n      swap2\n      swap1\n      pop\n      jump\t// out\n        /* \"#utility.yul\":23202:23383   */\n    tag_302:\n        /* \"#utility.yul\":23342:23375   */\n      0x45524332303a206d696e7420746f20746865207a65726f206164647265737300\n        /* \"#utility.yul\":23338:23339   */\n      0x00\n        /* \"#utility.yul\":23330:23336   */\n      dup3\n        /* \"#utility.yul\":23326:23340   */\n      add\n        /* \"#utility.yul\":23319:23376   */\n      mstore\n        /* \"#utility.yul\":23202:23383   */\n      pop\n      jump\t// out\n        /* \"#utility.yul\":23389:23755   */\n    tag_303:\n        /* \"#utility.yul\":23531:23534   */\n      0x00\n        /* \"#utility.yul\":23552:23619   */\n      tag_515\n        /* \"#utility.yul\":23616:23618   */\n      0x1f\n        /* \"#utility.yul\":23611:23614   */\n      dup4\n        /* \"#utility.yul\":23552:23619   */\n      tag_242\n      jump\t// in\n    tag_515:\n        /* \"#utility.yul\":23545:23619   */\n      swap2\n      pop\n        /* \"#utility.yul\":23628:23721   */\n      tag_516\n        /* \"#utility.yul\":23717:23720   */\n      dup3\n        /* \"#utility.yul\":23628:23721   */\n      tag_302\n      jump\t// in\n    tag_516:\n        /* \"#utility.yul\":23746:23748   */\n      0x20\n        /* \"#utility.yul\":23741:23744   */\n      dup3\n        /* \"#utility.yul\":23737:23749   */\n      add\n        /* \"#utility.yul\":23730:23749   */\n      swap1\n      pop\n        /* \"#utility.yul\":23389:23755   */\n      swap2\n      swap1\n      pop\n      jump\t// out\n        /* \"#utility.yul\":23761:24180   */\n    tag_228:\n        /* \"#utility.yul\":23927:23931   */\n      0x00\n        /* \"#utility.yul\":23965:23967   */\n      0x20\n        /* \"#utility.yul\":23954:23963   */\n      dup3\n        /* \"#utility.yul\":23950:23968   */\n      add\n        /* \"#utility.yul\":23942:23968   */\n      swap1\n      pop\n        /* \"#utility.yul\":24014:24023   */\n      dup2\n        /* \"#utility.yul\":24008:24012   */\n      dup2\n        /* \"#utility.yul\":24004:24024   */\n      sub\n        /* \"#utility.yul\":24000:24001   */\n      0x00\n        /* \"#utility.yul\":23989:23998   */\n      dup4\n        /* \"#utility.yul\":23985:24002   */\n      add\n        /* \"#utility.yul\":23978:24025   */\n      mstore\n        /* \"#utility.yul\":24042:24173   */\n      tag_518\n        /* \"#utility.yul\":24168:24172   */\n      dup2\n        /* \"#utility.yul\":24042:24173   */\n      tag_303\n      jump\t// in\n    tag_518:\n        /* \"#utility.yul\":24034:24173   */\n      swap1\n      pop\n        /* \"#utility.yul\":23761:24180   */\n      swap2\n      swap1\n      pop\n      jump\t// out\n        /* \"#utility.yul\":24186:24596   */\n    tag_235:\n        /* \"#utility.yul\":24226:24233   */\n      0x00\n        /* \"#utility.yul\":24249:24269   */\n      tag_520\n        /* \"#utility.yul\":24267:24268   */\n      dup3\n        /* \"#utility.yul\":24249:24269   */\n      tag_253\n      jump\t// in\n    tag_520:\n        /* \"#utility.yul\":24244:24269   */\n      swap2\n      pop\n        /* \"#utility.yul\":24283:24303   */\n      tag_521\n        /* \"#utility.yul\":24301:24302   */\n      dup4\n        /* \"#utility.yul\":24283:24303   */\n      tag_253\n      jump\t// in\n    tag_521:\n        /* \"#utility.yul\":24278:24303   */\n      swap3\n      pop\n        /* \"#utility.yul\":24338:24339   */\n      dup3\n        /* \"#utility.yul\":24335:24336   */\n      dup3\n        /* \"#utility.yul\":24331:24340   */\n      mul\n        /* \"#utility.yul\":24360:24390   */\n      tag_522\n        /* \"#utility.yul\":24378:24389   */\n      dup2\n        /* \"#utility.yul\":24360:24390   */\n      tag_253\n      jump\t// in\n    tag_522:\n        /* \"#utility.yul\":24349:24390   */\n      swap2\n      pop\n        /* \"#utility.yul\":24539:24540   */\n      dup3\n        /* \"#utility.yul\":24530:24537   */\n      dup3\n        /* \"#utility.yul\":24526:24541   */\n      div\n        /* \"#utility.yul\":24523:24524   */\n      dup5\n        /* \"#utility.yul\":24520:24542   */\n      eq\n        /* \"#utility.yul\":24500:24501   */\n      dup4\n        /* \"#utility.yul\":24493:24502   */\n      iszero\n        /* \"#utility.yul\":24473:24556   */\n      or\n        /* \"#utility.yul\":24450:24589   */\n      tag_523\n      jumpi\n        /* \"#utility.yul\":24569:24587   */\n      tag_524\n      tag_270\n      jump\t// in\n    tag_524:\n        /* \"#utility.yul\":24450:24589   */\n    tag_523:\n        /* \"#utility.yul\":24234:24596   */\n      pop\n        /* \"#utility.yul\":24186:24596   */\n      swap3\n      swap2\n      pop\n      pop\n      jump\t// out\n        /* \"#utility.yul\":24602:24782   */\n    tag_304:\n        /* \"#utility.yul\":24650:24727   */\n      0x4e487b7100000000000000000000000000000000000000000000000000000000\n        /* \"#utility.yul\":24647:24648   */\n      0x00\n        /* \"#utility.yul\":24640:24728   */\n      mstore\n        /* \"#utility.yul\":24747:24751   */\n      0x12\n        /* \"#utility.yul\":24744:24745   */\n      0x04\n        /* \"#utility.yul\":24737:24752   */\n      mstore\n        /* \"#utility.yul\":24771:24775   */\n      0x24\n        /* \"#utility.yul\":24768:24769   */\n      0x00\n        /* \"#utility.yul\":24761:24776   */\n      revert\n        /* \"#utility.yul\":24788:24973   */\n    tag_238:\n        /* \"#utility.yul\":24828:24829   */\n      0x00\n        /* \"#utility.yul\":24845:24865   */\n      tag_527\n        /* \"#utility.yul\":24863:24864   */\n      dup3\n        /* \"#utility.yul\":24845:24865   */\n      tag_253\n      jump\t// in\n    tag_527:\n        /* \"#utility.yul\":24840:24865   */\n      swap2\n      pop\n        /* \"#utility.yul\":24879:24899   */\n      tag_528\n        /* \"#utility.yul\":24897:24898   */\n      dup4\n        /* \"#utility.yul\":24879:24899   */\n      tag_253\n      jump\t// in\n    tag_528:\n        /* \"#utility.yul\":24874:24899   */\n      swap3\n      pop\n        /* \"#utility.yul\":24918:24919   */\n      dup3\n        /* \"#utility.yul\":24908:24943   */\n      tag_529\n      jumpi\n        /* \"#utility.yul\":24923:24941   */\n      tag_530\n      tag_304\n      jump\t// in\n    tag_530:\n        /* \"#utility.yul\":24908:24943   */\n    tag_529:\n        /* \"#utility.yul\":24965:24966   */\n      dup3\n        /* \"#utility.yul\":24962:24963   */\n      dup3\n        /* \"#utility.yul\":24958:24967   */\n      div\n        /* \"#utility.yul\":24953:24967   */\n      swap1\n      pop\n        /* \"#utility.yul\":24788:24973   */\n      swap3\n      swap2\n      pop\n      pop\n      jump\t// out\n\n    auxdata: 0xa2646970667358221220ba2a3fcae945c184688f2110f1d4aa23fdc56818ae0d5de31da4b87b86033f1164736f6c63430008120033\n}\n",
				"bytecode": {
					"linkReferences": {},
					"object": "60806040523480156200001157600080fd5b50604051620027f5380380620027f58339818101604052810190620000379190620002e2565b6040518060400160405280601381526020017f4368696c65616e205065736f7320546f6b656e000000000000000000000000008152506040518060400160405280600481526020017f434c5054000000000000000000000000000000000000000000000000000000008152508160039081620000b49190620005a3565b508060049081620000c69190620005a3565b505050600073ffffffffffffffffffffffffffffffffffffffff168273ffffffffffffffffffffffffffffffffffffffff16036200013b576040517f08c379a00000000000000000000000000000000000000000000000000000000081526004016200013290620006eb565b60405180910390fd5b600073ffffffffffffffffffffffffffffffffffffffff168173ffffffffffffffffffffffffffffffffffffffff1603620001ad576040517f08c379a0000000000000000000000000000000000000000000000000000000008152600401620001a4906200075d565b60405180910390fd5b33600560006101000a81548173ffffffffffffffffffffffffffffffffffffffff021916908373ffffffffffffffffffffffffffffffffffffffff16021790555081600660006101000a81548173ffffffffffffffffffffffffffffffffffffffff021916908373ffffffffffffffffffffffffffffffffffffffff16021790555080600760006101000a81548173ffffffffffffffffffffffffffffffffffffffff021916908373ffffffffffffffffffffffffffffffffffffffff16021790555050506200077f565b600080fd5b600073ffffffffffffffffffffffffffffffffffffffff82169050919050565b6000620002aa826200027d565b9050919050565b620002bc816200029d565b8114620002c857600080fd5b50565b600081519050620002dc81620002b1565b92915050565b60008060408385031215620002fc57620002fb62000278565b5b60006200030c85828601620002cb565b92505060206200031f85828601620002cb565b9150509250929050565b600081519050919050565b7f4e487b7100000000000000000000000000000000000000000000000000000000600052604160045260246000fd5b7f4e487b7100000000000000000000000000000000000000000000000000000000600052602260045260246000fd5b60006002820490506001821680620003ab57607f821691505b602082108103620003c157620003c062000363565b5b50919050565b60008190508160005260206000209050919050565b60006020601f8301049050919050565b600082821b905092915050565b6000600883026200042b7fffffffffffffffffffffffffffffffffffffffffffffffffffffffffffffffff82620003ec565b620004378683620003ec565b95508019841693508086168417925050509392505050565b6000819050919050565b6000819050919050565b6000620004846200047e62000478846200044f565b62000459565b6200044f565b9050919050565b6000819050919050565b620004a08362000463565b620004b8620004af826200048b565b848454620003f9565b825550505050565b600090565b620004cf620004c0565b620004dc81848462000495565b505050565b5b818110156200050457620004f8600082620004c5565b600181019050620004e2565b5050565b601f82111562000553576200051d81620003c7565b6200052884620003dc565b8101602085101562000538578190505b620005506200054785620003dc565b830182620004e1565b50505b505050565b600082821c905092915050565b6000620005786000198460080262000558565b1980831691505092915050565b600062000593838362000565565b9150826002028217905092915050565b620005ae8262000329565b67ffffffffffffffff811115620005ca57620005c962000334565b5b620005d6825462000392565b620005e382828562000508565b600060209050601f8311600181146200061b576000841562000606578287015190505b62000612858262000585565b86555062000682565b601f1984166200062b86620003c7565b60005b8281101562000655578489015182556001820191506020850194506020810190506200062e565b8683101562000675578489015162000671601f89168262000565565b8355505b6001600288020188555050505b505050505050565b600082825260208201905092915050565b7f496e76616c696420636f6c6c61746572616c20746f6b656e2061646472657373600082015250565b6000620006d36020836200068a565b9150620006e0826200069b565b602082019050919050565b600060208201905081810360008301526200070681620006c4565b9050919050565b7f496e76616c696420707269636520666565642061646472657373000000000000600082015250565b600062000745601a836200068a565b915062000752826200070d565b602082019050919050565b60006020820190508181036000830152620007788162000736565b9050919050565b612066806200078f6000396000f3fe608060405234801561001057600080fd5b50600436106101215760003560e01c8063741bef1a116100ad578063b2016bd411610071578063b2016bd414610332578063dd62ed3e14610350578063f7683bbc14610380578063f7be38191461039e578063f851a440146103ce57610121565b8063741bef1a1461027a57806395d89b4114610298578063a0712d68146102b6578063a457c2d7146102d2578063a9059cbb1461030257610121565b806323b872dd116100f457806323b872dd146101b0578063313ce567146101e057806339509351146101fe57806342966c681461022e57806370a082311461024a57610121565b806306fdde0314610126578063095ea7b314610144578063175c91df1461017457806318160ddd14610192575b600080fd5b61012e6103ec565b60405161013b919061136b565b60405180910390f35b61015e60048036038101906101599190611426565b61047e565b60405161016b9190611481565b60405180910390f35b61017c6104a1565b60405161018991906114ab565b60405180910390f35b61019a6104a8565b6040516101a791906114ab565b60405180910390f35b6101ca60048036038101906101c591906114c6565b6104b2565b6040516101d79190611481565b60405180910390f35b6101e86104e1565b6040516101f59190611535565b60405180910390f35b61021860048036038101906102139190611426565b6104ea565b6040516102259190611481565b60405180910390f35b61024860048036038101906102439190611550565b610521565b005b610264600480360381019061025f919061157d565b610620565b60405161027191906114ab565b60405180910390f35b610282610668565b60405161028f9190611609565b60405180910390f35b6102a061068e565b6040516102ad919061136b565b60405180910390f35b6102d060048036038101906102cb9190611550565b610720565b005b6102ec60048036038101906102e79190611426565b610821565b6040516102f99190611481565b60405180910390f35b61031c60048036038101906103179190611426565b610898565b6040516103299190611481565b60405180910390f35b61033a6108bb565b6040516103479190611645565b60405180910390f35b61036a60048036038101906103659190611660565b6108e1565b60405161037791906114ab565b60405180910390f35b610388610968565b60405161039591906114ab565b60405180910390f35b6103b860048036038101906103b39190611550565b610a4c565b6040516103c591906114ab565b60405180910390f35b6103d6610a89565b6040516103e391906116af565b60405180910390f35b6060600380546103fb906116f9565b80601f0160208091040260200160405190810160405280929190818152602001828054610427906116f9565b80156104745780601f1061044957610100808354040283529160200191610474565b820191906000526020600020905b81548152906001019060200180831161045757829003601f168201915b5050505050905090565b600080610489610aaf565b9050610496818585610ab7565b600191505092915050565b620f424081565b6000600254905090565b6000806104bd610aaf565b90506104ca858285610c80565b6104d5858585610d0c565b60019150509392505050565b60006012905090565b6000806104f5610aaf565b905061051681858561050785896108e1565b6105119190611759565b610ab7565b600191505092915050565b60008111610564576040517f08c379a000000000000000000000000000000000000000000000000000000000815260040161055b906117d9565b60405180910390fd5b600061056f82610a4c565b905061057b3383610f82565b600660009054906101000a900473ffffffffffffffffffffffffffffffffffffffff1673ffffffffffffffffffffffffffffffffffffffff1663a9059cbb33836040518363ffffffff1660e01b81526004016105d89291906117f9565b6020604051808303816000875af11580156105f7573d6000803e3d6000fd5b505050506040513d601f19601f8201168201806040525081019061061b919061184e565b505050565b60008060008373ffffffffffffffffffffffffffffffffffffffff1673ffffffffffffffffffffffffffffffffffffffff168152602001908152602001600020549050919050565b600760009054906101000a900473ffffffffffffffffffffffffffffffffffffffff1681565b60606004805461069d906116f9565b80601f01602080910402602001604051908101604052809291908181526020018280546106c9906116f9565b80156107165780601f106106eb57610100808354040283529160200191610716565b820191906000526020600020905b8154815290600101906020018083116106f957829003601f168201915b5050505050905090565b60008111610763576040517f08c379a000000000000000000000000000000000000000000000000000000000815260040161075a906117d9565b60405180910390fd5b600061076e82610a4c565b9050600660009054906101000a900473ffffffffffffffffffffffffffffffffffffffff1673ffffffffffffffffffffffffffffffffffffffff166323b872dd3330846040518463ffffffff1660e01b81526004016107cf9392919061187b565b6020604051808303816000875af11580156107ee573d6000803e3d6000fd5b505050506040513d601f19601f82011682018060405250810190610812919061184e565b5061081d338361114f565b5050565b60008061082c610aaf565b9050600061083a82866108e1565b90508381101561087f576040517f08c379a000000000000000000000000000000000000000000000000000000000815260040161087690611924565b60405180910390fd5b61088c8286868403610ab7565b60019250505092915050565b6000806108a3610aaf565b90506108b0818585610d0c565b600191505092915050565b600660009054906101000a900473ffffffffffffffffffffffffffffffffffffffff1681565b6000600160008473ffffffffffffffffffffffffffffffffffffffff1673ffffffffffffffffffffffffffffffffffffffff16815260200190815260200160002060008373ffffffffffffffffffffffffffffffffffffffff1673ffffffffffffffffffffffffffffffffffffffff16815260200190815260200160002054905092915050565b600080600760009054906101000a900473ffffffffffffffffffffffffffffffffffffffff1673ffffffffffffffffffffffffffffffffffffffff1663feaf968c6040518163ffffffff1660e01b815260040160a060405180830381865afa1580156109d8573d6000803e3d6000fd5b505050506040513d601f19601f820116820180604052508101906109fc91906119d1565b50505091505060008113610a45576040517f08c379a0000000000000000000000000000000000000000000000000000000008152600401610a3c90611a98565b60405180910390fd5b8091505090565b600080610a57610968565b9050610a8181610a73620f4240866112a590919063ffffffff16565b6112bb90919063ffffffff16565b915050919050565b600560009054906101000a900473ffffffffffffffffffffffffffffffffffffffff1681565b600033905090565b600073ffffffffffffffffffffffffffffffffffffffff168373ffffffffffffffffffffffffffffffffffffffff1603610b26576040517f08c379a0000000000000000000000000000000000000000000000000000000008152600401610b1d90611b2a565b60405180910390fd5b600073ffffffffffffffffffffffffffffffffffffffff168273ffffffffffffffffffffffffffffffffffffffff1603610b95576040517f08c379a0000000000000000000000000000000000000000000000000000000008152600401610b8c90611bbc565b60405180910390fd5b80600160008573ffffffffffffffffffffffffffffffffffffffff1673ffffffffffffffffffffffffffffffffffffffff16815260200190815260200160002060008473ffffffffffffffffffffffffffffffffffffffff1673ffffffffffffffffffffffffffffffffffffffff168152602001908152602001600020819055508173ffffffffffffffffffffffffffffffffffffffff168373ffffffffffffffffffffffffffffffffffffffff167f8c5be1e5ebec7d5bd14f71427d1e84f3dd0314c0f7b2291e5b200ac8c7c3b92583604051610c7391906114ab565b60405180910390a3505050565b6000610c8c84846108e1565b90507fffffffffffffffffffffffffffffffffffffffffffffffffffffffffffffffff8114610d065781811015610cf8576040517f08c379a0000000000000000000000000000000000000000000000000000000008152600401610cef90611c28565b60405180910390fd5b610d058484848403610ab7565b5b50505050565b600073ffffffffffffffffffffffffffffffffffffffff168373ffffffffffffffffffffffffffffffffffffffff1603610d7b576040517f08c379a0000000000000000000000000000000000000000000000000000000008152600401610d7290611cba565b60405180910390fd5b600073ffffffffffffffffffffffffffffffffffffffff168273ffffffffffffffffffffffffffffffffffffffff1603610dea576040517f08c379a0000000000000000000000000000000000000000000000000000000008152600401610de190611d4c565b60405180910390fd5b610df58383836112d1565b60008060008573ffffffffffffffffffffffffffffffffffffffff1673ffffffffffffffffffffffffffffffffffffffff16815260200190815260200160002054905081811015610e7b576040517f08c379a0000000000000000000000000000000000000000000000000000000008152600401610e7290611dde565b60405180910390fd5b8181036000808673ffffffffffffffffffffffffffffffffffffffff1673ffffffffffffffffffffffffffffffffffffffff16815260200190815260200160002081905550816000808573ffffffffffffffffffffffffffffffffffffffff1673ffffffffffffffffffffffffffffffffffffffff168152602001908152602001600020600082825401925050819055508273ffffffffffffffffffffffffffffffffffffffff168473ffffffffffffffffffffffffffffffffffffffff167fddf252ad1be2c89b69c2b068fc378daa952ba7f163c4a11628f55a4df523b3ef84604051610f6991906114ab565b60405180910390a3610f7c8484846112d6565b50505050565b600073ffffffffffffffffffffffffffffffffffffffff168273ffffffffffffffffffffffffffffffffffffffff1603610ff1576040517f08c379a0000000000000000000000000000000000000000000000000000000008152600401610fe890611e70565b60405180910390fd5b610ffd826000836112d1565b60008060008473ffffffffffffffffffffffffffffffffffffffff1673ffffffffffffffffffffffffffffffffffffffff16815260200190815260200160002054905081811015611083576040517f08c379a000000000000000000000000000000000000000000000000000000000815260040161107a90611f02565b60405180910390fd5b8181036000808573ffffffffffffffffffffffffffffffffffffffff1673ffffffffffffffffffffffffffffffffffffffff1681526020019081526020016000208190555081600260008282540392505081905550600073ffffffffffffffffffffffffffffffffffffffff168373ffffffffffffffffffffffffffffffffffffffff167fddf252ad1be2c89b69c2b068fc378daa952ba7f163c4a11628f55a4df523b3ef8460405161113691906114ab565b60405180910390a361114a836000846112d6565b505050565b600073ffffffffffffffffffffffffffffffffffffffff168273ffffffffffffffffffffffffffffffffffffffff16036111be576040517f08c379a00000000000000000000000000000000000000000000000000000000081526004016111b590611f6e565b60405180910390fd5b6111ca600083836112d1565b80600260008282546111dc9190611759565b92505081905550806000808473ffffffffffffffffffffffffffffffffffffffff1673ffffffffffffffffffffffffffffffffffffffff168152602001908152602001600020600082825401925050819055508173ffffffffffffffffffffffffffffffffffffffff16600073ffffffffffffffffffffffffffffffffffffffff167fddf252ad1be2c89b69c2b068fc378daa952ba7f163c4a11628f55a4df523b3ef8360405161128d91906114ab565b60405180910390a36112a1600083836112d6565b5050565b600081836112b39190611f8e565b905092915050565b600081836112c99190611fff565b905092915050565b505050565b505050565b600081519050919050565b600082825260208201905092915050565b60005b838110156113155780820151818401526020810190506112fa565b60008484015250505050565b6000601f19601f8301169050919050565b600061133d826112db565b61134781856112e6565b93506113578185602086016112f7565b61136081611321565b840191505092915050565b600060208201905081810360008301526113858184611332565b905092915050565b600080fd5b600073ffffffffffffffffffffffffffffffffffffffff82169050919050565b60006113bd82611392565b9050919050565b6113cd816113b2565b81146113d857600080fd5b50565b6000813590506113ea816113c4565b92915050565b6000819050919050565b611403816113f0565b811461140e57600080fd5b50565b600081359050611420816113fa565b92915050565b6000806040838503121561143d5761143c61138d565b5b600061144b858286016113db565b925050602061145c85828601611411565b9150509250929050565b60008115159050919050565b61147b81611466565b82525050565b60006020820190506114966000830184611472565b92915050565b6114a5816113f0565b82525050565b60006020820190506114c0600083018461149c565b92915050565b6000806000606084860312156114df576114de61138d565b5b60006114ed868287016113db565b93505060206114fe868287016113db565b925050604061150f86828701611411565b9150509250925092565b600060ff82169050919050565b61152f81611519565b82525050565b600060208201905061154a6000830184611526565b92915050565b6000602082840312156115665761156561138d565b5b600061157484828501611411565b91505092915050565b6000602082840312156115935761159261138d565b5b60006115a1848285016113db565b91505092915050565b6000819050919050565b60006115cf6115ca6115c584611392565b6115aa565b611392565b9050919050565b60006115e1826115b4565b9050919050565b60006115f3826115d6565b9050919050565b611603816115e8565b82525050565b600060208201905061161e60008301846115fa565b92915050565b600061162f826115d6565b9050919050565b61163f81611624565b82525050565b600060208201905061165a6000830184611636565b92915050565b600080604083850312156116775761167661138d565b5b6000611685858286016113db565b9250506020611696858286016113db565b9150509250929050565b6116a9816113b2565b82525050565b60006020820190506116c460008301846116a0565b92915050565b7f4e487b7100000000000000000000000000000000000000000000000000000000600052602260045260246000fd5b6000600282049050600182168061171157607f821691505b602082108103611724576117236116ca565b5b50919050565b7f4e487b7100000000000000000000000000000000000000000000000000000000600052601160045260246000fd5b6000611764826113f0565b915061176f836113f0565b92508282019050808211156117875761178661172a565b5b92915050565b7f496e76616c696420737461626c65636f696e20616d6f756e7400000000000000600082015250565b60006117c36019836112e6565b91506117ce8261178d565b602082019050919050565b600060208201905081810360008301526117f2816117b6565b9050919050565b600060408201905061180e60008301856116a0565b61181b602083018461149c565b9392505050565b61182b81611466565b811461183657600080fd5b50565b60008151905061184881611822565b92915050565b6000602082840312156118645761186361138d565b5b600061187284828501611839565b91505092915050565b600060608201905061189060008301866116a0565b61189d60208301856116a0565b6118aa604083018461149c565b949350505050565b7f45524332303a2064656372656173656420616c6c6f77616e63652062656c6f7760008201527f207a65726f000000000000000000000000000000000000000000000000000000602082015250565b600061190e6025836112e6565b9150611919826118b2565b604082019050919050565b6000602082019050818103600083015261193d81611901565b9050919050565b600069ffffffffffffffffffff82169050919050565b61196381611944565b811461196e57600080fd5b50565b6000815190506119808161195a565b92915050565b6000819050919050565b61199981611986565b81146119a457600080fd5b50565b6000815190506119b681611990565b92915050565b6000815190506119cb816113fa565b92915050565b600080600080600060a086880312156119ed576119ec61138d565b5b60006119fb88828901611971565b9550506020611a0c888289016119a7565b9450506040611a1d888289016119bc565b9350506060611a2e888289016119bc565b9250506080611a3f88828901611971565b9150509295509295909350565b7f496e76616c696420707269636520666565640000000000000000000000000000600082015250565b6000611a826012836112e6565b9150611a8d82611a4c565b602082019050919050565b60006020820190508181036000830152611ab181611a75565b9050919050565b7f45524332303a20617070726f76652066726f6d20746865207a65726f2061646460008201527f7265737300000000000000000000000000000000000000000000000000000000602082015250565b6000611b146024836112e6565b9150611b1f82611ab8565b604082019050919050565b60006020820190508181036000830152611b4381611b07565b9050919050565b7f45524332303a20617070726f766520746f20746865207a65726f20616464726560008201527f7373000000000000000000000000000000000000000000000000000000000000602082015250565b6000611ba66022836112e6565b9150611bb182611b4a565b604082019050919050565b60006020820190508181036000830152611bd581611b99565b9050919050565b7f45524332303a20696e73756666696369656e7420616c6c6f77616e6365000000600082015250565b6000611c12601d836112e6565b9150611c1d82611bdc565b602082019050919050565b60006020820190508181036000830152611c4181611c05565b9050919050565b7f45524332303a207472616e736665722066726f6d20746865207a65726f20616460008201527f6472657373000000000000000000000000000000000000000000000000000000602082015250565b6000611ca46025836112e6565b9150611caf82611c48565b604082019050919050565b60006020820190508181036000830152611cd381611c97565b9050919050565b7f45524332303a207472616e7366657220746f20746865207a65726f206164647260008201527f6573730000000000000000000000000000000000000000000000000000000000602082015250565b6000611d366023836112e6565b9150611d4182611cda565b604082019050919050565b60006020820190508181036000830152611d6581611d29565b9050919050565b7f45524332303a207472616e7366657220616d6f756e742065786365656473206260008201527f616c616e63650000000000000000000000000000000000000000000000000000602082015250565b6000611dc86026836112e6565b9150611dd382611d6c565b604082019050919050565b60006020820190508181036000830152611df781611dbb565b9050919050565b7f45524332303a206275726e2066726f6d20746865207a65726f2061646472657360008201527f7300000000000000000000000000000000000000000000000000000000000000602082015250565b6000611e5a6021836112e6565b9150611e6582611dfe565b604082019050919050565b60006020820190508181036000830152611e8981611e4d565b9050919050565b7f45524332303a206275726e20616d6f756e7420657863656564732062616c616e60008201527f6365000000000000000000000000000000000000000000000000000000000000602082015250565b6000611eec6022836112e6565b9150611ef782611e90565b604082019050919050565b60006020820190508181036000830152611f1b81611edf565b9050919050565b7f45524332303a206d696e7420746f20746865207a65726f206164647265737300600082015250565b6000611f58601f836112e6565b9150611f6382611f22565b602082019050919050565b60006020820190508181036000830152611f8781611f4b565b9050919050565b6000611f99826113f0565b9150611fa4836113f0565b9250828202611fb2816113f0565b91508282048414831517611fc957611fc861172a565b5b5092915050565b7f4e487b7100000000000000000000000000000000000000000000000000000000600052601260045260246000fd5b600061200a826113f0565b9150612015836113f0565b92508261202557612024611fd0565b5b82820490509291505056fea2646970667358221220ba2a3fcae945c184688f2110f1d4aa23fdc56818ae0d5de31da4b87b86033f1164736f6c63430008120033",
					"opcodes": "PUSH1 0x80 PUSH1 0x40 MSTORE CALLVALUE DUP1 ISZERO PUSH3 0x11 JUMPI PUSH1 0x0 DUP1 REVERT JUMPDEST POP PUSH1 0x40 MLOAD PUSH3 0x27F5 CODESIZE SUB DUP1 PUSH3 0x27F5 DUP4 CODECOPY DUP2 DUP2 ADD PUSH1 0x40 MSTORE DUP2 ADD SWAP1 PUSH3 0x37 SWAP2 SWAP1 PUSH3 0x2E2 JUMP JUMPDEST PUSH1 0x40 MLOAD DUP1 PUSH1 0x40 ADD PUSH1 0x40 MSTORE DUP1 PUSH1 0x13 DUP2 MSTORE PUSH1 0x20 ADD PUSH32 0x4368696C65616E205065736F7320546F6B656E00000000000000000000000000 DUP2 MSTORE POP PUSH1 0x40 MLOAD DUP1 PUSH1 0x40 ADD PUSH1 0x40 MSTORE DUP1 PUSH1 0x4 DUP2 MSTORE PUSH1 0x20 ADD PUSH32 0x434C505400000000000000000000000000000000000000000000000000000000 DUP2 MSTORE POP DUP2 PUSH1 0x3 SWAP1 DUP2 PUSH3 0xB4 SWAP2 SWAP1 PUSH3 0x5A3 JUMP JUMPDEST POP DUP1 PUSH1 0x4 SWAP1 DUP2 PUSH3 0xC6 SWAP2 SWAP1 PUSH3 0x5A3 JUMP JUMPDEST POP POP POP PUSH1 0x0 PUSH20 0xFFFFFFFFFFFFFFFFFFFFFFFFFFFFFFFFFFFFFFFF AND DUP3 PUSH20 0xFFFFFFFFFFFFFFFFFFFFFFFFFFFFFFFFFFFFFFFF AND SUB PUSH3 0x13B JUMPI PUSH1 0x40 MLOAD PUSH32 0x8C379A000000000000000000000000000000000000000000000000000000000 DUP2 MSTORE PUSH1 0x4 ADD PUSH3 0x132 SWAP1 PUSH3 0x6EB JUMP JUMPDEST PUSH1 0x40 MLOAD DUP1 SWAP2 SUB SWAP1 REVERT JUMPDEST PUSH1 0x0 PUSH20 0xFFFFFFFFFFFFFFFFFFFFFFFFFFFFFFFFFFFFFFFF AND DUP2 PUSH20 0xFFFFFFFFFFFFFFFFFFFFFFFFFFFFFFFFFFFFFFFF AND SUB PUSH3 0x1AD JUMPI PUSH1 0x40 MLOAD PUSH32 0x8C379A000000000000000000000000000000000000000000000000000000000 DUP2 MSTORE PUSH1 0x4 ADD PUSH3 0x1A4 SWAP1 PUSH3 0x75D JUMP JUMPDEST PUSH1 0x40 MLOAD DUP1 SWAP2 SUB SWAP1 REVERT JUMPDEST CALLER PUSH1 0x5 PUSH1 0x0 PUSH2 0x100 EXP DUP2 SLOAD DUP2 PUSH20 0xFFFFFFFFFFFFFFFFFFFFFFFFFFFFFFFFFFFFFFFF MUL NOT AND SWAP1 DUP4 PUSH20 0xFFFFFFFFFFFFFFFFFFFFFFFFFFFFFFFFFFFFFFFF AND MUL OR SWAP1 SSTORE POP DUP2 PUSH1 0x6 PUSH1 0x0 PUSH2 0x100 EXP DUP2 SLOAD DUP2 PUSH20 0xFFFFFFFFFFFFFFFFFFFFFFFFFFFFFFFFFFFFFFFF MUL NOT AND SWAP1 DUP4 PUSH20 0xFFFFFFFFFFFFFFFFFFFFFFFFFFFFFFFFFFFFFFFF AND MUL OR SWAP1 SSTORE POP DUP1 PUSH1 0x7 PUSH1 0x0 PUSH2 0x100 EXP DUP2 SLOAD DUP2 PUSH20 0xFFFFFFFFFFFFFFFFFFFFFFFFFFFFFFFFFFFFFFFF MUL NOT AND SWAP1 DUP4 PUSH20 0xFFFFFFFFFFFFFFFFFFFFFFFFFFFFFFFFFFFFFFFF AND MUL OR SWAP1 SSTORE POP POP POP PUSH3 0x77F JUMP JUMPDEST PUSH1 0x0 DUP1 REVERT JUMPDEST PUSH1 0x0 PUSH20 0xFFFFFFFFFFFFFFFFFFFFFFFFFFFFFFFFFFFFFFFF DUP3 AND SWAP1 POP SWAP2 SWAP1 POP JUMP JUMPDEST PUSH1 0x0 PUSH3 0x2AA DUP3 PUSH3 0x27D JUMP JUMPDEST SWAP1 POP SWAP2 SWAP1 POP JUMP JUMPDEST PUSH3 0x2BC DUP2 PUSH3 0x29D JUMP JUMPDEST DUP2 EQ PUSH3 0x2C8 JUMPI PUSH1 0x0 DUP1 REVERT JUMPDEST POP JUMP JUMPDEST PUSH1 0x0 DUP2 MLOAD SWAP1 POP PUSH3 0x2DC DUP2 PUSH3 0x2B1 JUMP JUMPDEST SWAP3 SWAP2 POP POP JUMP JUMPDEST PUSH1 0x0 DUP1 PUSH1 0x40 DUP4 DUP6 SUB SLT ISZERO PUSH3 0x2FC JUMPI PUSH3 0x2FB PUSH3 0x278 JUMP JUMPDEST JUMPDEST PUSH1 0x0 PUSH3 0x30C DUP6 DUP3 DUP7 ADD PUSH3 0x2CB JUMP JUMPDEST SWAP3 POP POP PUSH1 0x20 PUSH3 0x31F DUP6 DUP3 DUP7 ADD PUSH3 0x2CB JUMP JUMPDEST SWAP2 POP POP SWAP3 POP SWAP3 SWAP1 POP JUMP JUMPDEST PUSH1 0x0 DUP2 MLOAD SWAP1 POP SWAP2 SWAP1 POP JUMP JUMPDEST PUSH32 0x4E487B7100000000000000000000000000000000000000000000000000000000 PUSH1 0x0 MSTORE PUSH1 0x41 PUSH1 0x4 MSTORE PUSH1 0x24 PUSH1 0x0 REVERT JUMPDEST PUSH32 0x4E487B7100000000000000000000000000000000000000000000000000000000 PUSH1 0x0 MSTORE PUSH1 0x22 PUSH1 0x4 MSTORE PUSH1 0x24 PUSH1 0x0 REVERT JUMPDEST PUSH1 0x0 PUSH1 0x2 DUP3 DIV SWAP1 POP PUSH1 0x1 DUP3 AND DUP1 PUSH3 0x3AB JUMPI PUSH1 0x7F DUP3 AND SWAP2 POP JUMPDEST PUSH1 0x20 DUP3 LT DUP2 SUB PUSH3 0x3C1 JUMPI PUSH3 0x3C0 PUSH3 0x363 JUMP JUMPDEST JUMPDEST POP SWAP2 SWAP1 POP JUMP JUMPDEST PUSH1 0x0 DUP2 SWAP1 POP DUP2 PUSH1 0x0 MSTORE PUSH1 0x20 PUSH1 0x0 KECCAK256 SWAP1 POP SWAP2 SWAP1 POP JUMP JUMPDEST PUSH1 0x0 PUSH1 0x20 PUSH1 0x1F DUP4 ADD DIV SWAP1 POP SWAP2 SWAP1 POP JUMP JUMPDEST PUSH1 0x0 DUP3 DUP3 SHL SWAP1 POP SWAP3 SWAP2 POP POP JUMP JUMPDEST PUSH1 0x0 PUSH1 0x8 DUP4 MUL PUSH3 0x42B PUSH32 0xFFFFFFFFFFFFFFFFFFFFFFFFFFFFFFFFFFFFFFFFFFFFFFFFFFFFFFFFFFFFFFFF DUP3 PUSH3 0x3EC JUMP JUMPDEST PUSH3 0x437 DUP7 DUP4 PUSH3 0x3EC JUMP JUMPDEST SWAP6 POP DUP1 NOT DUP5 AND SWAP4 POP DUP1 DUP7 AND DUP5 OR SWAP3 POP POP POP SWAP4 SWAP3 POP POP POP JUMP JUMPDEST PUSH1 0x0 DUP2 SWAP1 POP SWAP2 SWAP1 POP JUMP JUMPDEST PUSH1 0x0 DUP2 SWAP1 POP SWAP2 SWAP1 POP JUMP JUMPDEST PUSH1 0x0 PUSH3 0x484 PUSH3 0x47E PUSH3 0x478 DUP5 PUSH3 0x44F JUMP JUMPDEST PUSH3 0x459 JUMP JUMPDEST PUSH3 0x44F JUMP JUMPDEST SWAP1 POP SWAP2 SWAP1 POP JUMP JUMPDEST PUSH1 0x0 DUP2 SWAP1 POP SWAP2 SWAP1 POP JUMP JUMPDEST PUSH3 0x4A0 DUP4 PUSH3 0x463 JUMP JUMPDEST PUSH3 0x4B8 PUSH3 0x4AF DUP3 PUSH3 0x48B JUMP JUMPDEST DUP5 DUP5 SLOAD PUSH3 0x3F9 JUMP JUMPDEST DUP3 SSTORE POP POP POP POP JUMP JUMPDEST PUSH1 0x0 SWAP1 JUMP JUMPDEST PUSH3 0x4CF PUSH3 0x4C0 JUMP JUMPDEST PUSH3 0x4DC DUP2 DUP5 DUP5 PUSH3 0x495 JUMP JUMPDEST POP POP POP JUMP JUMPDEST JUMPDEST DUP2 DUP2 LT ISZERO PUSH3 0x504 JUMPI PUSH3 0x4F8 PUSH1 0x0 DUP3 PUSH3 0x4C5 JUMP JUMPDEST PUSH1 0x1 DUP2 ADD SWAP1 POP PUSH3 0x4E2 JUMP JUMPDEST POP POP JUMP JUMPDEST PUSH1 0x1F DUP3 GT ISZERO PUSH3 0x553 JUMPI PUSH3 0x51D DUP2 PUSH3 0x3C7 JUMP JUMPDEST PUSH3 0x528 DUP5 PUSH3 0x3DC JUMP JUMPDEST DUP2 ADD PUSH1 0x20 DUP6 LT ISZERO PUSH3 0x538 JUMPI DUP2 SWAP1 POP JUMPDEST PUSH3 0x550 PUSH3 0x547 DUP6 PUSH3 0x3DC JUMP JUMPDEST DUP4 ADD DUP3 PUSH3 0x4E1 JUMP JUMPDEST POP POP JUMPDEST POP POP POP JUMP JUMPDEST PUSH1 0x0 DUP3 DUP3 SHR SWAP1 POP SWAP3 SWAP2 POP POP JUMP JUMPDEST PUSH1 0x0 PUSH3 0x578 PUSH1 0x0 NOT DUP5 PUSH1 0x8 MUL PUSH3 0x558 JUMP JUMPDEST NOT DUP1 DUP4 AND SWAP2 POP POP SWAP3 SWAP2 POP POP JUMP JUMPDEST PUSH1 0x0 PUSH3 0x593 DUP4 DUP4 PUSH3 0x565 JUMP JUMPDEST SWAP2 POP DUP3 PUSH1 0x2 MUL DUP3 OR SWAP1 POP SWAP3 SWAP2 POP POP JUMP JUMPDEST PUSH3 0x5AE DUP3 PUSH3 0x329 JUMP JUMPDEST PUSH8 0xFFFFFFFFFFFFFFFF DUP2 GT ISZERO PUSH3 0x5CA JUMPI PUSH3 0x5C9 PUSH3 0x334 JUMP JUMPDEST JUMPDEST PUSH3 0x5D6 DUP3 SLOAD PUSH3 0x392 JUMP JUMPDEST PUSH3 0x5E3 DUP3 DUP3 DUP6 PUSH3 0x508 JUMP JUMPDEST PUSH1 0x0 PUSH1 0x20 SWAP1 POP PUSH1 0x1F DUP4 GT PUSH1 0x1 DUP2 EQ PUSH3 0x61B JUMPI PUSH1 0x0 DUP5 ISZERO PUSH3 0x606 JUMPI DUP3 DUP8 ADD MLOAD SWAP1 POP JUMPDEST PUSH3 0x612 DUP6 DUP3 PUSH3 0x585 JUMP JUMPDEST DUP7 SSTORE POP PUSH3 0x682 JUMP JUMPDEST PUSH1 0x1F NOT DUP5 AND PUSH3 0x62B DUP7 PUSH3 0x3C7 JUMP JUMPDEST PUSH1 0x0 JUMPDEST DUP3 DUP2 LT ISZERO PUSH3 0x655 JUMPI DUP5 DUP10 ADD MLOAD DUP3 SSTORE PUSH1 0x1 DUP3 ADD SWAP2 POP PUSH1 0x20 DUP6 ADD SWAP5 POP PUSH1 0x20 DUP2 ADD SWAP1 POP PUSH3 0x62E JUMP JUMPDEST DUP7 DUP4 LT ISZERO PUSH3 0x675 JUMPI DUP5 DUP10 ADD MLOAD PUSH3 0x671 PUSH1 0x1F DUP10 AND DUP3 PUSH3 0x565 JUMP JUMPDEST DUP4 SSTORE POP JUMPDEST PUSH1 0x1 PUSH1 0x2 DUP9 MUL ADD DUP9 SSTORE POP POP POP JUMPDEST POP POP POP POP POP POP JUMP JUMPDEST PUSH1 0x0 DUP3 DUP3 MSTORE PUSH1 0x20 DUP3 ADD SWAP1 POP SWAP3 SWAP2 POP POP JUMP JUMPDEST PUSH32 0x496E76616C696420636F6C6C61746572616C20746F6B656E2061646472657373 PUSH1 0x0 DUP3 ADD MSTORE POP JUMP JUMPDEST PUSH1 0x0 PUSH3 0x6D3 PUSH1 0x20 DUP4 PUSH3 0x68A JUMP JUMPDEST SWAP2 POP PUSH3 0x6E0 DUP3 PUSH3 0x69B JUMP JUMPDEST PUSH1 0x20 DUP3 ADD SWAP1 POP SWAP2 SWAP1 POP JUMP JUMPDEST PUSH1 0x0 PUSH1 0x20 DUP3 ADD SWAP1 POP DUP2 DUP2 SUB PUSH1 0x0 DUP4 ADD MSTORE PUSH3 0x706 DUP2 PUSH3 0x6C4 JUMP JUMPDEST SWAP1 POP SWAP2 SWAP1 POP JUMP JUMPDEST PUSH32 0x496E76616C696420707269636520666565642061646472657373000000000000 PUSH1 0x0 DUP3 ADD MSTORE POP JUMP JUMPDEST PUSH1 0x0 PUSH3 0x745 PUSH1 0x1A DUP4 PUSH3 0x68A JUMP JUMPDEST SWAP2 POP PUSH3 0x752 DUP3 PUSH3 0x70D JUMP JUMPDEST PUSH1 0x20 DUP3 ADD SWAP1 POP SWAP2 SWAP1 POP JUMP JUMPDEST PUSH1 0x0 PUSH1 0x20 DUP3 ADD SWAP1 POP DUP2 DUP2 SUB PUSH1 0x0 DUP4 ADD MSTORE PUSH3 0x778 DUP2 PUSH3 0x736 JUMP JUMPDEST SWAP1 POP SWAP2 SWAP1 POP JUMP JUMPDEST PUSH2 0x2066 DUP1 PUSH3 0x78F PUSH1 0x0 CODECOPY PUSH1 0x0 RETURN INVALID PUSH1 0x80 PUSH1 0x40 MSTORE CALLVALUE DUP1 ISZERO PUSH2 0x10 JUMPI PUSH1 0x0 DUP1 REVERT JUMPDEST POP PUSH1 0x4 CALLDATASIZE LT PUSH2 0x121 JUMPI PUSH1 0x0 CALLDATALOAD PUSH1 0xE0 SHR DUP1 PUSH4 0x741BEF1A GT PUSH2 0xAD JUMPI DUP1 PUSH4 0xB2016BD4 GT PUSH2 0x71 JUMPI DUP1 PUSH4 0xB2016BD4 EQ PUSH2 0x332 JUMPI DUP1 PUSH4 0xDD62ED3E EQ PUSH2 0x350 JUMPI DUP1 PUSH4 0xF7683BBC EQ PUSH2 0x380 JUMPI DUP1 PUSH4 0xF7BE3819 EQ PUSH2 0x39E JUMPI DUP1 PUSH4 0xF851A440 EQ PUSH2 0x3CE JUMPI PUSH2 0x121 JUMP JUMPDEST DUP1 PUSH4 0x741BEF1A EQ PUSH2 0x27A JUMPI DUP1 PUSH4 0x95D89B41 EQ PUSH2 0x298 JUMPI DUP1 PUSH4 0xA0712D68 EQ PUSH2 0x2B6 JUMPI DUP1 PUSH4 0xA457C2D7 EQ PUSH2 0x2D2 JUMPI DUP1 PUSH4 0xA9059CBB EQ PUSH2 0x302 JUMPI PUSH2 0x121 JUMP JUMPDEST DUP1 PUSH4 0x23B872DD GT PUSH2 0xF4 JUMPI DUP1 PUSH4 0x23B872DD EQ PUSH2 0x1B0 JUMPI DUP1 PUSH4 0x313CE567 EQ PUSH2 0x1E0 JUMPI DUP1 PUSH4 0x39509351 EQ PUSH2 0x1FE JUMPI DUP1 PUSH4 0x42966C68 EQ PUSH2 0x22E JUMPI DUP1 PUSH4 0x70A08231 EQ PUSH2 0x24A JUMPI PUSH2 0x121 JUMP JUMPDEST DUP1 PUSH4 0x6FDDE03 EQ PUSH2 0x126 JUMPI DUP1 PUSH4 0x95EA7B3 EQ PUSH2 0x144 JUMPI DUP1 PUSH4 0x175C91DF EQ PUSH2 0x174 JUMPI DUP1 PUSH4 0x18160DDD EQ PUSH2 0x192 JUMPI JUMPDEST PUSH1 0x0 DUP1 REVERT JUMPDEST PUSH2 0x12E PUSH2 0x3EC JUMP JUMPDEST PUSH1 0x40 MLOAD PUSH2 0x13B SWAP2 SWAP1 PUSH2 0x136B JUMP JUMPDEST PUSH1 0x40 MLOAD DUP1 SWAP2 SUB SWAP1 RETURN JUMPDEST PUSH2 0x15E PUSH1 0x4 DUP1 CALLDATASIZE SUB DUP2 ADD SWAP1 PUSH2 0x159 SWAP2 SWAP1 PUSH2 0x1426 JUMP JUMPDEST PUSH2 0x47E JUMP JUMPDEST PUSH1 0x40 MLOAD PUSH2 0x16B SWAP2 SWAP1 PUSH2 0x1481 JUMP JUMPDEST PUSH1 0x40 MLOAD DUP1 SWAP2 SUB SWAP1 RETURN JUMPDEST PUSH2 0x17C PUSH2 0x4A1 JUMP JUMPDEST PUSH1 0x40 MLOAD PUSH2 0x189 SWAP2 SWAP1 PUSH2 0x14AB JUMP JUMPDEST PUSH1 0x40 MLOAD DUP1 SWAP2 SUB SWAP1 RETURN JUMPDEST PUSH2 0x19A PUSH2 0x4A8 JUMP JUMPDEST PUSH1 0x40 MLOAD PUSH2 0x1A7 SWAP2 SWAP1 PUSH2 0x14AB JUMP JUMPDEST PUSH1 0x40 MLOAD DUP1 SWAP2 SUB SWAP1 RETURN JUMPDEST PUSH2 0x1CA PUSH1 0x4 DUP1 CALLDATASIZE SUB DUP2 ADD SWAP1 PUSH2 0x1C5 SWAP2 SWAP1 PUSH2 0x14C6 JUMP JUMPDEST PUSH2 0x4B2 JUMP JUMPDEST PUSH1 0x40 MLOAD PUSH2 0x1D7 SWAP2 SWAP1 PUSH2 0x1481 JUMP JUMPDEST PUSH1 0x40 MLOAD DUP1 SWAP2 SUB SWAP1 RETURN JUMPDEST PUSH2 0x1E8 PUSH2 0x4E1 JUMP JUMPDEST PUSH1 0x40 MLOAD PUSH2 0x1F5 SWAP2 SWAP1 PUSH2 0x1535 JUMP JUMPDEST PUSH1 0x40 MLOAD DUP1 SWAP2 SUB SWAP1 RETURN JUMPDEST PUSH2 0x218 PUSH1 0x4 DUP1 CALLDATASIZE SUB DUP2 ADD SWAP1 PUSH2 0x213 SWAP2 SWAP1 PUSH2 0x1426 JUMP JUMPDEST PUSH2 0x4EA JUMP JUMPDEST PUSH1 0x40 MLOAD PUSH2 0x225 SWAP2 SWAP1 PUSH2 0x1481 JUMP JUMPDEST PUSH1 0x40 MLOAD DUP1 SWAP2 SUB SWAP1 RETURN JUMPDEST PUSH2 0x248 PUSH1 0x4 DUP1 CALLDATASIZE SUB DUP2 ADD SWAP1 PUSH2 0x243 SWAP2 SWAP1 PUSH2 0x1550 JUMP JUMPDEST PUSH2 0x521 JUMP JUMPDEST STOP JUMPDEST PUSH2 0x264 PUSH1 0x4 DUP1 CALLDATASIZE SUB DUP2 ADD SWAP1 PUSH2 0x25F SWAP2 SWAP1 PUSH2 0x157D JUMP JUMPDEST PUSH2 0x620 JUMP JUMPDEST PUSH1 0x40 MLOAD PUSH2 0x271 SWAP2 SWAP1 PUSH2 0x14AB JUMP JUMPDEST PUSH1 0x40 MLOAD DUP1 SWAP2 SUB SWAP1 RETURN JUMPDEST PUSH2 0x282 PUSH2 0x668 JUMP JUMPDEST PUSH1 0x40 MLOAD PUSH2 0x28F SWAP2 SWAP1 PUSH2 0x1609 JUMP JUMPDEST PUSH1 0x40 MLOAD DUP1 SWAP2 SUB SWAP1 RETURN JUMPDEST PUSH2 0x2A0 PUSH2 0x68E JUMP JUMPDEST PUSH1 0x40 MLOAD PUSH2 0x2AD SWAP2 SWAP1 PUSH2 0x136B JUMP JUMPDEST PUSH1 0x40 MLOAD DUP1 SWAP2 SUB SWAP1 RETURN JUMPDEST PUSH2 0x2D0 PUSH1 0x4 DUP1 CALLDATASIZE SUB DUP2 ADD SWAP1 PUSH2 0x2CB SWAP2 SWAP1 PUSH2 0x1550 JUMP JUMPDEST PUSH2 0x720 JUMP JUMPDEST STOP JUMPDEST PUSH2 0x2EC PUSH1 0x4 DUP1 CALLDATASIZE SUB DUP2 ADD SWAP1 PUSH2 0x2E7 SWAP2 SWAP1 PUSH2 0x1426 JUMP JUMPDEST PUSH2 0x821 JUMP JUMPDEST PUSH1 0x40 MLOAD PUSH2 0x2F9 SWAP2 SWAP1 PUSH2 0x1481 JUMP JUMPDEST PUSH1 0x40 MLOAD DUP1 SWAP2 SUB SWAP1 RETURN JUMPDEST PUSH2 0x31C PUSH1 0x4 DUP1 CALLDATASIZE SUB DUP2 ADD SWAP1 PUSH2 0x317 SWAP2 SWAP1 PUSH2 0x1426 JUMP JUMPDEST PUSH2 0x898 JUMP JUMPDEST PUSH1 0x40 MLOAD PUSH2 0x329 SWAP2 SWAP1 PUSH2 0x1481 JUMP JUMPDEST PUSH1 0x40 MLOAD DUP1 SWAP2 SUB SWAP1 RETURN JUMPDEST PUSH2 0x33A PUSH2 0x8BB JUMP JUMPDEST PUSH1 0x40 MLOAD PUSH2 0x347 SWAP2 SWAP1 PUSH2 0x1645 JUMP JUMPDEST PUSH1 0x40 MLOAD DUP1 SWAP2 SUB SWAP1 RETURN JUMPDEST PUSH2 0x36A PUSH1 0x4 DUP1 CALLDATASIZE SUB DUP2 ADD SWAP1 PUSH2 0x365 SWAP2 SWAP1 PUSH2 0x1660 JUMP JUMPDEST PUSH2 0x8E1 JUMP JUMPDEST PUSH1 0x40 MLOAD PUSH2 0x377 SWAP2 SWAP1 PUSH2 0x14AB JUMP JUMPDEST PUSH1 0x40 MLOAD DUP1 SWAP2 SUB SWAP1 RETURN JUMPDEST PUSH2 0x388 PUSH2 0x968 JUMP JUMPDEST PUSH1 0x40 MLOAD PUSH2 0x395 SWAP2 SWAP1 PUSH2 0x14AB JUMP JUMPDEST PUSH1 0x40 MLOAD DUP1 SWAP2 SUB SWAP1 RETURN JUMPDEST PUSH2 0x3B8 PUSH1 0x4 DUP1 CALLDATASIZE SUB DUP2 ADD SWAP1 PUSH2 0x3B3 SWAP2 SWAP1 PUSH2 0x1550 JUMP JUMPDEST PUSH2 0xA4C JUMP JUMPDEST PUSH1 0x40 MLOAD PUSH2 0x3C5 SWAP2 SWAP1 PUSH2 0x14AB JUMP JUMPDEST PUSH1 0x40 MLOAD DUP1 SWAP2 SUB SWAP1 RETURN JUMPDEST PUSH2 0x3D6 PUSH2 0xA89 JUMP JUMPDEST PUSH1 0x40 MLOAD PUSH2 0x3E3 SWAP2 SWAP1 PUSH2 0x16AF JUMP JUMPDEST PUSH1 0x40 MLOAD DUP1 SWAP2 SUB SWAP1 RETURN JUMPDEST PUSH1 0x60 PUSH1 0x3 DUP1 SLOAD PUSH2 0x3FB SWAP1 PUSH2 0x16F9 JUMP JUMPDEST DUP1 PUSH1 0x1F ADD PUSH1 0x20 DUP1 SWAP2 DIV MUL PUSH1 0x20 ADD PUSH1 0x40 MLOAD SWAP1 DUP2 ADD PUSH1 0x40 MSTORE DUP1 SWAP3 SWAP2 SWAP1 DUP2 DUP2 MSTORE PUSH1 0x20 ADD DUP3 DUP1 SLOAD PUSH2 0x427 SWAP1 PUSH2 0x16F9 JUMP JUMPDEST DUP1 ISZERO PUSH2 0x474 JUMPI DUP1 PUSH1 0x1F LT PUSH2 0x449 JUMPI PUSH2 0x100 DUP1 DUP4 SLOAD DIV MUL DUP4 MSTORE SWAP2 PUSH1 0x20 ADD SWAP2 PUSH2 0x474 JUMP JUMPDEST DUP3 ADD SWAP2 SWAP1 PUSH1 0x0 MSTORE PUSH1 0x20 PUSH1 0x0 KECCAK256 SWAP1 JUMPDEST DUP2 SLOAD DUP2 MSTORE SWAP1 PUSH1 0x1 ADD SWAP1 PUSH1 0x20 ADD DUP1 DUP4 GT PUSH2 0x457 JUMPI DUP3 SWAP1 SUB PUSH1 0x1F AND DUP3 ADD SWAP2 JUMPDEST POP POP POP POP POP SWAP1 POP SWAP1 JUMP JUMPDEST PUSH1 0x0 DUP1 PUSH2 0x489 PUSH2 0xAAF JUMP JUMPDEST SWAP1 POP PUSH2 0x496 DUP2 DUP6 DUP6 PUSH2 0xAB7 JUMP JUMPDEST PUSH1 0x1 SWAP2 POP POP SWAP3 SWAP2 POP POP JUMP JUMPDEST PUSH3 0xF4240 DUP2 JUMP JUMPDEST PUSH1 0x0 PUSH1 0x2 SLOAD SWAP1 POP SWAP1 JUMP JUMPDEST PUSH1 0x0 DUP1 PUSH2 0x4BD PUSH2 0xAAF JUMP JUMPDEST SWAP1 POP PUSH2 0x4CA DUP6 DUP3 DUP6 PUSH2 0xC80 JUMP JUMPDEST PUSH2 0x4D5 DUP6 DUP6 DUP6 PUSH2 0xD0C JUMP JUMPDEST PUSH1 0x1 SWAP2 POP POP SWAP4 SWAP3 POP POP POP JUMP JUMPDEST PUSH1 0x0 PUSH1 0x12 SWAP1 POP SWAP1 JUMP JUMPDEST PUSH1 0x0 DUP1 PUSH2 0x4F5 PUSH2 0xAAF JUMP JUMPDEST SWAP1 POP PUSH2 0x516 DUP2 DUP6 DUP6 PUSH2 0x507 DUP6 DUP10 PUSH2 0x8E1 JUMP JUMPDEST PUSH2 0x511 SWAP2 SWAP1 PUSH2 0x1759 JUMP JUMPDEST PUSH2 0xAB7 JUMP JUMPDEST PUSH1 0x1 SWAP2 POP POP SWAP3 SWAP2 POP POP JUMP JUMPDEST PUSH1 0x0 DUP2 GT PUSH2 0x564 JUMPI PUSH1 0x40 MLOAD PUSH32 0x8C379A000000000000000000000000000000000000000000000000000000000 DUP2 MSTORE PUSH1 0x4 ADD PUSH2 0x55B SWAP1 PUSH2 0x17D9 JUMP JUMPDEST PUSH1 0x40 MLOAD DUP1 SWAP2 SUB SWAP1 REVERT JUMPDEST PUSH1 0x0 PUSH2 0x56F DUP3 PUSH2 0xA4C JUMP JUMPDEST SWAP1 POP PUSH2 0x57B CALLER DUP4 PUSH2 0xF82 JUMP JUMPDEST PUSH1 0x6 PUSH1 0x0 SWAP1 SLOAD SWAP1 PUSH2 0x100 EXP SWAP1 DIV PUSH20 0xFFFFFFFFFFFFFFFFFFFFFFFFFFFFFFFFFFFFFFFF AND PUSH20 0xFFFFFFFFFFFFFFFFFFFFFFFFFFFFFFFFFFFFFFFF AND PUSH4 0xA9059CBB CALLER DUP4 PUSH1 0x40 MLOAD DUP4 PUSH4 0xFFFFFFFF AND PUSH1 0xE0 SHL DUP2 MSTORE PUSH1 0x4 ADD PUSH2 0x5D8 SWAP3 SWAP2 SWAP1 PUSH2 0x17F9 JUMP JUMPDEST PUSH1 0x20 PUSH1 0x40 MLOAD DUP1 DUP4 SUB DUP2 PUSH1 0x0 DUP8 GAS CALL ISZERO DUP1 ISZERO PUSH2 0x5F7 JUMPI RETURNDATASIZE PUSH1 0x0 DUP1 RETURNDATACOPY RETURNDATASIZE PUSH1 0x0 REVERT JUMPDEST POP POP POP POP PUSH1 0x40 MLOAD RETURNDATASIZE PUSH1 0x1F NOT PUSH1 0x1F DUP3 ADD AND DUP3 ADD DUP1 PUSH1 0x40 MSTORE POP DUP2 ADD SWAP1 PUSH2 0x61B SWAP2 SWAP1 PUSH2 0x184E JUMP JUMPDEST POP POP POP JUMP JUMPDEST PUSH1 0x0 DUP1 PUSH1 0x0 DUP4 PUSH20 0xFFFFFFFFFFFFFFFFFFFFFFFFFFFFFFFFFFFFFFFF AND PUSH20 0xFFFFFFFFFFFFFFFFFFFFFFFFFFFFFFFFFFFFFFFF AND DUP2 MSTORE PUSH1 0x20 ADD SWAP1 DUP2 MSTORE PUSH1 0x20 ADD PUSH1 0x0 KECCAK256 SLOAD SWAP1 POP SWAP2 SWAP1 POP JUMP JUMPDEST PUSH1 0x7 PUSH1 0x0 SWAP1 SLOAD SWAP1 PUSH2 0x100 EXP SWAP1 DIV PUSH20 0xFFFFFFFFFFFFFFFFFFFFFFFFFFFFFFFFFFFFFFFF AND DUP2 JUMP JUMPDEST PUSH1 0x60 PUSH1 0x4 DUP1 SLOAD PUSH2 0x69D SWAP1 PUSH2 0x16F9 JUMP JUMPDEST DUP1 PUSH1 0x1F ADD PUSH1 0x20 DUP1 SWAP2 DIV MUL PUSH1 0x20 ADD PUSH1 0x40 MLOAD SWAP1 DUP2 ADD PUSH1 0x40 MSTORE DUP1 SWAP3 SWAP2 SWAP1 DUP2 DUP2 MSTORE PUSH1 0x20 ADD DUP3 DUP1 SLOAD PUSH2 0x6C9 SWAP1 PUSH2 0x16F9 JUMP JUMPDEST DUP1 ISZERO PUSH2 0x716 JUMPI DUP1 PUSH1 0x1F LT PUSH2 0x6EB JUMPI PUSH2 0x100 DUP1 DUP4 SLOAD DIV MUL DUP4 MSTORE SWAP2 PUSH1 0x20 ADD SWAP2 PUSH2 0x716 JUMP JUMPDEST DUP3 ADD SWAP2 SWAP1 PUSH1 0x0 MSTORE PUSH1 0x20 PUSH1 0x0 KECCAK256 SWAP1 JUMPDEST DUP2 SLOAD DUP2 MSTORE SWAP1 PUSH1 0x1 ADD SWAP1 PUSH1 0x20 ADD DUP1 DUP4 GT PUSH2 0x6F9 JUMPI DUP3 SWAP1 SUB PUSH1 0x1F AND DUP3 ADD SWAP2 JUMPDEST POP POP POP POP POP SWAP1 POP SWAP1 JUMP JUMPDEST PUSH1 0x0 DUP2 GT PUSH2 0x763 JUMPI PUSH1 0x40 MLOAD PUSH32 0x8C379A000000000000000000000000000000000000000000000000000000000 DUP2 MSTORE PUSH1 0x4 ADD PUSH2 0x75A SWAP1 PUSH2 0x17D9 JUMP JUMPDEST PUSH1 0x40 MLOAD DUP1 SWAP2 SUB SWAP1 REVERT JUMPDEST PUSH1 0x0 PUSH2 0x76E DUP3 PUSH2 0xA4C JUMP JUMPDEST SWAP1 POP PUSH1 0x6 PUSH1 0x0 SWAP1 SLOAD SWAP1 PUSH2 0x100 EXP SWAP1 DIV PUSH20 0xFFFFFFFFFFFFFFFFFFFFFFFFFFFFFFFFFFFFFFFF AND PUSH20 0xFFFFFFFFFFFFFFFFFFFFFFFFFFFFFFFFFFFFFFFF AND PUSH4 0x23B872DD CALLER ADDRESS DUP5 PUSH1 0x40 MLOAD DUP5 PUSH4 0xFFFFFFFF AND PUSH1 0xE0 SHL DUP2 MSTORE PUSH1 0x4 ADD PUSH2 0x7CF SWAP4 SWAP3 SWAP2 SWAP1 PUSH2 0x187B JUMP JUMPDEST PUSH1 0x20 PUSH1 0x40 MLOAD DUP1 DUP4 SUB DUP2 PUSH1 0x0 DUP8 GAS CALL ISZERO DUP1 ISZERO PUSH2 0x7EE JUMPI RETURNDATASIZE PUSH1 0x0 DUP1 RETURNDATACOPY RETURNDATASIZE PUSH1 0x0 REVERT JUMPDEST POP POP POP POP PUSH1 0x40 MLOAD RETURNDATASIZE PUSH1 0x1F NOT PUSH1 0x1F DUP3 ADD AND DUP3 ADD DUP1 PUSH1 0x40 MSTORE POP DUP2 ADD SWAP1 PUSH2 0x812 SWAP2 SWAP1 PUSH2 0x184E JUMP JUMPDEST POP PUSH2 0x81D CALLER DUP4 PUSH2 0x114F JUMP JUMPDEST POP POP JUMP JUMPDEST PUSH1 0x0 DUP1 PUSH2 0x82C PUSH2 0xAAF JUMP JUMPDEST SWAP1 POP PUSH1 0x0 PUSH2 0x83A DUP3 DUP7 PUSH2 0x8E1 JUMP JUMPDEST SWAP1 POP DUP4 DUP2 LT ISZERO PUSH2 0x87F JUMPI PUSH1 0x40 MLOAD PUSH32 0x8C379A000000000000000000000000000000000000000000000000000000000 DUP2 MSTORE PUSH1 0x4 ADD PUSH2 0x876 SWAP1 PUSH2 0x1924 JUMP JUMPDEST PUSH1 0x40 MLOAD DUP1 SWAP2 SUB SWAP1 REVERT JUMPDEST PUSH2 0x88C DUP3 DUP7 DUP7 DUP5 SUB PUSH2 0xAB7 JUMP JUMPDEST PUSH1 0x1 SWAP3 POP POP POP SWAP3 SWAP2 POP POP JUMP JUMPDEST PUSH1 0x0 DUP1 PUSH2 0x8A3 PUSH2 0xAAF JUMP JUMPDEST SWAP1 POP PUSH2 0x8B0 DUP2 DUP6 DUP6 PUSH2 0xD0C JUMP JUMPDEST PUSH1 0x1 SWAP2 POP POP SWAP3 SWAP2 POP POP JUMP JUMPDEST PUSH1 0x6 PUSH1 0x0 SWAP1 SLOAD SWAP1 PUSH2 0x100 EXP SWAP1 DIV PUSH20 0xFFFFFFFFFFFFFFFFFFFFFFFFFFFFFFFFFFFFFFFF AND DUP2 JUMP JUMPDEST PUSH1 0x0 PUSH1 0x1 PUSH1 0x0 DUP5 PUSH20 0xFFFFFFFFFFFFFFFFFFFFFFFFFFFFFFFFFFFFFFFF AND PUSH20 0xFFFFFFFFFFFFFFFFFFFFFFFFFFFFFFFFFFFFFFFF AND DUP2 MSTORE PUSH1 0x20 ADD SWAP1 DUP2 MSTORE PUSH1 0x20 ADD PUSH1 0x0 KECCAK256 PUSH1 0x0 DUP4 PUSH20 0xFFFFFFFFFFFFFFFFFFFFFFFFFFFFFFFFFFFFFFFF AND PUSH20 0xFFFFFFFFFFFFFFFFFFFFFFFFFFFFFFFFFFFFFFFF AND DUP2 MSTORE PUSH1 0x20 ADD SWAP1 DUP2 MSTORE PUSH1 0x20 ADD PUSH1 0x0 KECCAK256 SLOAD SWAP1 POP SWAP3 SWAP2 POP POP JUMP JUMPDEST PUSH1 0x0 DUP1 PUSH1 0x7 PUSH1 0x0 SWAP1 SLOAD SWAP1 PUSH2 0x100 EXP SWAP1 DIV PUSH20 0xFFFFFFFFFFFFFFFFFFFFFFFFFFFFFFFFFFFFFFFF AND PUSH20 0xFFFFFFFFFFFFFFFFFFFFFFFFFFFFFFFFFFFFFFFF AND PUSH4 0xFEAF968C PUSH1 0x40 MLOAD DUP2 PUSH4 0xFFFFFFFF AND PUSH1 0xE0 SHL DUP2 MSTORE PUSH1 0x4 ADD PUSH1 0xA0 PUSH1 0x40 MLOAD DUP1 DUP4 SUB DUP2 DUP7 GAS STATICCALL ISZERO DUP1 ISZERO PUSH2 0x9D8 JUMPI RETURNDATASIZE PUSH1 0x0 DUP1 RETURNDATACOPY RETURNDATASIZE PUSH1 0x0 REVERT JUMPDEST POP POP POP POP PUSH1 0x40 MLOAD RETURNDATASIZE PUSH1 0x1F NOT PUSH1 0x1F DUP3 ADD AND DUP3 ADD DUP1 PUSH1 0x40 MSTORE POP DUP2 ADD SWAP1 PUSH2 0x9FC SWAP2 SWAP1 PUSH2 0x19D1 JUMP JUMPDEST POP POP POP SWAP2 POP POP PUSH1 0x0 DUP2 SGT PUSH2 0xA45 JUMPI PUSH1 0x40 MLOAD PUSH32 0x8C379A000000000000000000000000000000000000000000000000000000000 DUP2 MSTORE PUSH1 0x4 ADD PUSH2 0xA3C SWAP1 PUSH2 0x1A98 JUMP JUMPDEST PUSH1 0x40 MLOAD DUP1 SWAP2 SUB SWAP1 REVERT JUMPDEST DUP1 SWAP2 POP POP SWAP1 JUMP JUMPDEST PUSH1 0x0 DUP1 PUSH2 0xA57 PUSH2 0x968 JUMP JUMPDEST SWAP1 POP PUSH2 0xA81 DUP2 PUSH2 0xA73 PUSH3 0xF4240 DUP7 PUSH2 0x12A5 SWAP1 SWAP2 SWAP1 PUSH4 0xFFFFFFFF AND JUMP JUMPDEST PUSH2 0x12BB SWAP1 SWAP2 SWAP1 PUSH4 0xFFFFFFFF AND JUMP JUMPDEST SWAP2 POP POP SWAP2 SWAP1 POP JUMP JUMPDEST PUSH1 0x5 PUSH1 0x0 SWAP1 SLOAD SWAP1 PUSH2 0x100 EXP SWAP1 DIV PUSH20 0xFFFFFFFFFFFFFFFFFFFFFFFFFFFFFFFFFFFFFFFF AND DUP2 JUMP JUMPDEST PUSH1 0x0 CALLER SWAP1 POP SWAP1 JUMP JUMPDEST PUSH1 0x0 PUSH20 0xFFFFFFFFFFFFFFFFFFFFFFFFFFFFFFFFFFFFFFFF AND DUP4 PUSH20 0xFFFFFFFFFFFFFFFFFFFFFFFFFFFFFFFFFFFFFFFF AND SUB PUSH2 0xB26 JUMPI PUSH1 0x40 MLOAD PUSH32 0x8C379A000000000000000000000000000000000000000000000000000000000 DUP2 MSTORE PUSH1 0x4 ADD PUSH2 0xB1D SWAP1 PUSH2 0x1B2A JUMP JUMPDEST PUSH1 0x40 MLOAD DUP1 SWAP2 SUB SWAP1 REVERT JUMPDEST PUSH1 0x0 PUSH20 0xFFFFFFFFFFFFFFFFFFFFFFFFFFFFFFFFFFFFFFFF AND DUP3 PUSH20 0xFFFFFFFFFFFFFFFFFFFFFFFFFFFFFFFFFFFFFFFF AND SUB PUSH2 0xB95 JUMPI PUSH1 0x40 MLOAD PUSH32 0x8C379A000000000000000000000000000000000000000000000000000000000 DUP2 MSTORE PUSH1 0x4 ADD PUSH2 0xB8C SWAP1 PUSH2 0x1BBC JUMP JUMPDEST PUSH1 0x40 MLOAD DUP1 SWAP2 SUB SWAP1 REVERT JUMPDEST DUP1 PUSH1 0x1 PUSH1 0x0 DUP6 PUSH20 0xFFFFFFFFFFFFFFFFFFFFFFFFFFFFFFFFFFFFFFFF AND PUSH20 0xFFFFFFFFFFFFFFFFFFFFFFFFFFFFFFFFFFFFFFFF AND DUP2 MSTORE PUSH1 0x20 ADD SWAP1 DUP2 MSTORE PUSH1 0x20 ADD PUSH1 0x0 KECCAK256 PUSH1 0x0 DUP5 PUSH20 0xFFFFFFFFFFFFFFFFFFFFFFFFFFFFFFFFFFFFFFFF AND PUSH20 0xFFFFFFFFFFFFFFFFFFFFFFFFFFFFFFFFFFFFFFFF AND DUP2 MSTORE PUSH1 0x20 ADD SWAP1 DUP2 MSTORE PUSH1 0x20 ADD PUSH1 0x0 KECCAK256 DUP2 SWAP1 SSTORE POP DUP2 PUSH20 0xFFFFFFFFFFFFFFFFFFFFFFFFFFFFFFFFFFFFFFFF AND DUP4 PUSH20 0xFFFFFFFFFFFFFFFFFFFFFFFFFFFFFFFFFFFFFFFF AND PUSH32 0x8C5BE1E5EBEC7D5BD14F71427D1E84F3DD0314C0F7B2291E5B200AC8C7C3B925 DUP4 PUSH1 0x40 MLOAD PUSH2 0xC73 SWAP2 SWAP1 PUSH2 0x14AB JUMP JUMPDEST PUSH1 0x40 MLOAD DUP1 SWAP2 SUB SWAP1 LOG3 POP POP POP JUMP JUMPDEST PUSH1 0x0 PUSH2 0xC8C DUP5 DUP5 PUSH2 0x8E1 JUMP JUMPDEST SWAP1 POP PUSH32 0xFFFFFFFFFFFFFFFFFFFFFFFFFFFFFFFFFFFFFFFFFFFFFFFFFFFFFFFFFFFFFFFF DUP2 EQ PUSH2 0xD06 JUMPI DUP2 DUP2 LT ISZERO PUSH2 0xCF8 JUMPI PUSH1 0x40 MLOAD PUSH32 0x8C379A000000000000000000000000000000000000000000000000000000000 DUP2 MSTORE PUSH1 0x4 ADD PUSH2 0xCEF SWAP1 PUSH2 0x1C28 JUMP JUMPDEST PUSH1 0x40 MLOAD DUP1 SWAP2 SUB SWAP1 REVERT JUMPDEST PUSH2 0xD05 DUP5 DUP5 DUP5 DUP5 SUB PUSH2 0xAB7 JUMP JUMPDEST JUMPDEST POP POP POP POP JUMP JUMPDEST PUSH1 0x0 PUSH20 0xFFFFFFFFFFFFFFFFFFFFFFFFFFFFFFFFFFFFFFFF AND DUP4 PUSH20 0xFFFFFFFFFFFFFFFFFFFFFFFFFFFFFFFFFFFFFFFF AND SUB PUSH2 0xD7B JUMPI PUSH1 0x40 MLOAD PUSH32 0x8C379A000000000000000000000000000000000000000000000000000000000 DUP2 MSTORE PUSH1 0x4 ADD PUSH2 0xD72 SWAP1 PUSH2 0x1CBA JUMP JUMPDEST PUSH1 0x40 MLOAD DUP1 SWAP2 SUB SWAP1 REVERT JUMPDEST PUSH1 0x0 PUSH20 0xFFFFFFFFFFFFFFFFFFFFFFFFFFFFFFFFFFFFFFFF AND DUP3 PUSH20 0xFFFFFFFFFFFFFFFFFFFFFFFFFFFFFFFFFFFFFFFF AND SUB PUSH2 0xDEA JUMPI PUSH1 0x40 MLOAD PUSH32 0x8C379A000000000000000000000000000000000000000000000000000000000 DUP2 MSTORE PUSH1 0x4 ADD PUSH2 0xDE1 SWAP1 PUSH2 0x1D4C JUMP JUMPDEST PUSH1 0x40 MLOAD DUP1 SWAP2 SUB SWAP1 REVERT JUMPDEST PUSH2 0xDF5 DUP4 DUP4 DUP4 PUSH2 0x12D1 JUMP JUMPDEST PUSH1 0x0 DUP1 PUSH1 0x0 DUP6 PUSH20 0xFFFFFFFFFFFFFFFFFFFFFFFFFFFFFFFFFFFFFFFF AND PUSH20 0xFFFFFFFFFFFFFFFFFFFFFFFFFFFFFFFFFFFFFFFF AND DUP2 MSTORE PUSH1 0x20 ADD SWAP1 DUP2 MSTORE PUSH1 0x20 ADD PUSH1 0x0 KECCAK256 SLOAD SWAP1 POP DUP2 DUP2 LT ISZERO PUSH2 0xE7B JUMPI PUSH1 0x40 MLOAD PUSH32 0x8C379A000000000000000000000000000000000000000000000000000000000 DUP2 MSTORE PUSH1 0x4 ADD PUSH2 0xE72 SWAP1 PUSH2 0x1DDE JUMP JUMPDEST PUSH1 0x40 MLOAD DUP1 SWAP2 SUB SWAP1 REVERT JUMPDEST DUP2 DUP2 SUB PUSH1 0x0 DUP1 DUP7 PUSH20 0xFFFFFFFFFFFFFFFFFFFFFFFFFFFFFFFFFFFFFFFF AND PUSH20 0xFFFFFFFFFFFFFFFFFFFFFFFFFFFFFFFFFFFFFFFF AND DUP2 MSTORE PUSH1 0x20 ADD SWAP1 DUP2 MSTORE PUSH1 0x20 ADD PUSH1 0x0 KECCAK256 DUP2 SWAP1 SSTORE POP DUP2 PUSH1 0x0 DUP1 DUP6 PUSH20 0xFFFFFFFFFFFFFFFFFFFFFFFFFFFFFFFFFFFFFFFF AND PUSH20 0xFFFFFFFFFFFFFFFFFFFFFFFFFFFFFFFFFFFFFFFF AND DUP2 MSTORE PUSH1 0x20 ADD SWAP1 DUP2 MSTORE PUSH1 0x20 ADD PUSH1 0x0 KECCAK256 PUSH1 0x0 DUP3 DUP3 SLOAD ADD SWAP3 POP POP DUP2 SWAP1 SSTORE POP DUP3 PUSH20 0xFFFFFFFFFFFFFFFFFFFFFFFFFFFFFFFFFFFFFFFF AND DUP5 PUSH20 0xFFFFFFFFFFFFFFFFFFFFFFFFFFFFFFFFFFFFFFFF AND PUSH32 0xDDF252AD1BE2C89B69C2B068FC378DAA952BA7F163C4A11628F55A4DF523B3EF DUP5 PUSH1 0x40 MLOAD PUSH2 0xF69 SWAP2 SWAP1 PUSH2 0x14AB JUMP JUMPDEST PUSH1 0x40 MLOAD DUP1 SWAP2 SUB SWAP1 LOG3 PUSH2 0xF7C DUP5 DUP5 DUP5 PUSH2 0x12D6 JUMP JUMPDEST POP POP POP POP JUMP JUMPDEST PUSH1 0x0 PUSH20 0xFFFFFFFFFFFFFFFFFFFFFFFFFFFFFFFFFFFFFFFF AND DUP3 PUSH20 0xFFFFFFFFFFFFFFFFFFFFFFFFFFFFFFFFFFFFFFFF AND SUB PUSH2 0xFF1 JUMPI PUSH1 0x40 MLOAD PUSH32 0x8C379A000000000000000000000000000000000000000000000000000000000 DUP2 MSTORE PUSH1 0x4 ADD PUSH2 0xFE8 SWAP1 PUSH2 0x1E70 JUMP JUMPDEST PUSH1 0x40 MLOAD DUP1 SWAP2 SUB SWAP1 REVERT JUMPDEST PUSH2 0xFFD DUP3 PUSH1 0x0 DUP4 PUSH2 0x12D1 JUMP JUMPDEST PUSH1 0x0 DUP1 PUSH1 0x0 DUP5 PUSH20 0xFFFFFFFFFFFFFFFFFFFFFFFFFFFFFFFFFFFFFFFF AND PUSH20 0xFFFFFFFFFFFFFFFFFFFFFFFFFFFFFFFFFFFFFFFF AND DUP2 MSTORE PUSH1 0x20 ADD SWAP1 DUP2 MSTORE PUSH1 0x20 ADD PUSH1 0x0 KECCAK256 SLOAD SWAP1 POP DUP2 DUP2 LT ISZERO PUSH2 0x1083 JUMPI PUSH1 0x40 MLOAD PUSH32 0x8C379A000000000000000000000000000000000000000000000000000000000 DUP2 MSTORE PUSH1 0x4 ADD PUSH2 0x107A SWAP1 PUSH2 0x1F02 JUMP JUMPDEST PUSH1 0x40 MLOAD DUP1 SWAP2 SUB SWAP1 REVERT JUMPDEST DUP2 DUP2 SUB PUSH1 0x0 DUP1 DUP6 PUSH20 0xFFFFFFFFFFFFFFFFFFFFFFFFFFFFFFFFFFFFFFFF AND PUSH20 0xFFFFFFFFFFFFFFFFFFFFFFFFFFFFFFFFFFFFFFFF AND DUP2 MSTORE PUSH1 0x20 ADD SWAP1 DUP2 MSTORE PUSH1 0x20 ADD PUSH1 0x0 KECCAK256 DUP2 SWAP1 SSTORE POP DUP2 PUSH1 0x2 PUSH1 0x0 DUP3 DUP3 SLOAD SUB SWAP3 POP POP DUP2 SWAP1 SSTORE POP PUSH1 0x0 PUSH20 0xFFFFFFFFFFFFFFFFFFFFFFFFFFFFFFFFFFFFFFFF AND DUP4 PUSH20 0xFFFFFFFFFFFFFFFFFFFFFFFFFFFFFFFFFFFFFFFF AND PUSH32 0xDDF252AD1BE2C89B69C2B068FC378DAA952BA7F163C4A11628F55A4DF523B3EF DUP5 PUSH1 0x40 MLOAD PUSH2 0x1136 SWAP2 SWAP1 PUSH2 0x14AB JUMP JUMPDEST PUSH1 0x40 MLOAD DUP1 SWAP2 SUB SWAP1 LOG3 PUSH2 0x114A DUP4 PUSH1 0x0 DUP5 PUSH2 0x12D6 JUMP JUMPDEST POP POP POP JUMP JUMPDEST PUSH1 0x0 PUSH20 0xFFFFFFFFFFFFFFFFFFFFFFFFFFFFFFFFFFFFFFFF AND DUP3 PUSH20 0xFFFFFFFFFFFFFFFFFFFFFFFFFFFFFFFFFFFFFFFF AND SUB PUSH2 0x11BE JUMPI PUSH1 0x40 MLOAD PUSH32 0x8C379A000000000000000000000000000000000000000000000000000000000 DUP2 MSTORE PUSH1 0x4 ADD PUSH2 0x11B5 SWAP1 PUSH2 0x1F6E JUMP JUMPDEST PUSH1 0x40 MLOAD DUP1 SWAP2 SUB SWAP1 REVERT JUMPDEST PUSH2 0x11CA PUSH1 0x0 DUP4 DUP4 PUSH2 0x12D1 JUMP JUMPDEST DUP1 PUSH1 0x2 PUSH1 0x0 DUP3 DUP3 SLOAD PUSH2 0x11DC SWAP2 SWAP1 PUSH2 0x1759 JUMP JUMPDEST SWAP3 POP POP DUP2 SWAP1 SSTORE POP DUP1 PUSH1 0x0 DUP1 DUP5 PUSH20 0xFFFFFFFFFFFFFFFFFFFFFFFFFFFFFFFFFFFFFFFF AND PUSH20 0xFFFFFFFFFFFFFFFFFFFFFFFFFFFFFFFFFFFFFFFF AND DUP2 MSTORE PUSH1 0x20 ADD SWAP1 DUP2 MSTORE PUSH1 0x20 ADD PUSH1 0x0 KECCAK256 PUSH1 0x0 DUP3 DUP3 SLOAD ADD SWAP3 POP POP DUP2 SWAP1 SSTORE POP DUP2 PUSH20 0xFFFFFFFFFFFFFFFFFFFFFFFFFFFFFFFFFFFFFFFF AND PUSH1 0x0 PUSH20 0xFFFFFFFFFFFFFFFFFFFFFFFFFFFFFFFFFFFFFFFF AND PUSH32 0xDDF252AD1BE2C89B69C2B068FC378DAA952BA7F163C4A11628F55A4DF523B3EF DUP4 PUSH1 0x40 MLOAD PUSH2 0x128D SWAP2 SWAP1 PUSH2 0x14AB JUMP JUMPDEST PUSH1 0x40 MLOAD DUP1 SWAP2 SUB SWAP1 LOG3 PUSH2 0x12A1 PUSH1 0x0 DUP4 DUP4 PUSH2 0x12D6 JUMP JUMPDEST POP POP JUMP JUMPDEST PUSH1 0x0 DUP2 DUP4 PUSH2 0x12B3 SWAP2 SWAP1 PUSH2 0x1F8E JUMP JUMPDEST SWAP1 POP SWAP3 SWAP2 POP POP JUMP JUMPDEST PUSH1 0x0 DUP2 DUP4 PUSH2 0x12C9 SWAP2 SWAP1 PUSH2 0x1FFF JUMP JUMPDEST SWAP1 POP SWAP3 SWAP2 POP POP JUMP JUMPDEST POP POP POP JUMP JUMPDEST POP POP POP JUMP JUMPDEST PUSH1 0x0 DUP2 MLOAD SWAP1 POP SWAP2 SWAP1 POP JUMP JUMPDEST PUSH1 0x0 DUP3 DUP3 MSTORE PUSH1 0x20 DUP3 ADD SWAP1 POP SWAP3 SWAP2 POP POP JUMP JUMPDEST PUSH1 0x0 JUMPDEST DUP4 DUP2 LT ISZERO PUSH2 0x1315 JUMPI DUP1 DUP3 ADD MLOAD DUP2 DUP5 ADD MSTORE PUSH1 0x20 DUP2 ADD SWAP1 POP PUSH2 0x12FA JUMP JUMPDEST PUSH1 0x0 DUP5 DUP5 ADD MSTORE POP POP POP POP JUMP JUMPDEST PUSH1 0x0 PUSH1 0x1F NOT PUSH1 0x1F DUP4 ADD AND SWAP1 POP SWAP2 SWAP1 POP JUMP JUMPDEST PUSH1 0x0 PUSH2 0x133D DUP3 PUSH2 0x12DB JUMP JUMPDEST PUSH2 0x1347 DUP2 DUP6 PUSH2 0x12E6 JUMP JUMPDEST SWAP4 POP PUSH2 0x1357 DUP2 DUP6 PUSH1 0x20 DUP7 ADD PUSH2 0x12F7 JUMP JUMPDEST PUSH2 0x1360 DUP2 PUSH2 0x1321 JUMP JUMPDEST DUP5 ADD SWAP2 POP POP SWAP3 SWAP2 POP POP JUMP JUMPDEST PUSH1 0x0 PUSH1 0x20 DUP3 ADD SWAP1 POP DUP2 DUP2 SUB PUSH1 0x0 DUP4 ADD MSTORE PUSH2 0x1385 DUP2 DUP5 PUSH2 0x1332 JUMP JUMPDEST SWAP1 POP SWAP3 SWAP2 POP POP JUMP JUMPDEST PUSH1 0x0 DUP1 REVERT JUMPDEST PUSH1 0x0 PUSH20 0xFFFFFFFFFFFFFFFFFFFFFFFFFFFFFFFFFFFFFFFF DUP3 AND SWAP1 POP SWAP2 SWAP1 POP JUMP JUMPDEST PUSH1 0x0 PUSH2 0x13BD DUP3 PUSH2 0x1392 JUMP JUMPDEST SWAP1 POP SWAP2 SWAP1 POP JUMP JUMPDEST PUSH2 0x13CD DUP2 PUSH2 0x13B2 JUMP JUMPDEST DUP2 EQ PUSH2 0x13D8 JUMPI PUSH1 0x0 DUP1 REVERT JUMPDEST POP JUMP JUMPDEST PUSH1 0x0 DUP2 CALLDATALOAD SWAP1 POP PUSH2 0x13EA DUP2 PUSH2 0x13C4 JUMP JUMPDEST SWAP3 SWAP2 POP POP JUMP JUMPDEST PUSH1 0x0 DUP2 SWAP1 POP SWAP2 SWAP1 POP JUMP JUMPDEST PUSH2 0x1403 DUP2 PUSH2 0x13F0 JUMP JUMPDEST DUP2 EQ PUSH2 0x140E JUMPI PUSH1 0x0 DUP1 REVERT JUMPDEST POP JUMP JUMPDEST PUSH1 0x0 DUP2 CALLDATALOAD SWAP1 POP PUSH2 0x1420 DUP2 PUSH2 0x13FA JUMP JUMPDEST SWAP3 SWAP2 POP POP JUMP JUMPDEST PUSH1 0x0 DUP1 PUSH1 0x40 DUP4 DUP6 SUB SLT ISZERO PUSH2 0x143D JUMPI PUSH2 0x143C PUSH2 0x138D JUMP JUMPDEST JUMPDEST PUSH1 0x0 PUSH2 0x144B DUP6 DUP3 DUP7 ADD PUSH2 0x13DB JUMP JUMPDEST SWAP3 POP POP PUSH1 0x20 PUSH2 0x145C DUP6 DUP3 DUP7 ADD PUSH2 0x1411 JUMP JUMPDEST SWAP2 POP POP SWAP3 POP SWAP3 SWAP1 POP JUMP JUMPDEST PUSH1 0x0 DUP2 ISZERO ISZERO SWAP1 POP SWAP2 SWAP1 POP JUMP JUMPDEST PUSH2 0x147B DUP2 PUSH2 0x1466 JUMP JUMPDEST DUP3 MSTORE POP POP JUMP JUMPDEST PUSH1 0x0 PUSH1 0x20 DUP3 ADD SWAP1 POP PUSH2 0x1496 PUSH1 0x0 DUP4 ADD DUP5 PUSH2 0x1472 JUMP JUMPDEST SWAP3 SWAP2 POP POP JUMP JUMPDEST PUSH2 0x14A5 DUP2 PUSH2 0x13F0 JUMP JUMPDEST DUP3 MSTORE POP POP JUMP JUMPDEST PUSH1 0x0 PUSH1 0x20 DUP3 ADD SWAP1 POP PUSH2 0x14C0 PUSH1 0x0 DUP4 ADD DUP5 PUSH2 0x149C JUMP JUMPDEST SWAP3 SWAP2 POP POP JUMP JUMPDEST PUSH1 0x0 DUP1 PUSH1 0x0 PUSH1 0x60 DUP5 DUP7 SUB SLT ISZERO PUSH2 0x14DF JUMPI PUSH2 0x14DE PUSH2 0x138D JUMP JUMPDEST JUMPDEST PUSH1 0x0 PUSH2 0x14ED DUP7 DUP3 DUP8 ADD PUSH2 0x13DB JUMP JUMPDEST SWAP4 POP POP PUSH1 0x20 PUSH2 0x14FE DUP7 DUP3 DUP8 ADD PUSH2 0x13DB JUMP JUMPDEST SWAP3 POP POP PUSH1 0x40 PUSH2 0x150F DUP7 DUP3 DUP8 ADD PUSH2 0x1411 JUMP JUMPDEST SWAP2 POP POP SWAP3 POP SWAP3 POP SWAP3 JUMP JUMPDEST PUSH1 0x0 PUSH1 0xFF DUP3 AND SWAP1 POP SWAP2 SWAP1 POP JUMP JUMPDEST PUSH2 0x152F DUP2 PUSH2 0x1519 JUMP JUMPDEST DUP3 MSTORE POP POP JUMP JUMPDEST PUSH1 0x0 PUSH1 0x20 DUP3 ADD SWAP1 POP PUSH2 0x154A PUSH1 0x0 DUP4 ADD DUP5 PUSH2 0x1526 JUMP JUMPDEST SWAP3 SWAP2 POP POP JUMP JUMPDEST PUSH1 0x0 PUSH1 0x20 DUP3 DUP5 SUB SLT ISZERO PUSH2 0x1566 JUMPI PUSH2 0x1565 PUSH2 0x138D JUMP JUMPDEST JUMPDEST PUSH1 0x0 PUSH2 0x1574 DUP5 DUP3 DUP6 ADD PUSH2 0x1411 JUMP JUMPDEST SWAP2 POP POP SWAP3 SWAP2 POP POP JUMP JUMPDEST PUSH1 0x0 PUSH1 0x20 DUP3 DUP5 SUB SLT ISZERO PUSH2 0x1593 JUMPI PUSH2 0x1592 PUSH2 0x138D JUMP JUMPDEST JUMPDEST PUSH1 0x0 PUSH2 0x15A1 DUP5 DUP3 DUP6 ADD PUSH2 0x13DB JUMP JUMPDEST SWAP2 POP POP SWAP3 SWAP2 POP POP JUMP JUMPDEST PUSH1 0x0 DUP2 SWAP1 POP SWAP2 SWAP1 POP JUMP JUMPDEST PUSH1 0x0 PUSH2 0x15CF PUSH2 0x15CA PUSH2 0x15C5 DUP5 PUSH2 0x1392 JUMP JUMPDEST PUSH2 0x15AA JUMP JUMPDEST PUSH2 0x1392 JUMP JUMPDEST SWAP1 POP SWAP2 SWAP1 POP JUMP JUMPDEST PUSH1 0x0 PUSH2 0x15E1 DUP3 PUSH2 0x15B4 JUMP JUMPDEST SWAP1 POP SWAP2 SWAP1 POP JUMP JUMPDEST PUSH1 0x0 PUSH2 0x15F3 DUP3 PUSH2 0x15D6 JUMP JUMPDEST SWAP1 POP SWAP2 SWAP1 POP JUMP JUMPDEST PUSH2 0x1603 DUP2 PUSH2 0x15E8 JUMP JUMPDEST DUP3 MSTORE POP POP JUMP JUMPDEST PUSH1 0x0 PUSH1 0x20 DUP3 ADD SWAP1 POP PUSH2 0x161E PUSH1 0x0 DUP4 ADD DUP5 PUSH2 0x15FA JUMP JUMPDEST SWAP3 SWAP2 POP POP JUMP JUMPDEST PUSH1 0x0 PUSH2 0x162F DUP3 PUSH2 0x15D6 JUMP JUMPDEST SWAP1 POP SWAP2 SWAP1 POP JUMP JUMPDEST PUSH2 0x163F DUP2 PUSH2 0x1624 JUMP JUMPDEST DUP3 MSTORE POP POP JUMP JUMPDEST PUSH1 0x0 PUSH1 0x20 DUP3 ADD SWAP1 POP PUSH2 0x165A PUSH1 0x0 DUP4 ADD DUP5 PUSH2 0x1636 JUMP JUMPDEST SWAP3 SWAP2 POP POP JUMP JUMPDEST PUSH1 0x0 DUP1 PUSH1 0x40 DUP4 DUP6 SUB SLT ISZERO PUSH2 0x1677 JUMPI PUSH2 0x1676 PUSH2 0x138D JUMP JUMPDEST JUMPDEST PUSH1 0x0 PUSH2 0x1685 DUP6 DUP3 DUP7 ADD PUSH2 0x13DB JUMP JUMPDEST SWAP3 POP POP PUSH1 0x20 PUSH2 0x1696 DUP6 DUP3 DUP7 ADD PUSH2 0x13DB JUMP JUMPDEST SWAP2 POP POP SWAP3 POP SWAP3 SWAP1 POP JUMP JUMPDEST PUSH2 0x16A9 DUP2 PUSH2 0x13B2 JUMP JUMPDEST DUP3 MSTORE POP POP JUMP JUMPDEST PUSH1 0x0 PUSH1 0x20 DUP3 ADD SWAP1 POP PUSH2 0x16C4 PUSH1 0x0 DUP4 ADD DUP5 PUSH2 0x16A0 JUMP JUMPDEST SWAP3 SWAP2 POP POP JUMP JUMPDEST PUSH32 0x4E487B7100000000000000000000000000000000000000000000000000000000 PUSH1 0x0 MSTORE PUSH1 0x22 PUSH1 0x4 MSTORE PUSH1 0x24 PUSH1 0x0 REVERT JUMPDEST PUSH1 0x0 PUSH1 0x2 DUP3 DIV SWAP1 POP PUSH1 0x1 DUP3 AND DUP1 PUSH2 0x1711 JUMPI PUSH1 0x7F DUP3 AND SWAP2 POP JUMPDEST PUSH1 0x20 DUP3 LT DUP2 SUB PUSH2 0x1724 JUMPI PUSH2 0x1723 PUSH2 0x16CA JUMP JUMPDEST JUMPDEST POP SWAP2 SWAP1 POP JUMP JUMPDEST PUSH32 0x4E487B7100000000000000000000000000000000000000000000000000000000 PUSH1 0x0 MSTORE PUSH1 0x11 PUSH1 0x4 MSTORE PUSH1 0x24 PUSH1 0x0 REVERT JUMPDEST PUSH1 0x0 PUSH2 0x1764 DUP3 PUSH2 0x13F0 JUMP JUMPDEST SWAP2 POP PUSH2 0x176F DUP4 PUSH2 0x13F0 JUMP JUMPDEST SWAP3 POP DUP3 DUP3 ADD SWAP1 POP DUP1 DUP3 GT ISZERO PUSH2 0x1787 JUMPI PUSH2 0x1786 PUSH2 0x172A JUMP JUMPDEST JUMPDEST SWAP3 SWAP2 POP POP JUMP JUMPDEST PUSH32 0x496E76616C696420737461626C65636F696E20616D6F756E7400000000000000 PUSH1 0x0 DUP3 ADD MSTORE POP JUMP JUMPDEST PUSH1 0x0 PUSH2 0x17C3 PUSH1 0x19 DUP4 PUSH2 0x12E6 JUMP JUMPDEST SWAP2 POP PUSH2 0x17CE DUP3 PUSH2 0x178D JUMP JUMPDEST PUSH1 0x20 DUP3 ADD SWAP1 POP SWAP2 SWAP1 POP JUMP JUMPDEST PUSH1 0x0 PUSH1 0x20 DUP3 ADD SWAP1 POP DUP2 DUP2 SUB PUSH1 0x0 DUP4 ADD MSTORE PUSH2 0x17F2 DUP2 PUSH2 0x17B6 JUMP JUMPDEST SWAP1 POP SWAP2 SWAP1 POP JUMP JUMPDEST PUSH1 0x0 PUSH1 0x40 DUP3 ADD SWAP1 POP PUSH2 0x180E PUSH1 0x0 DUP4 ADD DUP6 PUSH2 0x16A0 JUMP JUMPDEST PUSH2 0x181B PUSH1 0x20 DUP4 ADD DUP5 PUSH2 0x149C JUMP JUMPDEST SWAP4 SWAP3 POP POP POP JUMP JUMPDEST PUSH2 0x182B DUP2 PUSH2 0x1466 JUMP JUMPDEST DUP2 EQ PUSH2 0x1836 JUMPI PUSH1 0x0 DUP1 REVERT JUMPDEST POP JUMP JUMPDEST PUSH1 0x0 DUP2 MLOAD SWAP1 POP PUSH2 0x1848 DUP2 PUSH2 0x1822 JUMP JUMPDEST SWAP3 SWAP2 POP POP JUMP JUMPDEST PUSH1 0x0 PUSH1 0x20 DUP3 DUP5 SUB SLT ISZERO PUSH2 0x1864 JUMPI PUSH2 0x1863 PUSH2 0x138D JUMP JUMPDEST JUMPDEST PUSH1 0x0 PUSH2 0x1872 DUP5 DUP3 DUP6 ADD PUSH2 0x1839 JUMP JUMPDEST SWAP2 POP POP SWAP3 SWAP2 POP POP JUMP JUMPDEST PUSH1 0x0 PUSH1 0x60 DUP3 ADD SWAP1 POP PUSH2 0x1890 PUSH1 0x0 DUP4 ADD DUP7 PUSH2 0x16A0 JUMP JUMPDEST PUSH2 0x189D PUSH1 0x20 DUP4 ADD DUP6 PUSH2 0x16A0 JUMP JUMPDEST PUSH2 0x18AA PUSH1 0x40 DUP4 ADD DUP5 PUSH2 0x149C JUMP JUMPDEST SWAP5 SWAP4 POP POP POP POP JUMP JUMPDEST PUSH32 0x45524332303A2064656372656173656420616C6C6F77616E63652062656C6F77 PUSH1 0x0 DUP3 ADD MSTORE PUSH32 0x207A65726F000000000000000000000000000000000000000000000000000000 PUSH1 0x20 DUP3 ADD MSTORE POP JUMP JUMPDEST PUSH1 0x0 PUSH2 0x190E PUSH1 0x25 DUP4 PUSH2 0x12E6 JUMP JUMPDEST SWAP2 POP PUSH2 0x1919 DUP3 PUSH2 0x18B2 JUMP JUMPDEST PUSH1 0x40 DUP3 ADD SWAP1 POP SWAP2 SWAP1 POP JUMP JUMPDEST PUSH1 0x0 PUSH1 0x20 DUP3 ADD SWAP1 POP DUP2 DUP2 SUB PUSH1 0x0 DUP4 ADD MSTORE PUSH2 0x193D DUP2 PUSH2 0x1901 JUMP JUMPDEST SWAP1 POP SWAP2 SWAP1 POP JUMP JUMPDEST PUSH1 0x0 PUSH10 0xFFFFFFFFFFFFFFFFFFFF DUP3 AND SWAP1 POP SWAP2 SWAP1 POP JUMP JUMPDEST PUSH2 0x1963 DUP2 PUSH2 0x1944 JUMP JUMPDEST DUP2 EQ PUSH2 0x196E JUMPI PUSH1 0x0 DUP1 REVERT JUMPDEST POP JUMP JUMPDEST PUSH1 0x0 DUP2 MLOAD SWAP1 POP PUSH2 0x1980 DUP2 PUSH2 0x195A JUMP JUMPDEST SWAP3 SWAP2 POP POP JUMP JUMPDEST PUSH1 0x0 DUP2 SWAP1 POP SWAP2 SWAP1 POP JUMP JUMPDEST PUSH2 0x1999 DUP2 PUSH2 0x1986 JUMP JUMPDEST DUP2 EQ PUSH2 0x19A4 JUMPI PUSH1 0x0 DUP1 REVERT JUMPDEST POP JUMP JUMPDEST PUSH1 0x0 DUP2 MLOAD SWAP1 POP PUSH2 0x19B6 DUP2 PUSH2 0x1990 JUMP JUMPDEST SWAP3 SWAP2 POP POP JUMP JUMPDEST PUSH1 0x0 DUP2 MLOAD SWAP1 POP PUSH2 0x19CB DUP2 PUSH2 0x13FA JUMP JUMPDEST SWAP3 SWAP2 POP POP JUMP JUMPDEST PUSH1 0x0 DUP1 PUSH1 0x0 DUP1 PUSH1 0x0 PUSH1 0xA0 DUP7 DUP9 SUB SLT ISZERO PUSH2 0x19ED JUMPI PUSH2 0x19EC PUSH2 0x138D JUMP JUMPDEST JUMPDEST PUSH1 0x0 PUSH2 0x19FB DUP9 DUP3 DUP10 ADD PUSH2 0x1971 JUMP JUMPDEST SWAP6 POP POP PUSH1 0x20 PUSH2 0x1A0C DUP9 DUP3 DUP10 ADD PUSH2 0x19A7 JUMP JUMPDEST SWAP5 POP POP PUSH1 0x40 PUSH2 0x1A1D DUP9 DUP3 DUP10 ADD PUSH2 0x19BC JUMP JUMPDEST SWAP4 POP POP PUSH1 0x60 PUSH2 0x1A2E DUP9 DUP3 DUP10 ADD PUSH2 0x19BC JUMP JUMPDEST SWAP3 POP POP PUSH1 0x80 PUSH2 0x1A3F DUP9 DUP3 DUP10 ADD PUSH2 0x1971 JUMP JUMPDEST SWAP2 POP POP SWAP3 SWAP6 POP SWAP3 SWAP6 SWAP1 SWAP4 POP JUMP JUMPDEST PUSH32 0x496E76616C696420707269636520666565640000000000000000000000000000 PUSH1 0x0 DUP3 ADD MSTORE POP JUMP JUMPDEST PUSH1 0x0 PUSH2 0x1A82 PUSH1 0x12 DUP4 PUSH2 0x12E6 JUMP JUMPDEST SWAP2 POP PUSH2 0x1A8D DUP3 PUSH2 0x1A4C JUMP JUMPDEST PUSH1 0x20 DUP3 ADD SWAP1 POP SWAP2 SWAP1 POP JUMP JUMPDEST PUSH1 0x0 PUSH1 0x20 DUP3 ADD SWAP1 POP DUP2 DUP2 SUB PUSH1 0x0 DUP4 ADD MSTORE PUSH2 0x1AB1 DUP2 PUSH2 0x1A75 JUMP JUMPDEST SWAP1 POP SWAP2 SWAP1 POP JUMP JUMPDEST PUSH32 0x45524332303A20617070726F76652066726F6D20746865207A65726F20616464 PUSH1 0x0 DUP3 ADD MSTORE PUSH32 0x7265737300000000000000000000000000000000000000000000000000000000 PUSH1 0x20 DUP3 ADD MSTORE POP JUMP JUMPDEST PUSH1 0x0 PUSH2 0x1B14 PUSH1 0x24 DUP4 PUSH2 0x12E6 JUMP JUMPDEST SWAP2 POP PUSH2 0x1B1F DUP3 PUSH2 0x1AB8 JUMP JUMPDEST PUSH1 0x40 DUP3 ADD SWAP1 POP SWAP2 SWAP1 POP JUMP JUMPDEST PUSH1 0x0 PUSH1 0x20 DUP3 ADD SWAP1 POP DUP2 DUP2 SUB PUSH1 0x0 DUP4 ADD MSTORE PUSH2 0x1B43 DUP2 PUSH2 0x1B07 JUMP JUMPDEST SWAP1 POP SWAP2 SWAP1 POP JUMP JUMPDEST PUSH32 0x45524332303A20617070726F766520746F20746865207A65726F206164647265 PUSH1 0x0 DUP3 ADD MSTORE PUSH32 0x7373000000000000000000000000000000000000000000000000000000000000 PUSH1 0x20 DUP3 ADD MSTORE POP JUMP JUMPDEST PUSH1 0x0 PUSH2 0x1BA6 PUSH1 0x22 DUP4 PUSH2 0x12E6 JUMP JUMPDEST SWAP2 POP PUSH2 0x1BB1 DUP3 PUSH2 0x1B4A JUMP JUMPDEST PUSH1 0x40 DUP3 ADD SWAP1 POP SWAP2 SWAP1 POP JUMP JUMPDEST PUSH1 0x0 PUSH1 0x20 DUP3 ADD SWAP1 POP DUP2 DUP2 SUB PUSH1 0x0 DUP4 ADD MSTORE PUSH2 0x1BD5 DUP2 PUSH2 0x1B99 JUMP JUMPDEST SWAP1 POP SWAP2 SWAP1 POP JUMP JUMPDEST PUSH32 0x45524332303A20696E73756666696369656E7420616C6C6F77616E6365000000 PUSH1 0x0 DUP3 ADD MSTORE POP JUMP JUMPDEST PUSH1 0x0 PUSH2 0x1C12 PUSH1 0x1D DUP4 PUSH2 0x12E6 JUMP JUMPDEST SWAP2 POP PUSH2 0x1C1D DUP3 PUSH2 0x1BDC JUMP JUMPDEST PUSH1 0x20 DUP3 ADD SWAP1 POP SWAP2 SWAP1 POP JUMP JUMPDEST PUSH1 0x0 PUSH1 0x20 DUP3 ADD SWAP1 POP DUP2 DUP2 SUB PUSH1 0x0 DUP4 ADD MSTORE PUSH2 0x1C41 DUP2 PUSH2 0x1C05 JUMP JUMPDEST SWAP1 POP SWAP2 SWAP1 POP JUMP JUMPDEST PUSH32 0x45524332303A207472616E736665722066726F6D20746865207A65726F206164 PUSH1 0x0 DUP3 ADD MSTORE PUSH32 0x6472657373000000000000000000000000000000000000000000000000000000 PUSH1 0x20 DUP3 ADD MSTORE POP JUMP JUMPDEST PUSH1 0x0 PUSH2 0x1CA4 PUSH1 0x25 DUP4 PUSH2 0x12E6 JUMP JUMPDEST SWAP2 POP PUSH2 0x1CAF DUP3 PUSH2 0x1C48 JUMP JUMPDEST PUSH1 0x40 DUP3 ADD SWAP1 POP SWAP2 SWAP1 POP JUMP JUMPDEST PUSH1 0x0 PUSH1 0x20 DUP3 ADD SWAP1 POP DUP2 DUP2 SUB PUSH1 0x0 DUP4 ADD MSTORE PUSH2 0x1CD3 DUP2 PUSH2 0x1C97 JUMP JUMPDEST SWAP1 POP SWAP2 SWAP1 POP JUMP JUMPDEST PUSH32 0x45524332303A207472616E7366657220746F20746865207A65726F2061646472 PUSH1 0x0 DUP3 ADD MSTORE PUSH32 0x6573730000000000000000000000000000000000000000000000000000000000 PUSH1 0x20 DUP3 ADD MSTORE POP JUMP JUMPDEST PUSH1 0x0 PUSH2 0x1D36 PUSH1 0x23 DUP4 PUSH2 0x12E6 JUMP JUMPDEST SWAP2 POP PUSH2 0x1D41 DUP3 PUSH2 0x1CDA JUMP JUMPDEST PUSH1 0x40 DUP3 ADD SWAP1 POP SWAP2 SWAP1 POP JUMP JUMPDEST PUSH1 0x0 PUSH1 0x20 DUP3 ADD SWAP1 POP DUP2 DUP2 SUB PUSH1 0x0 DUP4 ADD MSTORE PUSH2 0x1D65 DUP2 PUSH2 0x1D29 JUMP JUMPDEST SWAP1 POP SWAP2 SWAP1 POP JUMP JUMPDEST PUSH32 0x45524332303A207472616E7366657220616D6F756E7420657863656564732062 PUSH1 0x0 DUP3 ADD MSTORE PUSH32 0x616C616E63650000000000000000000000000000000000000000000000000000 PUSH1 0x20 DUP3 ADD MSTORE POP JUMP JUMPDEST PUSH1 0x0 PUSH2 0x1DC8 PUSH1 0x26 DUP4 PUSH2 0x12E6 JUMP JUMPDEST SWAP2 POP PUSH2 0x1DD3 DUP3 PUSH2 0x1D6C JUMP JUMPDEST PUSH1 0x40 DUP3 ADD SWAP1 POP SWAP2 SWAP1 POP JUMP JUMPDEST PUSH1 0x0 PUSH1 0x20 DUP3 ADD SWAP1 POP DUP2 DUP2 SUB PUSH1 0x0 DUP4 ADD MSTORE PUSH2 0x1DF7 DUP2 PUSH2 0x1DBB JUMP JUMPDEST SWAP1 POP SWAP2 SWAP1 POP JUMP JUMPDEST PUSH32 0x45524332303A206275726E2066726F6D20746865207A65726F20616464726573 PUSH1 0x0 DUP3 ADD MSTORE PUSH32 0x7300000000000000000000000000000000000000000000000000000000000000 PUSH1 0x20 DUP3 ADD MSTORE POP JUMP JUMPDEST PUSH1 0x0 PUSH2 0x1E5A PUSH1 0x21 DUP4 PUSH2 0x12E6 JUMP JUMPDEST SWAP2 POP PUSH2 0x1E65 DUP3 PUSH2 0x1DFE JUMP JUMPDEST PUSH1 0x40 DUP3 ADD SWAP1 POP SWAP2 SWAP1 POP JUMP JUMPDEST PUSH1 0x0 PUSH1 0x20 DUP3 ADD SWAP1 POP DUP2 DUP2 SUB PUSH1 0x0 DUP4 ADD MSTORE PUSH2 0x1E89 DUP2 PUSH2 0x1E4D JUMP JUMPDEST SWAP1 POP SWAP2 SWAP1 POP JUMP JUMPDEST PUSH32 0x45524332303A206275726E20616D6F756E7420657863656564732062616C616E PUSH1 0x0 DUP3 ADD MSTORE PUSH32 0x6365000000000000000000000000000000000000000000000000000000000000 PUSH1 0x20 DUP3 ADD MSTORE POP JUMP JUMPDEST PUSH1 0x0 PUSH2 0x1EEC PUSH1 0x22 DUP4 PUSH2 0x12E6 JUMP JUMPDEST SWAP2 POP PUSH2 0x1EF7 DUP3 PUSH2 0x1E90 JUMP JUMPDEST PUSH1 0x40 DUP3 ADD SWAP1 POP SWAP2 SWAP1 POP JUMP JUMPDEST PUSH1 0x0 PUSH1 0x20 DUP3 ADD SWAP1 POP DUP2 DUP2 SUB PUSH1 0x0 DUP4 ADD MSTORE PUSH2 0x1F1B DUP2 PUSH2 0x1EDF JUMP JUMPDEST SWAP1 POP SWAP2 SWAP1 POP JUMP JUMPDEST PUSH32 0x45524332303A206D696E7420746F20746865207A65726F206164647265737300 PUSH1 0x0 DUP3 ADD MSTORE POP JUMP JUMPDEST PUSH1 0x0 PUSH2 0x1F58 PUSH1 0x1F DUP4 PUSH2 0x12E6 JUMP JUMPDEST SWAP2 POP PUSH2 0x1F63 DUP3 PUSH2 0x1F22 JUMP JUMPDEST PUSH1 0x20 DUP3 ADD SWAP1 POP SWAP2 SWAP1 POP JUMP JUMPDEST PUSH1 0x0 PUSH1 0x20 DUP3 ADD SWAP1 POP DUP2 DUP2 SUB PUSH1 0x0 DUP4 ADD MSTORE PUSH2 0x1F87 DUP2 PUSH2 0x1F4B JUMP JUMPDEST SWAP1 POP SWAP2 SWAP1 POP JUMP JUMPDEST PUSH1 0x0 PUSH2 0x1F99 DUP3 PUSH2 0x13F0 JUMP JUMPDEST SWAP2 POP PUSH2 0x1FA4 DUP4 PUSH2 0x13F0 JUMP JUMPDEST SWAP3 POP DUP3 DUP3 MUL PUSH2 0x1FB2 DUP2 PUSH2 0x13F0 JUMP JUMPDEST SWAP2 POP DUP3 DUP3 DIV DUP5 EQ DUP4 ISZERO OR PUSH2 0x1FC9 JUMPI PUSH2 0x1FC8 PUSH2 0x172A JUMP JUMPDEST JUMPDEST POP SWAP3 SWAP2 POP POP JUMP JUMPDEST PUSH32 0x4E487B7100000000000000000000000000000000000000000000000000000000 PUSH1 0x0 MSTORE PUSH1 0x12 PUSH1 0x4 MSTORE PUSH1 0x24 PUSH1 0x0 REVERT JUMPDEST PUSH1 0x0 PUSH2 0x200A DUP3 PUSH2 0x13F0 JUMP JUMPDEST SWAP2 POP PUSH2 0x2015 DUP4 PUSH2 0x13F0 JUMP JUMPDEST SWAP3 POP DUP3 PUSH2 0x2025 JUMPI PUSH2 0x2024 PUSH2 0x1FD0 JUMP JUMPDEST JUMPDEST DUP3 DUP3 DIV SWAP1 POP SWAP3 SWAP2 POP POP JUMP INVALID LOG2 PUSH5 0x6970667358 0x22 SLT KECCAK256 0xBA 0x2A EXTCODEHASH 0xCA 0xE9 GASLIMIT 0xC1 DUP5 PUSH9 0x8F2110F1D4AA23FDC5 PUSH9 0x18AE0D5DE31DA4B87B DUP7 SUB EXTCODEHASH GT PUSH5 0x736F6C6343 STOP ADDMOD SLT STOP CALLER "
				},
				"gasEstimates": {
					"creation": {
						"codeDepositCost": "1658800",
						"executionCost": "infinite",
						"totalCost": "infinite"
					},
					"external": {
						"COLLATERAL_DECIMAL()": "397",
						"admin()": "2624",
						"allowance(address,address)": "infinite",
						"approve(address,uint256)": "infinite",
						"balanceOf(address)": "2952",
						"burn(uint256)": "infinite",
						"calculateCollateralAmount(uint256)": "infinite",
						"collateralToken()": "infinite",
						"decimals()": "388",
						"decreaseAllowance(address,uint256)": "infinite",
						"getCollateralPrice()": "infinite",
						"increaseAllowance(address,uint256)": "infinite",
						"mint(uint256)": "infinite",
						"name()": "infinite",
						"priceFeed()": "infinite",
						"symbol()": "infinite",
						"totalSupply()": "2527",
						"transfer(address,uint256)": "infinite",
						"transferFrom(address,address,uint256)": "infinite"
					}
				},
				"methodIdentifiers": {
					"COLLATERAL_DECIMAL()": "175c91df",
					"admin()": "f851a440",
					"allowance(address,address)": "dd62ed3e",
					"approve(address,uint256)": "095ea7b3",
					"balanceOf(address)": "70a08231",
					"burn(uint256)": "42966c68",
					"calculateCollateralAmount(uint256)": "f7be3819",
					"collateralToken()": "b2016bd4",
					"decimals()": "313ce567",
					"decreaseAllowance(address,uint256)": "a457c2d7",
					"getCollateralPrice()": "f7683bbc",
					"increaseAllowance(address,uint256)": "39509351",
					"mint(uint256)": "a0712d68",
					"name()": "06fdde03",
					"priceFeed()": "741bef1a",
					"symbol()": "95d89b41",
					"totalSupply()": "18160ddd",
					"transfer(address,uint256)": "a9059cbb",
					"transferFrom(address,address,uint256)": "23b872dd"
				}
			},
			"storageLayout": {
				"storage": [
					{
						"astId": 61,
						"contract": "CLPT/CLPTStablecoin.sol:CLPTStablecoin",
						"label": "_balances",
						"offset": 0,
						"slot": "0",
						"type": "t_mapping(t_address,t_uint256)"
					},
					{
						"astId": 67,
						"contract": "CLPT/CLPTStablecoin.sol:CLPTStablecoin",
						"label": "_allowances",
						"offset": 0,
						"slot": "1",
						"type": "t_mapping(t_address,t_mapping(t_address,t_uint256))"
					},
					{
						"astId": 69,
						"contract": "CLPT/CLPTStablecoin.sol:CLPTStablecoin",
						"label": "_totalSupply",
						"offset": 0,
						"slot": "2",
						"type": "t_uint256"
					},
					{
						"astId": 71,
						"contract": "CLPT/CLPTStablecoin.sol:CLPTStablecoin",
						"label": "_name",
						"offset": 0,
						"slot": "3",
						"type": "t_string_storage"
					},
					{
						"astId": 73,
						"contract": "CLPT/CLPTStablecoin.sol:CLPTStablecoin",
						"label": "_symbol",
						"offset": 0,
						"slot": "4",
						"type": "t_string_storage"
					},
					{
						"astId": 1082,
						"contract": "CLPT/CLPTStablecoin.sol:CLPTStablecoin",
						"label": "admin",
						"offset": 0,
						"slot": "5",
						"type": "t_address"
					},
					{
						"astId": 1085,
						"contract": "CLPT/CLPTStablecoin.sol:CLPTStablecoin",
						"label": "collateralToken",
						"offset": 0,
						"slot": "6",
						"type": "t_contract(IERC20)710"
					},
					{
						"astId": 1088,
						"contract": "CLPT/CLPTStablecoin.sol:CLPTStablecoin",
						"label": "priceFeed",
						"offset": 0,
						"slot": "7",
						"type": "t_contract(AggregatorV3Interface)45"
					}
				],
				"types": {
					"t_address": {
						"encoding": "inplace",
						"label": "address",
						"numberOfBytes": "20"
					},
					"t_contract(AggregatorV3Interface)45": {
						"encoding": "inplace",
						"label": "contract AggregatorV3Interface",
						"numberOfBytes": "20"
					},
					"t_contract(IERC20)710": {
						"encoding": "inplace",
						"label": "contract IERC20",
						"numberOfBytes": "20"
					},
					"t_mapping(t_address,t_mapping(t_address,t_uint256))": {
						"encoding": "mapping",
						"key": "t_address",
						"label": "mapping(address => mapping(address => uint256))",
						"numberOfBytes": "32",
						"value": "t_mapping(t_address,t_uint256)"
					},
					"t_mapping(t_address,t_uint256)": {
						"encoding": "mapping",
						"key": "t_address",
						"label": "mapping(address => uint256)",
						"numberOfBytes": "32",
						"value": "t_uint256"
					},
					"t_string_storage": {
						"encoding": "bytes",
						"label": "string",
						"numberOfBytes": "32"
					},
					"t_uint256": {
						"encoding": "inplace",
						"label": "uint256",
						"numberOfBytes": "32"
					}
				}
			},
			"userdoc": {
				"kind": "user",
				"methods": {},
				"version": 1
			}
		}
	}
}